:020000040000FA
:0400000076EF00F0A7
:06000800628224ED0AF003
:100018006280D8CF50F0E8CF51F0E0CF52F0D9CF7E
:1000280053F0DACF54F09E9283CF55F080CF56F03C
:100038003CEF00F0080E896E800E0524D96E000E84
:100048000620DA6EDF508C6E56EF00F0100E896EC7
:100058008AC08CFF56EF00F0200E896E800E0324B4
:10006800D96E000E0420DA6EDF508C6E56EF00F069
:1000780001C04EF002C04FF04F50000AD8B447EF0D
:1000880000F056EF00F04E50000AD8B41EEF00F012
:10009800010AD8B42AEF00F0030AD8B430EF00F010
:1000A80056EF00F0010E0124486E000E0220496E42
:1000B800000E4B6E030E4A6E5DEC0EF048C001F068
:1000C80049C002F056C089FF55C08CFF54C0DAFF02
:1000D80053C0D9FF52C0E0FF51C0E8FF50C0D8FF5D
:0800E800629010006EEF0FF0B2
:05100000002564000062
:10100600000E0101916F000E906F000E936F000E9F
:10101600926F90C186F191C187F1050ED8908637FF
:101026008737E82E11EF08F0000E886F010E896FE2
:101036008651882787518923D8909235D96E933562
:10104600DA6E8851D9268951DA22000EDE6E000E3C
:10105600DD6E924B932B93BF3AEF08F0935109E163
:10106600100E925DD8A03AEF08F03CEF08F00CEFB6
:1010760008F0904B912B91BF4AEF08F0915109E18E
:10108600040E905DD8A04AEF08F04CEF08F008EF88
:1010960008F0000E956F000E946F94C180F195C113
:1010A60081F1000E836F050E826F3AEC10F0100E80
:1010B6000101866F000E876F805186278151872335
:1010C60094C180F195C181F1000E836F050E826F88
:1010D6003AEC10F0110E01018025D96E000E812127
:1010E600DA6EDF50886F896B050ED890883789379E
:1010F600E82E78EF08F094C180F195C181F1000ED9
:10110600836F050E826F3AEC10F0100E01018025F8
:10111600D96E000E8121DA6EDF508A6F8B6BD89004
:101126008A378B37DE0E8C6FFF0E8D6F000E8E6F3B
:10113600010E8F6F8C518E278D518F238A518E27EA
:101146008B518F2388518E25D96E89518F21DA6E66
:1011560086C1DEFF87C1DDFF944B952B95BFBDEFA2
:1011660008F0955109E1060E945DD8A0BDEF08F090
:10117600BFEF08F050EF08F0000E976F000E966F65
:10118600000E996F000E986F9629586E9829596E21
:1011960058C081F1595032EC0FF096C186F197C1D3
:1011A60087F1050ED890010186378737E82ED5EFEF
:1011B60008F0000E886F010E896F865188278751C7
:1011C6008923D8909835D96E9935DA6E8851D92603
:1011D6008951DA22DE50DE10D8B4F4EF08F0F6EFCB
:1011E60008F020EF09F096C186F197C187F1050E48
:1011F600D89086378737E82EFBEF08F0000E886F09
:10120600010E896F8651882787518923D890983592
:10121600D96E9935DA6E8851D9268951DA2210EEBF
:1012260002F0DE50E126DD50E222E750D8A41EEFA0
:1012360009F020EF09F0C3EF09F0200EEEEC0FF0F5
:1012460002EF0AF0060EEEEC0FF002EF0AF0070EC0
:10125600EEEC0FF002EF0AF0000EEEEC0FF002EFEC
:101266000AF0020EEEEC0FF002EF0AF0040EEEECBE
:101276000FF002EF0AF096C186F197C187F1050ECD
:10128600D89086378737E82E43EF09F0000E886F2F
:10129600010E896F8651882787518923D890983502
:1012A600D96E9935DA6E8851D9268951DA2210EE2F
:1012B60004F0DE50E126DD50E222E7508A6F8B6BA8
:1012C6008B51000AD8B46AEF09F002EF0AF08A518E
:1012D600000AD8B42FEF09F0010AD8B434EF09F0A8
:1012E600030AD8B439EF09F002EF0AF0010EEEEC6A
:1012F6000FF002EF0AF0030EEEEC0FF002EF0AF029
:10130600050EEEEC0FF002EF0AF096C186F197C1DA
:1013160087F1050ED89086378737E82E8DEF09F0CE
:10132600000E886F010E896F8651882787518923A1
:10133600D8909835D96E9935DA6E8851D926895163
:10134600DA2210EE04F0DE50E126DD50E222E7500C
:101356008A6F8B6B8B51000AD8B4B4EF09F002EF99
:101366000AF08A51000AD8B479EF09F0010AD8B414
:101376007EEF09F0030AD8B483EF09F002EF0AF012
:1013860096C186F197C187F1050ED89086378737C3
:10139600E82EC8EF09F0000E886F010E896F86519E
:1013A600882787518923D8909835D96E9935DA6E72
:1013B6008851D9268951DA2210EE03F0DE50E12653
:1013C600DD50E222E7508A6F8B6B8B51000AD8B44E
:1013D600EFEF09F002EF0AF08A51000AD8B43EEFA7
:1013E60009F0010AD8B488EF09F0030AD8B425EF4A
:1013F60009F0010AD8B42AEF09F002EF0AF0010158
:10140600984B992B99BF11EF0AF0995109E1100EEB
:10141600985DD8A011EF0AF013EF0AF0C7EF08F0B5
:10142600964B972B97BF21EF0AF0975109E1040ECF
:10143600965DD8A021EF0AF023EF0AF0C3EF08F07B
:1014460012000600E1CF41F0E2CF42F0D9CF43F0DF
:10145600DACF44F0F3CF45F0F4CF46F081CF47F032
:10146600F2A438EF0AF03AEF0AF03EEF0AF0010E66
:101476000F6ED59EF294F2A243EF0AF045EF0AF002
:1014860053EF0AF00F50D8B44BEF0AF04DEF0AF0C5
:1014960017EF0BF00D4A0E2A6FEC10F017EF0BF05A
:1014A600F0A058EF0AF05AEF0AF090EF0AF00F504A
:1014B600D8B460EF0AF062EF0AF017EF0BF00B4AB0
:1014C6000C2A07C02EF008C02FF0000E316E050E54
:1014D600306E4EEC10F0140E2E24D96E000E2F2016
:1014E600DA6E000EDF6E074A082A030E0714076E2F
:1014F600086A07C02EF008C02FF0000E316E050EE8
:10150600306E4EEC10F0140E2E24D96E000E2F20E5
:10151600DA6E010EDF6E4FEF0AF0F2A095EF0AF0D9
:1015260097EF0AF017EF0BF00F50D8B49DEF0AF0C3
:101536009FEF0AF017EF0BF047380F0B476EF6EFE9
:101546000AF007C02EF008C02FF0000E316E050E0F
:10155600306E4EEC10F0100E2E24346E000E2F203E
:10156600356E13EC0CF013EF0BF007C02EF008C02D
:101576002FF0000E316E050E306E4EEC10F0100E90
:101586002E24346E000E2F20356E3FEC0DF013EF37
:101596000BF007C02EF008C02FF0000E316E050EBE
:1015A600306E4EEC10F0100E2E24346E000E2F20EE
:1015B600356ED0EC0DF013EF0BF007C02EF008C01F
:1015C6002FF0000E316E050E306E4EEC10F0100E40
:1015D6002E24346E000E2F20356EABEC0CF013EF7C
:1015E6000BF013EF0BF047503F6E406A4050000A75
:1015F600D8B400EF0BF0F4EF0AF03F50070AD8B466
:10160600E0EF0AF00C0AD8B4CCEF0AF0060AD8B418
:10161600B8EF0AF0030AD8B4A4EF0AF0F4EF0AF020
:10162600094A0A2A4FEF0AF0F090F292F29046C069
:10163600F4FF45C0F3FF44C0DAFF43C0D9FF42C000
:10164600E2FF41C0E1FF62921100000E0101936FBB
:10165600000E926F000E956F000E946F92C186F188
:1016660093C187F1050ED89086378737E82E36EF77
:101676000BF0000E886F010E896F865188278751FF
:101686008923D8909435D96E9535DA6E8851D92646
:101696008951DA22000EDE6E000EDD6E944B952B1C
:1016A60095BF5FEF0BF0955109E1100E945DD8A040
:1016B6005FEF0BF061EF0BF031EF0BF0924B932BDA
:1016C60093BF6FEF0BF0935109E1040E925DD8A022
:1016D6006FEF0BF071EF0BF02DEF0BF0000E086EB5
:1016E600000E076E030E106E020E116E000E136EC4
:1016F600010E146E010E126E030E156E030E166E9B
:10170600000E186E000E196E010E176E0E0E1A6E72
:10171600020E1B6E010E1D6E000E1E6E010E1C6E5D
:101726000E0E1F6E030E206E010E226E000E236E2D
:10173600010E216E090E296E020E2A6E020E2C6E05
:10174600040E2D6E010E2B6E010E246E010E256EFB
:10175600030E276E000E266E000E976F000E966F14
:1017660096C180F197C181F1000E836F050E826FDD
:101776003AEC10F0100E0101866F000E876F805153
:10178600862781518723050E9603F3CF88F1F4CF80
:1017960089F19703F3508927100E8825D96E000E1C
:1017A6008921DA6EDF508A6F8A51020DF3CF8BF1F1
:1017B600F4CF8CF1050E9603F3CF8DF1F4CF8EF1B5
:1017C6009703F3508E27110E8D25D96E000E8E21AC
:1017D600DA6EDF508F6F8F51200D000E906F010E65
:1017E600916FF3509027F45091238B519025D96E29
:1017F6008C519121DA6E86C1DEFF87C1DDFF964BE3
:10180600972B97BF10EF0CF0975109E1060E965DE6
:10181600D8A010EF0CF012EF0CF0B3EF0BF01200A3
:1018260020EE01F03450D9263550DA22DE04D8A451
:101836001FEF0CF021EF0CF023EF0CF0AAEF0CF0E9
:1018460020EE01F03450D9263550DA22DF50366EBC
:10185600376A050ED89036363736E82E2DEF0CF05F
:1018660034C0D9FF35C0DAFFDF50386E396AD890F8
:1018760038363936BE0E3A6EFF0E3B6E000E3C6EA3
:10188600010E3D6E3A503C263B503D2238503C26D8
:1018960039503D2236503C24D96E37503D20DA6E01
:1018A60010EE03F0DE50E126DD50E222E750D8A428
:1018B6005FEF0CF061EF0CF063EF0CF0AAEF0CF0A9
:1018C60020EE01F03450D9263550DA22DF50366E3C
:1018D600376A050ED89036363736E82E6DEF0CF09F
:1018E60034C0D9FF35C0DAFFDF50386E396AD89078
:1018F60038363936BE0E3A6EFF0E3B6E000E3C6E23
:10190600010E3D6E3A503C263B503D2238503C2657
:1019160039503D2236503C24D96E37503D20DA6E80
:1019260010EE03F0DE50E126DD50E222E604D8A4F4
:101936009FEF0CF0A1EF0CF0A3EF0CF0AAEF0CF068
:1019460020EE01F03450D9263550DA22DF06120097
:1019560034C0D9FF35C0DAFFDE04D8A4B5EF0CF0E9
:10196600B7EF0CF0B9EF0CF03EEF0DF020EE01F002
:101976003450D9263550DA22DF50366E376A050ED6
:10198600D89036363736E82EC3EF0CF034C0D9FF80
:1019960035C0DAFFDF50386E396AD89038363936B6
:1019A600DC0E3A6EFF0E3B6E000E3C6E010E3D6E77
:1019B6003A503C263B503D2238503C2639503D2279
:1019C60036503C24D96E37503D20DA6E10EE03F0C7
:1019D600DE50E126DD50E222E750D8A4F5EF0CF008
:1019E600F7EF0CF0F9EF0CF03EEF0DF020EE01F002
:1019F6003450D9263550DA22DF50366E376A050E56
:101A0600D89036363736E82E03EF0DF034C0D9FFBE
:101A160035C0DAFFDF50386E396AD8903836393635
:101A2600DC0E3A6EFF0E3B6E000E3C6E010E3D6EF6
:101A36003A503C263B503D2238503C2639503D22F8
:101A460036503C24D96E37503D20DA6E10EE03F046
:101A5600DE50E126DD50E222E604D8A435EF0DF093
:101A660037EF0DF039EF0DF03EEF0DF034C0D9FF32
:101A760035C0DAFFDF06120034C0D9FF35C0DAFF01
:101A8600100EDE18D8A44AEF0DF04CEF0DF04EEF15
:101A96000DF0CFEF0DF020EE01F03450D926355081
:101AA600DA22DF50366E376A050ED890363637366C
:101AB600E82E58EF0DF034C0D9FF35C0DAFFDF50FD
:101AC600386E3850020DE00E396EFF0E3A6E000E7B
:101AD6003B6E010E3C6E39503B263A503C22F35089
:101AE6003B26F4503C2236503B24D96E37503C20DE
:101AF600DA6E10EE03F0DE50E126DD50E222E7500A
:101B0600D8A488EF0DF08AEF0DF08CEF0DF0CFEF33
:101B16000DF020EE01F03450D9263550DA22DF5090
:101B2600366E376A050ED89036363736E82E96EF7B
:101B36000DF034C0D9FF35C0DAFFDF50386E3850AB
:101B4600020DE00E396EFF0E3A6E000E3B6E010E70
:101B56003C6E39503B263A503C22F3503B26F4501B
:101B66003C2236503B24D96E37503C20DA6E10EEBC
:101B760003F0DE50E126DD50E222E604D8A4C6EFEB
:101B86000DF0C8EF0DF0CAEF0DF0CFEF0DF034C039
:101B9600D9FF35C0DAFFDF2A120020EE01F03450FB
:101BA600D9263550DA22040EDE18D8A4DDEF0DF062
:101BB600DFEF0DF0E1EF0DF05CEF0EF034C0D9FF72
:101BC60035C0DAFFDF50366E376AD890363637368C
:101BD60020EE01F03450D9263550DA22DF50386E27
:101BE6003850200DFE0E396EFF0E3A6E000E3B6E1B
:101BF600010E3C6E39503B263A503C22F3503B26B0
:101C0600F4503C2236503B24D96E37503C20DA6ED5
:101C160010EE03F0DE50E126DD50E222E750D8A4B4
:101C260017EF0EF019EF0EF01BEF0EF05CEF0EF053
:101C360034C0D9FF35C0DAFFDF50366E376AD89028
:101C46003636373620EE01F03450D9263550DA22B2
:101C5600DF50386E3850200DFE0E396EFF0E3A6E8C
:101C6600000E3B6E010E3C6E39503B263A503C222C
:101C7600F3503B26F4503C2236503B24D96E375065
:101C86003C20DA6E10EE03F0DE50E126DD50E22253
:101C9600E604D8A451EF0EF053EF0EF055EF0EF018
:101CA6005CEF0EF020EE01F03450D9263550DA22E2
:101CB600DF2A1200000E4D6E49BE66EF0EF064EF8D
:101CC6000EF06CEF0EF0486C491ED8B0492A010E92
:101CD6004D6E4BBE73EF0EF071EF0EF077EF0EF018
:101CE6004A6C4B1ED8B04B2A4A504B10D8B47EEFE4
:101CF6000EF080EF0EF0A4EF0EF0010E4C6E88EFA2
:101D06000EF0D8904A364B364C2A4BAE8DEF0EF07D
:101D16008FEF0EF084EF0EF04A50485C4B50495856
:101D2600D8A098EF0EF09AEF0EF09EEF0EF04A5004
:101D3600485E4B50495AD8904B324A324C2E8FEF60
:101D46000EF04D50D8B4AAEF0EF0ACEF0EF0B0EF97
:101D56000EF0486C491ED8B0492A48C048F049C020
:101D660049F012005A0E0101836F000E846F000EB7
:101D7600A7EC0FF0BB0E0101836F000E846F010EFE
:101D8600A7EC0FF0B30E0101836F000E846F020EF5
:101D9600A7EC0FF0AB0E0101836F000E846F030EEC
:101DA600A7EC0FF0A30E0101836F000E846F040EE3
:101DB600A7EC0FF09B0E0101836F000E846F050EDA
:101DC600A7EC0FF0930E0101836F000E846F060ED1
:101DD600A7EC0FF08B0E0101836F000E846F070EC8
:101DE600A7EC0FF01200000E0A6E000E096E09C075
:101DF6000BF00AC00CF00BC00DF00CC00EF0070E75
:101E0600C16EF19E000E816E810EB16E9368000E5A
:101E1600926E000E956E130ED56E000E0F6E000EAE
:101E2600D66E800ED76ED58EF28CF288F286F28A46
:101E3600F086F19CF19AF290F292F090F296F28E80
:101E460081CF81FFF290F286F180F184F08C9F8041
:101E56009D829E929F92D08E0F0ECA6E1200010135
:101E6600826F01018105D8A43BEF0FF03DEF0FF023
:101E760044EF0FF082050F0B800F21EC10F069EF95
:101E86000FF0020E8119D8A44BEF0FF04DEF0FF0B3
:101E960054EF0FF082050F0BC00F21EC10F069EF25
:101EA6000FF0030E8119D8A45BEF0FF05DEF0FF072
:101EB60064EF0FF082050F0B900F21EC10F069EF25
:101EC6000FF082050F0BD00F21EC10F082C159F0F4
:101ED60081C158F01200980EF66E1F0EF76E000EB6
:101EE600F86E00EE80F010EE43F00900F5CFEEFF3D
:101EF600E550E150FAE1EE0EF66E200EF76E000E9A
:101F0600F86E00EE57F010EE0BF00900F5CFEEFF7D
:101F1600E550E150FAE101EE00F0800EEE6AE806C7
:101F2600FDE100EEC3F03C0EEE6AE806FDE100EED0
:101F360001F02D0EEE6AE806FDE162906292000E57
:101F4600F86E000161EF10F00101856F0101855106
:101F5600080DF350400F21EC10F0000E0101866FC2
:101F660086518325D96E000E8421DA6EDF50EEECA1
:101F76000FF00101862B070E8665C4EF0FF0C6EF42
:101F86000FF0B3EF0FF058C081F1595032EC0FF05B
:101F960012003F065B4F666D7D077F6F400E111185
:101FA600110E0000000E1F1F1F0E0000001F150A55
:101FB600040E1F0A1F1F150A0404040A1F11150A1E
:101FC600040E1F0A1F11150A0404040A1F11150A1C
:051FD600040E1F0A0AC1
:101FDC000101806F8492848480C183FF8482070E08
:101FEC000001FF6F7D0EE82EFED7FF2FFCD78492E9
:101FFC00070E0001FF6F7D0EE82EFED7FF2FFCD7DA
:10200C008494120096929694000E956E8492849409
:10201C00380E21EC10F0080E21EC10F00C0E21EC17
:10202C0010F0060E21EC10F0010E21EC10F0800ED9
:10203C0021EC10F012000101806F8492849480C115
:10204C0083FF8482070E0001FF6F7D0EE82EFED702
:10205C00FF2FFCD78492070E0001FF6F7D0EE82E38
:10206C00FED7FF2FFCD71200010180518203F3CF62
:10207C0084F1F4CF85F180518303F350852781518E
:10208C008203F350852784C180F185C181F1120050
:10209C002E503002F3CF32F0F4CF33F02E50310209
:1020AC00F35033262F503002F350332632C02EF02B
:1020BC0033C02FF01200F6EC0EF008EC10F028EC08
:1020CC000BF0B5EC0EF003EC08F069EF10F076EFC6
:1020DC0000F0000E0F6E000ED66E000ED76ED58E71
:0D20EC00120001010111150A0404040A0A82
:020000040020DA
:08000000FFFFFFFFFFFFFFFF00
:020000040030CA
:0E000000FF071F1FFF8385FF0FC00FE00F409B
:00000001FF
