:020000040000FA
:0400000014EF00F009
:06000800648280ED0AF0A5
:100018006480E0CF54F09E9254C0E0FF64901000DA
:04002800EDEF0FF0F9
:05100000002564000062
:10100600000E01018E6F000E8D6F000E906F000EA8
:101016008F6F8DC182F18EC183F1050ED890823714
:101026008337E82E11EF08F0000E846F010E856FEE
:101036008251842783518523D8908F35D96E903578
:10104600DA6E8451D9268551DA22000EDE6E000E44
:10105600DD6E8F4B902B90BF3AEF08F0905109E16F
:10106600100E8F5DD8A03AEF08F03CEF08F00CEFB9
:1010760008F08D4B8E2B8EBF4AEF08F08E5109E19A
:10108600040E8D5DD8A04AEF08F04CEF08F008EF8B
:1010960008F0000E926F000E916F91C155F092C14B
:1010A60056F0000E586E070E576EE9EC10F0110E52
:1010B6000101826F000E836F55508227565083239D
:1010C60091C155F092C156F0000E586E070E576E3C
:1010D600E9EC10F0120E5524D96E000E5620DA6E89
:1010E600DF500101846F856B050ED89084378537F4
:1010F600E82E78EF08F091C155F092C156F0000E37
:10110600586E070E576EE9EC10F0110E5524D96E85
:10111600000E5620DA6EDF500101866F876BD8907D
:1011260086378737DE0E886FFF0E896F000E8A6F4F
:10113600010E8B6F88518A2789518B2386518A2706
:1011460087518B2384518A25D96E85518B21DA6E7E
:1011560082C1DEFF83C1DDFF914B922B92BFBDEFB3
:1011660008F0925109E1060E915DD8A0BDEF08F096
:10117600BFEF08F050EF08F0000E946F000E936F6B
:1011860093C155F094C156F0000E586E070E576E77
:10119600E9EC10F0130E5524D96E000E5620DA6EC7
:1011A600DF50D8A4D9EF08F0DBEF08F0F5EF08F030
:1011B60093C155F094C156F0000E586E070E576E47
:1011C600E9EC10F0140E5524D96E000E5620DA6E96
:1011D600DF50D8A4F1EF08F0F3EF08F0F5EF08F0D0
:1011E60021EF09F093C155F094C156F0000E586EE8
:1011F600070E576EE9EC10F0130E5524D96E000E4B
:101206005620DA6EDF505B6E93C155F094C156F0EE
:10121600000E586E070E576EE9EC10F0140E5524AA
:10122600D96E000E5620DA6EDF505A6E5AC057F04D
:101236005B50B3EC0FF0200EB8EC10F00101934BAD
:10124600942B94BF30EF09F0945109E1060E935D9B
:10125600D8A030EF09F032EF09F0C3EF08F0000E26
:10126600966F000E956F95C155F096C156F0000E1B
:10127600586E070E576EE9EC10F0150E5524D96E10
:10128600000E5620DA6EDF50D8A44CEF09F04EEF70
:1012960009F050EF09F025EF0AF095C155F096C117
:1012A60056F0000E586E070E576EE9EC10F0110E50
:1012B6005524D96E000E5620DA6EDF505B6E95C14E
:1012C60055F096C156F0000E586E070E576EE9ECB3
:1012D60010F0120E5524D96E000E5620DA6EDF502D
:1012E6005A6E5AC057F05B50B3EC0FF0F7EF09F0A7
:1012F600060EB8EC10F025EF0AF0070EB8EC10F069
:1013060025EF0AF0000EB8EC10F025EF0AF0020EF9
:10131600B8EC10F025EF0AF0040EB8EC10F025EF4B
:101326000AF095C155F096C156F0000E586E070E9C
:10133600576EE9EC10F0170E5524D96E000E5620A4
:10134600DA6EDF500101826F836B8351000AD8B4D5
:10135600AFEF09F025EF0AF08251000AD8B485EF05
:1013660009F0010AD8B48AEF09F0030AD8B48FEF5E
:1013760009F025EF0AF0010EB8EC10F025EF0AF09F
:10138600030EB8EC10F025EF0AF0050EB8EC10F0DD
:1013960025EF0AF095C155F096C156F0000E586E2D
:1013A600070E576EE9EC10F0170E5524D96E000E95
:1013B6005620DA6EDF500101826F836B8351000A7B
:1013C600D8B4E8EF09F025EF0AF08251000AD8B444
:1013D600BEEF09F0010AD8B4C3EF09F0030AD8B486
:1013E600C8EF09F025EF0AF095C155F096C156F001
:1013F600000E586E070E576EE9EC10F0160E5524C7
:10140600D96E000E5620DA6EDF500101826F836BB3
:101416008351000AD8B412EF0AF025EF0AF0825180
:10142600000AD8B494EF09F0010AD8B4CDEF09F058
:10143600030AD8B47BEF09F0010AD8B480EF09F0AB
:1014460025EF0AF00101954B962B96BF34EF0AF073
:10145600965109E1060E955DD8A034EF0AF036EFF5
:101466000AF036EF09F083CF8CF14AEF0AF0080E46
:10147600896E80C08CFF64EF0AF0200E896E3CEF07
:101486000AF0100E896E8AC08CFF64EF0AF001C064
:1014960082F102C083F18351000AD8B455EF0AF0F5
:1014A60064EF0AF08251000AD8B43AEF0AF0010A52
:1014B600D8B440EF0AF0030AD8B444EF0AF064EF58
:1014C6000AF0110E0101826F3A0EE82EFED7822F26
:1014D600FCD700F0010E0124556E000E0220566E58
:1014E600000E586E030E576E19EC0FF055C001F042
:1014F60056C002F08CC18CFF12000600E1CF4EF000
:10150600E2CF4FF0D9CF50F0DACF51F0F3CF52F00F
:10151600F4CF53F081CF0FF0F2A494EF0AF096EFD8
:101526000AF09AEF0AF0010E106ED59EF294F2A21E
:101536009FEF0AF0A1EF0AF0C1EF0AF01050D8B4FD
:10154600A7EF0AF0A9EF0AF087EF0BF00D4A0E2A73
:1015560007C03BF008C03CF0000E3E6E070E3D6E25
:10156600FDEC10F0110E3B24416E000E3C20426E45
:10157600E1EC0DF01EEC11F087EF0BF0F0A0C6EFDA
:101586000AF0C8EF0AF0FEEF0AF01050D8B4CEEF1A
:101596000AF0D0EF0AF087EF0BF00B4A0C2A07C0CF
:1015A6003BF008C03CF0000E3E6E070E3D6EFDECB3
:1015B60010F0170E3B24D96E000E3C20DA6E000E9A
:1015C600DF6E074A082A030E0714076E086A07C06B
:1015D6003BF008C03CF0000E3E6E070E3D6EFDEC83
:1015E60010F0170E3B24D96E000E3C20DA6E010E69
:1015F600DF6EBDEF0AF0F2A003EF0BF005EF0BF084
:1016060087EF0BF01050D8B40BEF0BF00DEF0BF08B
:1016160087EF0BF00F380F0B0F6E66EF0BF007C05E
:101626003BF008C03CF0000E3E6E070E3D6EFDEC32
:1016360010F0110E3B24416E000E3C20426E9BECD6
:101646000CF083EF0BF007C03BF008C03CF0000E37
:101656003E6E070E3D6EFDEC10F0110E3B24416E02
:10166600000E3C20426EE1EC0DF083EF0BF007C05C
:101676003BF008C03CF0000E3E6E070E3D6EFDECE2
:1016860010F0110E3B24416E000E3C20426E7EECA3
:101696000EF083EF0BF007C03BF008C03CF0000EE5
:1016A6003E6E070E3D6EFDEC10F0110E3B24416EB2
:1016B600000E3C20426E41EC0DF083EF0BF0000E65
:1016C6000F6E83EF0BF00F504C6E4D6A4D50000AB3
:1016D600D8B470EF0BF062EF0BF04C50070AD8B499
:1016E6004EEF0BF00C0AD8B43AEF0BF0060AD8B45A
:1016F60026EF0BF0030AD8B412EF0BF062EF0BF0F3
:10170600094A0A2ABDEF0AF0F090F292F29053C00D
:10171600F4FF52C0F3FF51C0DAFF50C0D9FF4FC0EB
:10172600E2FF4EC0E1FF64921100000E01018F6FCF
:10173600000E8E6F000E916F000E906F8EC182F1BB
:101746008FC183F1050ED89082378337E82EA6EF36
:101756000BF0000E846F010E856F82518427835132
:101766008523D8909035D96E9135DA6E8451D92675
:101776008551DA22000EDE6E000EDD6E904B912B47
:1017860091BFCFEF0BF0915109E1100E905DD8A0FB
:10179600CFEF0BF0D1EF0BF0A1EF0BF08E4B8F2BB1
:1017A6008FBFDFEF0BF08F5109E1040E8E5DD8A0DD
:1017B600DFEF0BF0E1EF0BF09DEF0BF0000E086E84
:1017C600000E076E030E116E020E126E000E136EE1
:1017D600000E146E000E166E010E176E010E156EBB
:1017E600030E186E030E196E000E1A6E000E1B6E97
:1017F600000E1D6E000E1E6E010E1C6E0E0E1F6E6E
:10180600020E206E000E216E000E226E010E246E58
:10181600000E256E010E236E0E0E266E030E276E2B
:10182600000E286E000E296E010E2B6E000E2C6E19
:10183600010E2A6E090E346E020E356E000E366EDD
:10184600000E376E020E396E040E3A6E010E386EB9
:10185600010E2D6E010E2E6E000E2F6E000E306ED6
:10186600030E326E000E316E000E936F000E926FF5
:1018760092C155F093C156F0000E586E070E576E82
:10188600E9EC10F0110E0101826F000E836F5550C6
:10189600822756508323070E9203F3CF84F1F4CFA9
:1018A60085F19303F3508527110E8425D96E000E1A
:1018B6008521DA6EDF50866F8651020DF3CF87F1F0
:1018C600F4CF88F1070E9203F3CF89F1F4CF8AF1B2
:1018D6009303F3508A27120E8925D96E000E8A21AA
:1018E600DA6EDF508B6F8B51200D000E8C6F010E60
:1018F6008D6FF3508C27F4508D2387518C25D96E2C
:1019060088518D21DA6E82C1DEFF83C1DDFF924BE5
:10191600932B93BF98EF0CF0935109E1060E925D5D
:10192600D8A098EF0CF09AEF0CF03BEF0CF01200F9
:1019360020EE01F04150D9264250DA22DE04D8A426
:10194600A7EF0CF0A9EF0CF0ABEF0CF040EF0DF0A9
:1019560020EE01F04150D9264250DA22DF50436E84
:10196600446A050ED89043364436E82EB5EF0CF09F
:1019760041C0D9FF42C0DAFFDF50456E466AD890B3
:1019860045364636BE0E476EFF0E486E000E496E51
:10199600010E4A6E4750492648504A22455049266C
:1019A60046504A2243504924D96E44504A20DA6EA2
:1019B60010EE05F0DE50E126DD50E222E750D8A415
:1019C600E7EF0CF0E9EF0CF0EBEF0CF040EF0DF069
:1019D60020EE01F04150D9264250DA22DF50436E04
:1019E600446A050ED89043364436E82EF5EF0CF0DF
:1019F60041C0D9FF42C0DAFFDF50456E466AD89033
:101A060045364636BE0E476EFF0E486E000E496ED0
:101A1600010E4A6E4750492648504A2245504926EB
:101A260046504A2243504924D96E44504A20DA6E21
:101A360010EE05F0DE50E126DD50E222E604D8A4E1
:101A460027EF0DF029EF0DF02BEF0DF040EF0DF025
:101A560020EE01F04150D9264250DA2210EE03F072
:101A66004150E1264250E222DFCFE7FF20EE01F0AF
:101A76004150D9264250DA22DF06120041C0D9FF72
:101A860042C0DAFFDE04D8A44BEF0DF04DEF0DF0A7
:101A96004FEF0DF0E0EF0DF020EE01F04150D926AA
:101AA6004250DA22DF50436E446A050ED890433620
:101AB6004436E82E59EF0DF041C0D9FF42C0DAFF97
:101AC600DF50456E466AD89045364636DC0E476E80
:101AD600FF0E486E000E496E010E4A6E47504926AB
:101AE60048504A224550492646504A2243504924E6
:101AF600D96E44504A20DA6E10EE05F0DE50E1262B
:101B0600DD50E222E750D8A48BEF0DF08DEF0DF0FB
:101B16008FEF0DF0E0EF0DF020EE01F04150D926E9
:101B26004250DA22DF50436E446A050ED89043369F
:101B36004436E82E99EF0DF041C0D9FF42C0DAFFD6
:101B4600DF50456E466AD89045364636DC0E476EFF
:101B5600FF0E486E000E496E010E4A6E475049262A
:101B660048504A224550492646504A224350492465
:101B7600D96E44504A20DA6E10EE05F0DE50E126AA
:101B8600DD50E222E604D8A4CBEF0DF0CDEF0DF048
:101B9600CFEF0DF0E0EF0DF041C0D9FF42C0DAFF04
:101BA60010EE02F04150E1264250E222DFCFE7FF7D
:101BB60041C0D9FF42C0DAFFDF06120041C0D9FF9B
:101BC60042C0DAFF100EDE18D8A4ECEF0DF0EEEFEF
:101BD6000DF0F0EF0DF07DEF0EF020EE01F041502C
:101BE600D9264250DA22DF50436E446A050ED89059
:101BF60043364436E82EFAEF0DF041C0D9FF42C015
:101C0600DAFFDF50456E4550020DE00E466EFF0EC0
:101C1600476E000E486E010E496E465048264750E4
:101C26004922F3504826F450492243504824D96E9D
:101C360044504920DA6E10EE05F0DE50E126DD5004
:101C4600E222E750D8A42AEF0EF02CEF0EF02EEF8A
:101C56000EF07DEF0EF020EE01F04150D9264250F5
:101C6600DA22DF50436E446A050ED8904336443676
:101C7600E82E38EF0EF041C0D9FF42C0DAFFDF5040
:101C8600456E4550020DE00E466EFF0E476E000E85
:101C9600486E010E496E4650482647504922F35079
:101CA6004826F450492243504824D96E44504920CE
:101CB600DA6E10EE05F0DE50E126DD50E222E60493
:101CC600D8A468EF0EF06AEF0EF06CEF0EF07DEF21
:101CD6000EF041C0D9FF42C0DAFF10EE02F04150CB
:101CE600E1264250E222DFCFE7FF41C0D9FF42C0E2
:101CF600DAFFDF2A120020EE01F04150D9264250C9
:101D0600DA22040EDE18D8A48BEF0EF08DEF0EF05B
:101D16008FEF0EF018EF0FF041C0D9FF42C0DAFF87
:101D2600DF50436E446AD8904336443620EE01F0C5
:101D36004150D9264250DA22DF50456E4550200DDB
:101D4600FE0E466EFF0E476E000E486E010E496E81
:101D56004650482647504922F3504826F450492217
:101D660043504824D96E44504920DA6E10EE05F0EF
:101D7600DE50E126DD50E222E750D8A4C5EF0EF092
:101D8600C7EF0EF0C9EF0EF018EF0FF041C0D9FF04
:101D960042C0DAFFDF50436E446AD8904336443679
:101DA60020EE01F04150D9264250DA22DF50456E2E
:101DB6004550200DFE0E466EFF0E476E000E486E15
:101DC600010E496E4650482647504922F350482690
:101DD600F450492243504824D96E44504920DA6EC3
:101DE60010EE05F0DE50E126DD50E222E604D8A42E
:101DF600FFEF0EF001EF0FF003EF0FF018EF0FF00B
:101E060020EE01F04150D9264250DA2210EE03F0BE
:101E16004150E1264250E222DFCFE7FF20EE01F0FB
:101E26004150D9264250DA22DF2A1200000E010163
:101E3600816F56BE23EF0FF021EF0FF029EF0FF061
:101E4600556C561ED8B0562A010E816F58BE30EF1B
:101E56000FF02EEF0FF034EF0FF0576C581ED8B07E
:101E6600582A57505810D8B43BEF0FF03DEF0FF0FB
:101E760061EF0FF0010E806F45EF0FF0D8905736E7
:101E86005836802B58AE4AEF0FF04CEF0FF041EF6B
:101E96000FF05750555C58505658D8A055EF0FF0D4
:101EA60057EF0FF05BEF0FF05750555E5850565AEC
:101EB600D89058325732802F4CEF0FF08151D8B45A
:101EC60067EF0FF069EF0FF06DEF0FF0556C561ED0
:101ED600D8B0562A55C055F056C056F012005C0EC2
:101EE6000101806F000E816F000E58EC10F0BB0EE2
:101EF6000101806F000E816F010E58EC10F0B30ED9
:101F06000101806F000E816F020E58EC10F0AB0ECF
:101F16000101806F000E816F030E58EC10F0A30EC6
:101F26000101806F000E816F040E58EC10F09B0EBD
:101F36000101806F000E816F050E58EC10F0930EB4
:101F46000101806F000E816F060E58EC10F08B0EAB
:101F56000101806F000E816F070E58EC10F0120021
:101F6600586E5704D8A4BAEF0FF0BCEF0FF0C3EFCA
:101F76000FF058040F0B800FD1EC10F0E8EF0FF0C4
:101F8600020E5718D8A4CAEF0FF0CCEF0FF0D3EF1C
:101F96000FF058040F0BC00FD1EC10F0E8EF0FF064
:101FA600030E5718D8A4DAEF0FF0DCEF0FF0E3EFCB
:101FB6000FF058040F0B900FD1EC10F0E8EF0FF074
:101FC60058040F0BD00FD1EC10F058C05BF057C07F
:101FD6005AF01200FA0EF66E200EF76E000EF86E2C
:101FE60000EE80F010EE43F00900F5CFEEFFE5506D
:101FF600E150FAE14C0EF66E220EF76E000EF86E08
:1020060000EE59F010EE0BF00900F5CFEEFFE550AB
:10201600E150FAE101EE00F0800EEE6AE806FDE11D
:1020260000EEC3F03C0EEE6AE806FDE100EE01F0BC
:102036003A0EEE6AE806FDE164906492000EF86ED0
:10204600000110EF11F0000E0A6E000E096E09C0B5
:102056000BF00AC00CF00BC00DF00CC00EF0070E12
:10206600C16EF19E000E816E810EB16E9368000EF8
:10207600926E000E956E130ED56E000E106E000E4B
:10208600D66E800ED76ED58EF28CF288F286F28AE4
:10209600F086F19CF19AF290F292F090F296F28E1E
:1020A60081CF81FFF290F28612000101826F010159
:1020B6008251080DF350400FD1EC10F0000E0101D3
:1020C600836F83518025D96E000E8121DA6EDF5031
:1020D600B8EC10F00101832B070E836575EF10F045
:1020E60077EF10F064EF10F05AC057F05B50B3EC86
:1020F6000FF012003F065B4F666D7D077F6F400E47
:102106001111110E0000000E1F1F1F0E0000001FF0
:10211600150A040E1F0A1F1F150A0404040A1F11BC
:10212600150A040E1F0A1F11150A0404040A1F11BA
:07213600150A040E1F0A0A3E
:10213E0096929694000E956E84928494380ED1ECFD
:10214E0010F0080ED1EC10F00C0ED1EC10F0060EC3
:10215E00D1EC10F0010ED1EC10F0800ED1EC10F09D
:10216E001200566E8492848456C083FF8482070EBA
:10217E00556E7D0EE82EFED7552EFCD700F08492BC
:10218E00070E556E7D0EE82EFED7552EFCD700F0AD
:10219E0084941200566E8492849456C083FF848277
:1021AE00070E556E7D0EE82EFED7552EFCD700F08D
:1021BE008492070E556E7D0EE82EFED7552EFCD757
:1021CE0000F0120055505702F3CF80F1F4CF81F199
:1021DE0055505802F3500101812756505702F350C3
:1021EE00812780C155F081C156F012003B503D024F
:1021FE00F3CF3FF0F4CF40F03B503E02F350402679
:10220E003C503D02F35040263FC03BF040C03CF0F6
:10221E00120026EC10F09FEC10F098EC0BF072EC24
:10222E000FF003EC08F018EF11F014EF00F0000EB1
:10223E00106E000ED66E000ED76ED58E12000101F6
:09224E000111150A0404040A0A36
:020000040020DA
:08000000FFFFFFFFFFFFFFFF00
:020000040030CA
:0E000000FF071F1FFF8385FF0FC00FE00F409B
:00000001FF
