:020000040000FA
:0400000064EF00F0B9
:060008007C8266ED00F0B1
:100018007C80D8CFCEF0E8CFCFF0E0CFD0F0D9CFEA
:10002800D1F0DACFD2F09E929D9283CFD3F080CFD9
:10003800D4F0080E896E800E0001F125D96E000EED
:10004800F221DA6EDF508C6E0C0E0001CD6F5B0E64
:10005800E82EFED7CD2FFCD700D0100E896E8AC0AF
:100068008CFF0C0E0001CD6F5B0EE82EFED7CD2F56
:10007800FCD700D0200E896E800E0001EF25D96EC6
:10008800000EF021DA6EDF508C6E0C0E0001CD6F81
:100098005B0EE82EFED7CD2FFCD700D0D4C089FF49
:1000A800D3C08CFF9D82C282D2C0DAFFD1C0D9FFF3
:1000B800D0C0E0FFCFC0E8FFCEC0D8FF7C901000D2
:1000C80061EF17F00600E1CF3DF0E2CF3EF0D9CF67
:1000D8003FF0DACF40F0F3CF41F0F4CF42F081CFD8
:1000E80057F0F2A47AEF00F07CEF00F080EF00F018
:1000F800010E586ED59EF2949EAC85EF00F087EF06
:1001080000F0BFEF00F09E9CA2EF00F0000E786EAA
:10011800040E776EBFEF00F0000E786E080E776E53
:10012800BFEF00F0000E786E0C0E776EBFEF00F098
:10013800000E786E100E776EBFEF00F0C450356E6B
:10014800366A3650000AD8B4ACEF00F0BFEF00F0C2
:100158003550000AD8B48AEF00F0010AD8B490EFFD
:1001680000F0030AD8B496EF00F0010AD8B49CEF67
:1001780000F0BFEF00F09EA0C4EF00F0C6EF00F063
:10018800A5EF01F09E90CD90ED0ECE6E850ECF6E50
:10019800CD804F4A502A030E7618D8A4D6EF00F027
:1001A800D8EF00F0F2EF00F04FB0DDEF00F0DFEF36
:1001B80000F0F2EF00F07B50D8A4E5EF00F0E7EF95
:1001C80000F0F2EF00F06F04D8A4EDEF00F0F0EFCC
:1001D80000F0010EF1EF00F0000E6F6E79504F182D
:1001E80007E17A505018D8A4FCEF00F0FEEF00F0B9
:1001F800A5EF01F0000E506E000E4F6E030E76183C
:10020800D8A409EF01F00BEF01F0A5EF01F07B5046
:10021800D8A411EF01F013EF01F0A5EF01F009ECFC
:1002280013F04B4A4C2A800E356E010E366ED8906C
:100238004B34D96E4C34DA6ED890D936DA3635501C
:10024800D9263650DA22DF50726E800E356E010ED6
:10025800366E020E3526000E3622D8904B34D96EF3
:100268004C34DA6ED890D936DA363550D92636502D
:10027800DA22DF50736EF8EC15F06D507218D8A4BE
:1002880048EF01F04AEF01F053EF01F06E50731898
:10029800D8B451EF01F053EF01F06BEF01F0FF0E0E
:1002A800356EFF0E366E4DC037F04EC038F0355003
:1002B8003726365038224B50371807E14C5038183B
:1002C800D8A469EF01F06BEF01F0A5EF01F0040E7F
:1002D800766E000E6F6E6E50356E366A050ED890CB
:1002E80035363636E82E73EF01F06D50376E386AC2
:1002F800D89037363836DE0E396EFF0E3A6E000E5D
:100308003B6E010E3C6E39503B263A503C2237502A
:100318003B2638503C2235503B24D96E36503C2081
:10032800DA6E720EDE6E000EDD6E000E6E6E6EC040
:100338006DF0010E7B6E000E4C6E000E4B6EA5EF3D
:1003480001F0F2A2AAEF01F0ACEF01F064EF02F0C5
:100358005850D8B4B2EF01F0B4EF01F04DEF03F00C
:1003680055C001F056C002F0000E046E050E036E73
:1003780079EC18F05D0E0124D96E000E0220DA6EB9
:10038800020EDE18D8A4CBEF01F0CDEF01F060EF3C
:1003980002F055C001F056C002F0000E046E050EC2
:1003A800036E79EC18F0590E0124D96E000E022064
:1003B800DA6EDF50356E35500E6E0F6A55C001F09B
:1003C80056C002F0000E046E050E036E79EC18F0AC
:1003D8005A0E0124D96E000E0220DA6EDF50366EF6
:1003E8003650106E116A9BEC05F00EC04DF00FC030
:1003F8004EF0010E6F6EFC0E356EFF0E366E800EDF
:10040800376E010E386E3550372636503822D89060
:100418004D34D96E4E34DA6ED890D936DA36375034
:10042800D9263850DA22DF506D6EFE0E356EFF0E7B
:10043800366E800E376E010E386E355037263650C0
:100448003822D8904D34D96E4E34DA6ED890D936D9
:10045800DA363750D9263850DA22DF506E6E80C12E
:1004680072F082C173F0010E746E030E766E55C081
:1004780001F056C002F0000E046E050E036E79EC12
:1004880018F05D0E0124D96E000E0220DA6E010EFE
:10049800DF6E000E7B6E000E506E000E4F6E77C042
:1004A80079F078C07AF09E90CD90ED0ECE6E850EE4
:1004B800CF6ECD80F8EC15F0B9EC18F04DEF03F0E5
:1004C800F0A069EF02F06BEF02F0B8EF02F05850BD
:1004D800D8B471EF02F073EF02F04DEF03F055C09E
:1004E80001F056C002F0000E046E050E036E79ECA2
:1004F80018F05D0E0124D96E000E0220DA6E020E8D
:10050800DE18D8B48AEF02F08CEF02F060EF02F048
:1005180055C001F056C002F0000E046E050E036EC1
:1005280079EC18F05D0E0124D96E000E0220DA6E07
:10053800000EDF6E554A562A030E5514556E566A3C
:1005480055C001F056C002F0000E046E050E036E91
:1005580079EC18F05D0E0124D96E000E0220DA6ED7
:10056800010EDF6E60EF02F0F2A0BDEF02F0BFEF08
:1005780002F04DEF03F05850D8B4C5EF02F0C7EFC2
:1005880002F04DEF03F057380F0B576E30EF03F0C2
:1005980055C001F056C002F0000E046E050E036E41
:1005A80079EC18F0590E0124436E000E0220446EB7
:1005B80043C013F044C014F05EEC0AF060EF02F0A0
:1005C80055C001F056C002F0000E046E050E036E11
:1005D80079EC18F0590E0124456E000E0220466E83
:1005E80045C013F046C014F0CEEC0EF060EF02F0F8
:1005F80055C001F056C002F0000E046E050E036EE1
:1006080079EC18F0590E0124476E000E0220486E4E
:1006180047C013F048C014F041EC10F060EF02F04E
:1006280055C001F056C002F0000E046E050E036EB0
:1006380079EC18F0590E0124496E000E02204A6E1A
:1006480049C013F04AC014F0DCEC0BF060EF02F084
:10065800000E576E60EF02F05750356E366A36500E
:10066800000AD8B43AEF03F02CEF03F03550070A2C
:10067800D8B414EF03F00C0AD8B4FCEF02F0060A61
:10068800D8B4E4EF02F0030AD8B4CCEF02F02CEFB0
:1006980003F0F090F292F2909E9C42C0F4FF41C0A9
:1006A800F3FF40C0DAFF3FC0D9FF3EC0E2FF3DC0C4
:1006B800E1FF7C921100000E0001E66F000EE56F6D
:1006C800000EE86F000EE76FE5C0DBF0E6C0DCF077
:1006D800050ED890DB37DC37E82E6DEF03F0000EFF
:1006E800DD6F010EDE6FDB51DD27DC51DE23D89094
:1006F800E735D96EE835DA6EDD51D926DE51DA22D2
:10070800000EDE6E000EDD6EE74BE82BE8BF96EFBD
:1007180003F0E85109E1100EE75DD8A096EF03F069
:1007280098EF03F068EF03F0E54BE62BE6BFA6EF82
:1007380003F0E65109E1040EE55DD8A0A6EF03F049
:10074800A8EF03F064EF03F0000EEE6F050EED6FF7
:10075800EDC0D5F0EEC0D6F0000ED86F050ED76FFD
:1007680065EC18F05B0E0001D525D96E000ED62178
:10077800DA6EDF50D8B4C3EF03F0C5EF03F056EFDD
:1007880004F0EDC0D5F0EEC0D6F0000ED86F050E1F
:10079800D76F65EC18F0590E0001D525D96E000EFB
:1007A800D621DA6EDF50D8B4DCEF03F0DEEF03F0C9
:1007B80056EF04F0EDC0D5F0EEC0D6F0000ED86FBD
:1007C800050ED76F65EC18F05A0E0001D525D96EC5
:1007D800000ED621DA6EDF50D8B4F5EF03F0F7EF4C
:1007E80003F056EF04F0EDC0D5F0EEC0D6F0000EE1
:1007F800D86F050ED76F65EC18F0590E0001DB6F46
:10080800000EDC6FD551DB27D651DC23EDC0D5F0C7
:10081800EEC0D6F0000ED86F050ED76F65EC18F055
:100828005A0E0001D525D96E000ED621DA6EDF509A
:10083800DD6FDE6B050ED890DD37DE37E82E1FEF53
:1008480004F0EDC0D5F0EEC0D6F0000ED86F050E5E
:10085800D76F65EC18F0590E0001D525D96E000E3A
:10086800D621DA6EDF50DF6FE06BD890DF37E037E4
:10087800DE0EE16FFF0EE26F000EE36F010EE46F14
:10088800E151E327E251E423DF51E327E051E42378
:10089800DD51E325D96EDE51E421DA6EDBC0DEFFDF
:1008A800DCC0DDFFED07D8A0EE07EEBF60EF04F077
:1008B8005EEF04F0ACEF03F0000EEA6F000EE96F94
:1008C800000EEC6F000EEB6FEB298C6FE9298B6F34
:1008D8008BC0D6F08C5125EC17F0E9C0DBF0EAC0EC
:1008E800DCF0050ED8900001DB37DC37E82E76EF18
:1008F80004F0000EDD6F010EDE6FDB51DD27DC51E9
:10090800DE23D890EB35D96EEC35DA6EDD51D92679
:10091800DE51DA22DE50DE10D8A495EF04F097EF0E
:1009280004F03AEF05F0200E8CEC18F079EF05F0A2
:10093800060E8CEC18F079EF05F0070E8CEC18F029
:1009480079EF05F0000E8CEC18F079EF05F0020E47
:100958008CEC18F079EF05F0040E8CEC18F079EFB8
:1009680005F0E9C0DBF0EAC0DCF0050ED890DB3713
:10097800DC37E82EBAEF04F0000EDD6F010EDE6FF3
:10098800DB51DD27DC51DE23D890EB35D96EEC3511
:10099800DA6EDD51D926DE51DA2210EE04F0DE508F
:1009A800E126DD50E222E750DF6FE06BE051000AFC
:1009B800D8B4E1EF04F079EF05F0DF51000AD8B4BC
:1009C800A6EF04F0010AD8B4ABEF04F0030AD8B4D8
:1009D800B0EF04F079EF05F0010E8CEC18F079EF28
:1009E80005F0030E8CEC18F079EF05F0050E8CEC91
:1009F80018F079EF05F0E9C0DBF0EAC0DCF0050E8D
:100A0800D890DB37DC37E82E04EF05F0000EDD6FF9
:100A1800010EDE6FDB51DD27DC51DE23D890EB358C
:100A2800D96EEC35DA6EDD51D926DE51DA2210EEB8
:100A380004F0DE50E126DD50E222E750DF6FE06B84
:100A4800E051000AD8B42BEF05F079EF05F0DF513B
:100A5800000AD8B4F0EF04F0010AD8B4F5EF04F0B6
:100A6800030AD8B4FAEF04F079EF05F0E9C0DBF037
:100A7800EAC0DCF0050ED890DB37DC37E82E3FEF14
:100A880005F0000EDD6F010EDE6FDB51DD27DC5156
:100A9800DE23D890EB35D96EEC35DA6EDD51D926E8
:100AA800DE51DA2210EE03F0DE50E126DD50E222BC
:100AB800E750DF6FE06BE051000AD8B466EF05F04D
:100AC80079EF05F0DF51000AD8B4B5EF04F0010A58
:100AD800D8B4FFEF04F0030AD8B49CEF04F0010A7D
:100AE800D8B4A1EF04F079EF05F00001EB4BEC2B43
:100AF800ECBF88EF05F0EC5109E1100EEB5DD8A0D2
:100B080088EF05F08AEF05F068EF04F0E94BEA2B6F
:100B1800EABF98EF05F0EA5109E1040EE95DD8A0B3
:100B280098EF05F09AEF05F064EF04F01200000E5C
:100B3800076E100E066E99EC17F0010E0624226E51
:100B4800000E0720236E000E076E040E066E99EC49
:100B580017F0010E0624246E000E0720256E0E5095
:100B6800225C0F502358D8B0BCEF05F0BEEF05F05B
:100B7800C6EF05F022500E5C2A6E23500F582B6EDC
:100B8800CCEF05F00E50225C2A6E0F5023582B6EC6
:100B98001050245C11502558D8B0D5EF05F0D7EF88
:100BA80005F0DFEF05F02450105C2C6E255011582D
:100BB8002D6EE5EF05F01050245C2C6E1150255871
:100BC8002D6E2B5007E1030E2A5CD8B0EEEF05F02E
:100BD800F0EF05F0FDEF05F02D5007E1030E2C5C5A
:100BE800D8B0F9EF05F0FBEF05F0FDEF05F09BEF4E
:100BF80005F02A502C5C2B502D58D8B006EF06F083
:100C080008EF06F00EEF06F02AC020F02BC021F006
:100C180012EF06F02CC020F02DC021F00EC026F0F7
:100C28000FC027F00E50225C0F502358D8B01FEF8A
:100C380006F021EF06F050EF06F0000E156E000EDC
:100C4800146E43EF06F0FF0E2624266EFF0E2720B3
:100C5800276E800E126E010E136ED8901434D96E62
:100C68001534DA6ED890D936DA361250D9261350A0
:100C7800DA2226C0DEFF27C0DDFF144A152A2A50D3
:100C8800145C2B501558D8A04CEF06F04EEF06F028
:100C980027EF06F07DEF06F0000E176E000E166EB9
:100CA80072EF06F0010E2624266E000E2720276E0E
:100CB800800E126E010E136ED8901634D96E17344A
:100CC800DA6ED890D936DA361250D9261350DA228D
:100CD80026C0DEFF27C0DDFF164A172A2A50165CF9
:100CE8002B501758D8A07BEF06F07DEF06F056EF93
:100CF80006F02AC018F02BC019F099EF06F0800E04
:100D0800126E010E136ED8901834D96E1934DA6E3B
:100D1800D890D936DA361250D9261350DA2226C09E
:100D2800DEFF27C0DDFF184A192A2050185C215021
:100D38001958D8A0A2EF06F0A4EF06F083EF06F04A
:100D480010C028F011C029F01050245C115025580B
:100D5800D8B0B1EF06F0B3EF06F0E6EF06F0000EFC
:100D68001B6E000E1A6ED9EF06F0FF0E2824286EAF
:100D7800FF0E2920296E800E126E010E136E020ED0
:100D88001226000E1322D8901A34D96E1B34DA6E4C
:100D9800D890D936DA361250D9261350DA2228C01C
:100DA800DEFF29C0DDFF1A4A1B2A2C501A5C2D5081
:100DB8001B58D8A0E2EF06F0E4EF06F0B9EF06F012
:100DC80017EF07F0000E1D6E000E1C6E0CEF07F0FB
:100DD800010E2824286E000E2920296E800E126E1E
:100DE800010E136E020E1226000E1322D8901C3428
:100DF800D96E1D34DA6ED890D936DA361250D92623
:100E08001350DA2228C0DEFF29C0DDFF1C4A1D2A44
:100E18002C501C5C2D501D58D8A015EF07F017EF6B
:100E280007F0ECEF06F02CC01EF02DC01FF037EFD6
:100E380007F0800E126E010E136E020E1226000EBF
:100E48001322D8901E34D96E1F34DA6ED890D93652
:100E5800DA361250D9261350DA2228C0DEFF29C00C
:100E6800DDFF1E4A1F2A20501E5C21501F58D8A0A3
:100E780040EF07F042EF07F01DEF07F020C00EF03B
:100E880021C00FF0120013C0D9FF14C0DAFFDE042E
:100E9800D8B451EF07F053EF07F0D5EF08F020EE84
:100EA80001F01350D9261450DA22DE04D8A45FEFDB
:100EB80007F061EF07F063EF07F0D5EF08F020EED9
:100EC80001F01350D9261450DA22DF50156E166A35
:100ED800050ED89015361636E82E6DEF07F013C0BC
:100EE800D9FF14C0DAFFDF50176E186AD89017368A
:100EF8001836BC0E196EFF0E1A6E000E1B6E010E10
:100F08001C6E19501B261A501C2217501B261850ED
:100F18001C2215501B24D96E16501C20DA6EDE5088
:100F2800DE10D8B49AEF07F09CEF07F061EF08F0F5
:100F380020EE01F01350D9261450DA22DF50156E36
:100F4800166A050ED89015361636E82EA6EF07F065
:100F580013C0D9FF14C0DAFFDF50176E186AD89093
:100F680017361836BC0E196EFF0E1A6E000E1B6E61
:100F7800010E1C6E19501B261A501C2217501B26D6
:100F880018501C2215501B24D96E16501C20DA6EDE
:100F980010EE03F0DE50E126DD50E222E750D8A43F
:100FA800D8EF07F0DAEF07F0DCEF07F0D5EF08F03D
:100FB80020EE01F01350D9261450DA22DF50156EB6
:100FC800166A050ED89015361636E82EE6EF07F0A5
:100FD80013C0D9FF14C0DAFFDF50176E186AD89013
:100FE80017361836BC0E196EFF0E1A6E000E1B6EE1
:100FF800010E1C6E19501B261A501C2217501B2656
:1010080018501C2215501B24D96E16501C20DA6E5D
:1010180010EE03F0DE50E126DD50E222E604D8A40B
:1010280018EF08F01AEF08F01CEF08F0D5EF08F0F9
:1010380020EE01F01350D9261450DA22DF50156E35
:10104800166A050ED89015361636E82E26EF08F0E3
:1010580013C0D9FF14C0DAFFDF50176E186AD89092
:1010680017361836BC0E196EFF0E1A6E000E1B6E60
:10107800010E1C6E19501B261A501C2217501B26D5
:1010880018501C2215501B24D96E16501C20DA6EDD
:1010980010EE03F0DE50E126DD50E222020EE618E3
:1010A800D8A459EF08F05BEF08F061EF08F013C01F
:1010B80007F014C008F015EC15F020EE01F01350FD
:1010C800D9261450DA22DF50156E166A050ED8900C
:1010D80015361636E82E6BEF08F013C0D9FF14C08A
:1010E800DAFFDF50176E186AD89017361836DE0EFA
:1010F800196EFF0E1A6E000E1B6E010E1C6E195033
:101108001B261A501C2217501B2618501C2215503B
:101118001B24D96E16501C20DA6E000EDE6E000EEF
:10112800DD6E13C0D9FF14C0DAFFDF0620EE01F030
:101138001350D9261450DA22DF0620EE01F013509E
:10114800D9261450DA22DF50156E166A050ED8908B
:1011580015361636E82EABEF08F013C0D9FF14C0C9
:10116800DAFFDF50176E186AD89017361836DE0E79
:10117800196EFF0E1A6E000E1B6E010E1C6E1950B2
:101188001B261A501C2217501B2618501C221550BB
:101198001B24D96E16501C20DA6E13C0DEFF14C053
:1011A800DDFF120013C0D9FF14C0DAFF100EDE18DD
:1011B800D8B4E1EF08F0E3EF08F05DEF0AF020EEB5
:1011C80001F01350D9261450DA22DE04D8A4EFEF28
:1011D80008F0F1EF08F0F3EF08F05DEF0AF020EE09
:1011E80001F01350D9261450DA22DF50156E166A12
:1011F800050ED89015361636E82EFDEF08F013C008
:10120800D9FF14C0DAFFDF50176E1750020DC00E59
:10121800186EFF0E196E000E1A6E010E1B6E185016
:101228001A2619501B22F3501A26F4501B22155067
:101238001A24D96E16501B20DA6EDE50DE10D8B490
:1012480028EF09F02AEF09F0E9EF09F020EE01F0A4
:101258001350D9261450DA22DF50156E166A050E7F
:10126800D89015361636E82E34EF09F013C0D9FF9A
:1012780014C0DAFFDF50176E1750020DC00E186E3B
:10128800FF0E196E000E1A6E010E1B6E18501A26EC
:1012980019501B22F3501A26F4501B2215501A24F9
:1012A800D96E16501B20DA6E10EE03F0DE50E126E0
:1012B800DD50E222E750D8A464EF09F066EF09F0A8
:1012C80068EF09F05DEF0AF020EE01F01350D9261F
:1012D8001450DA22DF50156E166A050ED8901536AE
:1012E8001636E82E72EF09F013C0D9FF14C0DAFFE2
:1012F800DF50176E1750020DC00E186EFF0E196ED4
:10130800000E1A6E010E1B6E18501A2619501B2259
:10131800F3501A26F4501B2215501A24D96E165071
:101328001B20DA6E10EE03F0DE50E126DD50E222DB
:10133800E604D8A4A2EF09F0A4EF09F0A6EF09F09B
:101348005DEF0AF020EE01F01350D9261450DA228E
:10135800DF50156E166A050ED89015361636E82E2B
:10136800B0EF09F013C0D9FF14C0DAFFDF50176ED1
:101378001750020DC00E186EFF0E196E000E1A6E71
:10138800010E1B6E18501A2619501B22F3501A26EC
:10139800F4501B2215501A24D96E16501B20DA6EF1
:1013A80010EE03F0DE50E126DD50E222020EE618D0
:1013B800D8A4E1EF09F0E3EF09F0E9EF09F013C071
:1013C80007F014C008F015EC15F020EE01F01350EA
:1013D800D9261450DA22DF50156E166A050ED890F9
:1013E80015361636E82EF3EF09F013C0D9FF14C0EE
:1013F800DAFFDF50176E186AD89017361836DE0EE7
:10140800196EFF0E1A6E000E1B6E010E1C6E19501F
:101418001B261A501C2217501B2618501C22155028
:101428001B24D96E16501C20DA6E000EDE6E000EDC
:10143800DD6E13C0D9FF14C0DAFFDF2A20EE01F0F9
:101448001350D9261450DA22DF0620EE01F013508B
:10145800D9261450DA22DF50156E166A050ED89078
:1014680015361636E82E33EF0AF013C0D9FF14C02C
:10147800DAFFDF50176E186AD89017361836DE0E66
:10148800196EFF0E1A6E000E1B6E010E1C6E19509F
:101498001B261A501C2217501B2618501C221550A8
:1014A8001B24D96E16501C20DA6E13C0DEFF14C040
:1014B800DDFF120020EE01F01350D9261450DA2275
:1014C800DE04D8A46AEF0AF06CEF0AF06EEF0AF0B7
:1014D800DBEF0BF020EE01F01350D9261450DA227E
:1014E800DF50156E166A050ED89015361636E82E9A
:1014F80078EF0AF013C0D9FF14C0DAFFDF50176E77
:10150800186AD89017361836BE0E196EFF0E1A6E66
:10151800000E1B6E010E1C6E19501B261A501C2241
:1015280017501B2618501C2215501B24D96E165014
:101538001C20DA6EDE50DE10D8B4A5EF0AF0A7EF53
:101548000AF06CEF0BF020EE01F01350D92614507E
:10155800DA22DF50156E166A050ED8901536163643
:10156800E82EB1EF0AF013C0D9FF14C0DAFFDF503C
:10157800176E186AD89017361836BE0E196EFF0EF9
:101588001A6E000E1B6E010E1C6E19501B261A5087
:101598001C2217501B2618501C2215501B24D96ECC
:1015A80016501C20DA6E10EE03F0DE50E126DD50F6
:1015B800E222E750D8A4E3EF0AF0E5EF0AF0E7EFFC
:1015C8000AF0DBEF0BF020EE01F01350D92614508F
:1015D800DA22DF50156E166A050ED89015361636C3
:1015E800E82EF1EF0AF013C0D9FF14C0DAFFDF507C
:1015F800176E186AD89017361836BE0E196EFF0E79
:101608001A6E000E1B6E010E1C6E19501B261A5006
:101618001C2217501B2618501C2215501B24D96E4B
:1016280016501C20DA6E10EE03F0DE50E126DD5075
:10163800E222E604D8A423EF0BF025EF0BF027EF06
:101648000BF0DBEF0BF020EE01F01350D92614500D
:10165800DA22DF50156E166A050ED8901536163642
:10166800E82E31EF0BF013C0D9FF14C0DAFFDF50BA
:10167800176E186AD89017361836BE0E196EFF0EF8
:101688001A6E000E1B6E010E1C6E19501B261A5086
:101698001C2217501B2618501C2215501B24D96ECB
:1016A80016501C20DA6E10EE03F0DE50E126DD50F5
:1016B800E222020EE618D8A464EF0BF066EF0BF0F6
:1016C8006CEF0BF013C007F014C008F015EC15F020
:1016D80020EE01F01350D9261450DA22DF50156E8F
:1016E800166A050ED89015361636E82E76EF0BF0EA
:1016F80013C0D9FF14C0DAFFDF50176E186AD890EC
:1017080017361836DE0E196EFF0E1A6E000E1B6E97
:10171800010E1C6E19501B261A501C2217501B262E
:1017280018501C2215501B24D96E16501C20DA6E36
:10173800000EDE6E000EDD6E20EE01F01350D9268D
:101748001450DA22DF0620EE01F01350D926145087
:10175800DA22DF50156E166A050ED8901536163641
:10176800E82EB1EF0BF013C0D9FF14C0DAFFDF5039
:10177800176E186AD89017361836DE0E196EFF0ED7
:101788001A6E000E1B6E010E1C6E19501B261A5085
:101798001C2217501B2618501C2215501B24D96ECA
:1017A80016501C20DA6E13C0DEFF14C0DDFF1200D5
:1017B80013C0D9FF14C0DAFFDE04D8A4E6EF0BF09B
:1017C800E8EF0BF0EAEF0BF055EF0DF020EE01F02B
:1017D8001350D9261450DA22DF50156E166A050EFA
:1017E800D89015361636E82EF4EF0BF013C0D9FF53
:1017F80014C0DAFFDF50176E186AD89017361836FB
:10180800DC0E196EFF0E1A6E000E1B6E010E1C6E9A
:1018180019501B261A501C2217501B2618501C2220
:1018280015501B24D96E16501C20DA6EDE50DE10BF
:10183800D8B421EF0CF023EF0CF0E8EF0CF020EE19
:1018480001F01350D9261450DA22DF50156E166AAB
:10185800050ED89015361636E82E2DEF0CF013C06D
:10186800D9FF14C0DAFFDF50176E186AD890173600
:101878001836DC0E196EFF0E1A6E000E1B6E010E66
:101888001C6E19501B261A501C2217501B26185064
:101898001C2215501B24D96E16501C20DA6E10EE2F
:1018A80003F0DE50E126DD50E222E750D8A45FEFD6
:1018B8000CF061EF0CF063EF0CF055EF0DF020EE3B
:1018C80001F01350D9261450DA22DF50156E166A2B
:1018D800050ED89015361636E82E6DEF0CF013C0AD
:1018E800D9FF14C0DAFFDF50176E186AD890173680
:1018F8001836DC0E196EFF0E1A6E000E1B6E010EE6
:101908001C6E19501B261A501C2217501B261850E3
:101918001C2215501B24D96E16501C20DA6E10EEAE
:1019280003F0DE50E126DD50E222E604D8A49FEF62
:101938000CF0A1EF0CF0A3EF0CF055EF0DF020EE3A
:1019480001F01350D9261450DA22DF50156E166AAA
:10195800050ED89015361636E82EADEF0CF013C0EC
:10196800D9FF14C0DAFFDF50176E186AD8901736FF
:101978001836DC0E196EFF0E1A6E000E1B6E010E65
:101988001C6E19501B261A501C2217501B26185063
:101998001C2215501B24D96E16501C20DA6E10EE2E
:1019A80003F0DE50E126DD50E222020EE618D8A44C
:1019B800E0EF0CF0E2EF0CF0E8EF0CF013C007F0EA
:1019C80014C008F015EC15F020EE01F01350D926DC
:1019D8001450DA22DF50156E166A050ED8901536A7
:1019E8001636E82EF2EF0CF013C0D9FF14C0DAFF58
:1019F800DF50176E186AD89017361836DE0E196E33
:101A0800FF0E1A6E000E1B6E010E1C6E19501B265F
:101A18001A501C2217501B2618501C2215501B2424
:101A2800D96E16501C20DA6E000EDE6E000EDD6ECA
:101A380013C0D9FF14C0DAFFDF0620EE01F01350FF
:101A4800D9261450DA22DF50156E166A050ED89082
:101A580015361636E82E2BEF0DF013C0D9FF14C03B
:101A6800DAFFDF50176E186AD89017361836DE0E70
:101A7800196EFF0E1A6E000E1B6E010E1C6E1950A9
:101A88001B261A501C2217501B2618501C221550B2
:101A98001B24D96E16501C20DA6E13C0DEFF14C04A
:101AA800DDFF120013C0D9FF14C0DAFFDE04D8B47A
:101AB80060EF0DF062EF0DF0CDEF0EF020EE01F0CB
:101AC8001350D9261450DA22040EDE18D8A46FEF6A
:101AD8000DF071EF0DF073EF0DF0CDEF0EF013C0B8
:101AE800D9FF14C0DAFFDF50156E166AD890153684
:101AF800163620EE01F01350D9261450DA22DF50A2
:101B0800176E1750200DFC0E186EFF0E196E000E82
:101B18001A6E010E1B6E18501A2619501B22F3500C
:101B28001A26F4501B2215501A24D96E16501B2061
:101B3800DA6EDE50DE10D8B4A4EF0DF0A6EF0DF08B
:101B480059EF0EF013C0D9FF14C0DAFFDF50156E3D
:101B5800166AD8901536163620EE01F01350D9269D
:101B68001450DA22DF50176E1750200DFC0E186E35
:101B7800FF0E196E000E1A6E010E1B6E18501A26F3
:101B880019501B22F3501A26F4501B2215501A2400
:101B9800D96E16501B20DA6E10EE03F0DE50E126E7
:101BA800DD50E222E750D8A4DCEF0DF0DEEF0DF0B7
:101BB800E0EF0DF0CDEF0EF013C0D9FF14C0DAFF3F
:101BC800DF50156E166AD8901536163620EE01F0DD
:101BD8001350D9261450DA22DF50176E1750200DF3
:101BE800FC0E186EFF0E196E000E1A6E010E1B6E9B
:101BF80018501A2619501B22F3501A26F4501B228B
:101C080015501A24D96E16501B20DA6E10EE03F008
:101C1800DE50E126DD50E222E604D8A416EF0EF0ED
:101C280018EF0EF01AEF0EF0CDEF0EF013C0D9FF3B
:101C380014C0DAFFDF50156E166AD89015361636BE
:101C480020EE01F01350D9261450DA22DF50176E17
:101C58001750200DFC0E186EFF0E196E000E1A6E2E
:101C6800010E1B6E18501A2619501B22F3501A2603
:101C7800F4501B2215501A24D96E16501B20DA6E08
:101C880010EE03F0DE50E126DD50E222020EE618E7
:101C9800D8A451EF0EF053EF0EF059EF0EF013C029
:101CA80007F014C008F015EC15F020EE01F0135001
:101CB800D9261450DA22DF50156E166A050ED89010
:101CC80015361636E82E63EF0EF013C0D9FF14C090
:101CD800DAFFDF50176E186AD89017361836DE0EFE
:101CE800196EFF0E1A6E000E1B6E010E1C6E195037
:101CF8001B261A501C2217501B2618501C22155040
:101D08001B24D96E16501C20DA6E000EDE6E000EF3
:101D1800DD6E13C0D9FF14C0DAFFDF0620EE01F034
:101D28001350D9261450DA22DF2A20EE01F013507E
:101D3800D9261450DA22DF50156E166A050ED8908F
:101D480015361636E82EA3EF0EF013C0D9FF14C0CF
:101D5800DAFFDF50176E186AD89017361836DE0E7D
:101D6800196EFF0E1A6E000E1B6E010E1C6E1950B6
:101D78001B261A501C2217501B2618501C221550BF
:101D88001B24D96E16501C20DA6E13C0DEFF14C057
:101D9800DDFF120013C0D9FF14C0DAFF100EDE18E1
:101DA800D8A4D9EF0EF0DBEF0EF0DDEF0EF040EF28
:101DB80010F020EE01F01350D9261450DA22DF502B
:101DC800156E166A050ED89015361636E82EE7EF0A
:101DD8000EF013C0D9FF14C0DAFFDF50176E17508A
:101DE800020DE00E186EFF0E196E000E1A6E010E2F
:101DF8001B6E18501A2619501B22F3501A26F4503D
:101E08001B2215501A24D96E16501B20DA6EDE508C
:101E1800DE10D8B412EF0FF014EF0FF0D3EF0FF07D
:101E280020EE01F01350D9261450DA22DF50156E37
:101E3800166A050ED89015361636E82E1EEF0FF0E6
:101E480013C0D9FF14C0DAFFDF50176E1750020D08
:101E5800E00E186EFF0E196E000E1A6E010E1B6E44
:101E680018501A2619501B22F3501A26F4501B2218
:101E780015501A24D96E16501B20DA6E10EE03F096
:101E8800DE50E126DD50E222E750D8A44EEF0FF0F5
:101E980050EF0FF052EF0FF040EF10F020EE01F08E
:101EA8001350D9261450DA22DF50156E166A050E23
:101EB800D89015361636E82E5CEF0FF013C0D9FF10
:101EC80014C0DAFFDF50176E1750020DE00E186EBF
:101ED800FF0E196E000E1A6E010E1B6E18501A2690
:101EE80019501B22F3501A26F4501B2215501A249D
:101EF800D96E16501B20DA6E10EE03F0DE50E12684
:101F0800DD50E222E604D8A48CEF0FF08EEF0FF03C
:101F180090EF0FF040EF10F020EE01F01350D926AB
:101F28001450DA22DF50156E166A050ED890153651
:101F38001636E82E9AEF0FF013C0D9FF14C0DAFF57
:101F4800DF50176E1750020DE00E186EFF0E196E57
:101F5800000E1A6E010E1B6E18501A2619501B22FD
:101F6800F3501A26F4501B2215501A24D96E165015
:101F78001B20DA6E10EE03F0DE50E126DD50E2227F
:101F8800020EE618D8A4CBEF0FF0CDEF0FF0D3EF89
:101F98000FF013C007F014C008F015EC15F020EE90
:101FA80001F01350D9261450DA22DF50156E166A44
:101FB800050ED89015361636E82EDDEF0FF013C053
:101FC800D9FF14C0DAFFDF50176E186AD890173699
:101FD8001836DE0E196EFF0E1A6E000E1B6E010EFD
:101FE8001C6E19501B261A501C2217501B261850FD
:101FF8001C2215501B24D96E16501C20DA6E000EB8
:10200800DE6E000EDD6E13C0D9FF14C0DAFFDF2AC2
:1020180020EE01F01350D9261450DA22DF50156E45
:10202800166A050ED89015361636E82E16EF10F0FB
:1020380013C0D9FF14C0DAFFDF50176E186AD890A2
:1020480017361836DE0E196EFF0E1A6E000E1B6E4E
:10205800010E1C6E19501B261A501C2217501B26E5
:1020680018501C2215501B24D96E16501C20DA6EED
:1020780013C0DEFF14C0DDFF120020EE01F0135084
:10208800D9261450DA22040EDE18D8A44EEF10F028
:1020980050EF10F052EF10F0A7EF11F013C0D9FF76
:1020A80014C0DAFFDF50156E166AD890153616364A
:1020B80020EE01F01350D9261450DA22DF50176EA3
:1020C8001750200DFE0E186EFF0E196E000E1A6EB8
:1020D800010E1B6E18501A2619501B22F3501A268F
:1020E800F4501B2215501A24D96E16501B20DA6E94
:1020F800DE50DE10D8B483EF10F085EF10F038EF23
:1021080011F013C0D9FF14C0DAFFDF50156E166A3C
:10211800D8901536163620EE01F01350D9261450F3
:10212800DA22DF50176E1750200DFE0E186EFF0EC4
:10213800196E000E1A6E010E1B6E18501A261950D1
:102148001B22F3501A26F4501B2215501A24D96E5C
:1021580016501B20DA6E10EE03F0DE50E126DD503B
:10216800E222E750D8A4BBEF10F0BDEF10F0BFEFAC
:1021780010F0A7EF11F013C0D9FF14C0DAFFDF5039
:10218800156E166AD8901536163620EE01F01350E3
:10219800D9261450DA22DF50176E1750200DFE0E84
:1021A800186EFF0E196E000E1A6E010E1B6E185077
:1021B8001A2619501B22F3501A26F4501B221550C8
:1021C8001A24D96E16501B20DA6E10EE03F0DE507A
:1021D800E126DD50E222E604D8A4F5EF10F0F7EF8F
:1021E80010F0F9EF10F0A7EF11F013C0D9FF14C0E9
:1021F800DAFFDF50156E166AD8901536163620EEBF
:1022080001F01350D9261450DA22DF50176E1750F8
:10221800200DFE0E186EFF0E196E000E1A6E010EBE
:102228001B6E18501A2619501B22F3501A26F45008
:102238001B2215501A24D96E16501B20DA6E10EE88
:1022480003F0DE50E126DD50E222020EE618D8A4A3
:1022580030EF11F032EF11F038EF11F013C007F042
:1022680014C008F015EC15F020EE01F01350D92633
:102278001450DA22DF50156E166A050ED8901536FE
:102288001636E82E42EF11F013C0D9FF14C0DAFF5A
:10229800DF50176E186AD89017361836DE0E196E8A
:1022A800FF0E1A6E000E1B6E010E1C6E19501B26B7
:1022B8001A501C2217501B2618501C2215501B247C
:1022C800D96E16501C20DA6E000EDE6E000EDD6E22
:1022D80020EE01F01350D9261450DA22DF2A20EE1E
:1022E80001F01350D9261450DA22DF50156E166A01
:1022F800050ED89015361636E82E7DEF11F013C06E
:10230800D9FF14C0DAFFDF50176E186AD890173655
:102318001836DE0E196EFF0E1A6E000E1B6E010EB9
:102328001C6E19501B261A501C2217501B261850B9
:102338001C2215501B24D96E16501C20DA6E13C0AF
:10234800DEFF14C0DDFF120013C0D9FF14C0DAFF8E
:10235800100EDE18D8B4B3EF11F0B5EF11F008EF96
:1023680013F020EE01F01350D9261450DA22040E8F
:10237800DE18D8A4C2EF11F0C4EF11F0C6EF11F0C7
:1023880008EF13F013C0D9FF14C0DAFFDF50156E41
:102398001550020DF3CF16F0F4CF17F020EE01F030
:1023A8001350D9261450DA22DF50186E1850200D19
:1023B800000E196E010E1A6EF3501926F4501A22E7
:1023C80016501924D96E17501A20DA6EDE50DE1016
:1023D800D8B4F1EF11F0F3EF11F094EF12F013C04D
:1023E800D9FF14C0DAFFDF50156E1550020DF3CF78
:1023F80016F0F4CF17F020EE01F01350D926145040
:10240800DA22DF50186E1850200D000E196E010EDA
:102418001A6EF3501926F4501A2216501924D96E40
:1024280017501A20DA6E10EE03F0DE50E126DD5068
:10243800E222E750D8A423EF12F025EF12F027EF9D
:1024480012F008EF13F013C0D9FF14C0DAFFDF5001
:10245800156E1550020DF3CF16F0F4CF17F020EEDD
:1024680001F01350D9261450DA22DF50186E185094
:10247800200D000E196E010E1A6EF3501926F45035
:102488001A2216501924D96E17501A20DA6E10EE37
:1024980003F0DE50E126DD50E222E604D8A457EF2F
:1024A80012F059EF12F05BEF12F008EF13F013C0BF
:1024B800D9FF14C0DAFFDF50156E1550020DF3CFA7
:1024C80016F0F4CF17F020EE01F01350D92614506F
:1024D800DA22DF50186E1850200D000E196E010E0A
:1024E8001A6EF3501926F4501A2216501924D96E70
:1024F80017501A20DA6E10EE03F0DE50E126DD5098
:10250800E222020EE618D8A48CEF12F08EEF12F039
:1025180094EF12F013C007F014C008F015EC15F092
:1025280020EE01F01350D9261450DA22DF50156E30
:10253800166A050ED89015361636E82E9EEF12F05C
:1025480013C0D9FF14C0DAFFDF50176E186AD8908D
:1025580017361836DE0E196EFF0E1A6E000E1B6E39
:10256800010E1C6E19501B261A501C2217501B26D0
:1025780018501C2215501B24D96E16501C20DA6ED8
:10258800000EDE6E000EDD6E13C0D9FF14C0DAFF38
:10259800DF2A20EE01F01350D9261450DA22DF2A60
:1025A80020EE01F01350D9261450DA22DF50156EB0
:1025B800166A050ED89015361636E82EDEEF12F09C
:1025C80013C0D9FF14C0DAFFDF50176E186AD8900D
:1025D80017361836DE0E196EFF0E1A6E000E1B6EB9
:1025E800010E1C6E19501B261A501C2217501B2650
:1025F80018501C2215501B24D96E16501C20DA6E58
:1026080013C0DEFF14C0DDFF1200000E346E000E92
:10261800336E5550331807E156503418D8A417EFC5
:1026280013F019EF13F01BEF13F019EF14F0000E6D
:10263800076E090E066E99EC17F006C021F007C068
:1026480022F0E7EF13F033C001F034C002F0000EBF
:10265800046E050E036E79EC18F0590E0124236EF2
:10266800000E0220246E23C013F024C014F0DCEC0A
:102678000BF019EF14F033C001F034C002F0000E73
:10268800046E050E036E79EC18F0590E0124256EC0
:10269800000E0220266E25C013F026C014F0CEECE2
:1026A8000EF019EF14F033C001F034C002F0000E40
:1026B800046E050E036E79EC18F0590E0124276E8E
:1026C800000E0220286E27C013F028C014F05EEC1C
:1026D8000AF019EF14F033C001F034C002F0000E14
:1026E800046E050E036E79EC18F0590E0124296E5C
:1026F800000E02202A6E29C013F02AC014F041EC03
:1027080010F019EF14F033C001F034C002F0000EDD
:10271800046E050E036E79EC18F0590E01242B6E29
:10272800000E02202C6E2BC013F02CC014F047ECC6
:1027380007F019EF14F033C001F034C002F0000EB6
:10274800046E050E036E79EC18F0590E01242D6EF7
:10275800000E02202E6E2DC013F02EC014F0D6EC01
:1027680008F019EF14F033C001F034C002F0000E85
:10277800046E050E036E79EC18F0590E01242F6EC5
:10278800000E0220306E2FC013F030C014F056EC4B
:102798000DF019EF14F033C001F034C002F0000E50
:1027A800046E050E036E79EC18F0590E0124316E93
:1027B800000E0220326E31C013F032C014F0A8ECC3
:1027C80011F019EF14F021C01FF022C020F02050A2
:1027D800000AD8B4F2EF13F019EF14F01F50000AF2
:1027E800D8B427EF13F0010AD8B43FEF13F0030A67
:1027F800D8B457EF13F0010AD8B46FEF13F0070AF3
:10280800D8B487EF13F0010AD8B49FEF13F0030A86
:10281800D8B4B7EF13F0010AD8B4CFEF13F00F0A0A
:10282800D8B419EF14F019EF14F0334A342A34BE2F
:1028380027EF14F0345009E1040E335CD8A027EFD9
:1028480014F029EF14F00DEF13F01200000E000140
:10285800E86F000EE76F000EEA6F000EE96FE7C041
:10286800DBF0E8C0DCF0050ED890DB37DC37E82E6B
:1028780038EF14F0000EDD6F010EDE6FDB51DD273F
:10288800DC51DE23D890E935D96EEA35DA6EDD51B0
:10289800D926DE51DA22000EDE6E000EDD6EE94B1F
:1028A800EA2BEABF61EF14F0EA5109E1100EE95D85
:1028B800D8A061EF14F063EF14F033EF14F0E74B96
:1028C800E82BE8BF71EF14F0E85109E1040EE75D69
:1028D800D8A071EF14F073EF14F02FEF14F0000E7E
:1028E800566E000E556E030E596E020E5A6E000E8D
:1028F8005C6E010E5D6E010E5B6E030E5E6E030E66
:102908005F6E000E616E000E626E010E606E0E0E3E
:10291800636E020E646E010E666E000E676E010E27
:10292800656E0E0E686E030E696E010E6B6E000EFC
:102938006C6E010E6A6E090E726E020E736E020ED6
:10294800756E040E766E010E746E010E6D6E010EBC
:102958006E6E030E706E000E6F6E000EEC6F000E42
:10296800EB6FEBC0D5F0ECC0D6F0000ED86F050EBB
:10297800D76F65EC18F0590E0001DB6F000EDC6FA5
:10298800D551DB27D651DC23050EEB03F3CFDDF061
:10299800F4CFDEF0EC03F350DE27590EDD25D96EB7
:1029A800000EDE21DA6EDF50DF6FDF51020DF3CF4C
:1029B800E0F0F4CFE1F0050EEB03F3CFE2F0F4CF53
:1029C800E3F0EC03F350E3275A0EE225D96E000E2C
:1029D800E321DA6EDF50E46FE451200D000EE56F5D
:1029E800010EE66FF350E527F450E623E051E525A4
:1029F800D96EE151E621DA6EDBC0DEFFDCC0DDFF17
:102A0800EB4BEC2BECBF12EF15F0EC5109E1060E85
:102A1800EB5DD8A012EF15F014EF15F0B5EF14F038
:102A280012007B04D8A41BEF15F01DEF15F059EF29
:102A380015F020EE04F00750D9260850DA22020ECD
:102A4800DF6E7350096E0A6A050ED89009360A3689
:102A5800E82E29EF15F072500B6E0C6AD8900B36E1
:102A68000C36DE0E0D6EFF0E0E6E000E0F6E010E92
:102A7800106E0D500F260E5010220B500F260C50C2
:102A8800102209500F24D96E0A501020DA6E07C0A0
:102A9800DEFF08C0DDFF000E746E040E766E000EB9
:102AA800736E73C072F0F7EF15F055C001F056C0A1
:102AB80002F0000E046E050E036E79EC18F05D0E40
:102AC8000124D96E000E0220DA6E000EDF6E20EEB1
:102AD80004F00750D9260850DA22020EDF6E000EE5
:102AE800126E000E116E11C001F012C002F0000E3D
:102AF800046E050E036E79EC18F0590E096E000E7F
:102B08000A6E0150092602500A220750091807E1E7
:102B180008500A18D8A493EF15F095EF15F09BEF1D
:102B280015F011C055F012C056F0ABEF15F0114A70
:102B3800122A12BEA9EF15F0125009E1040E115C19
:102B4800D8A0A9EF15F0ABEF15F077EF15F073509B
:102B5800096E0A6A050ED89009360A36E82EAFEFD4
:102B680015F072500B6E0C6AD8900B360C36DE0ED0
:102B78000D6EFF0E0E6E000E0F6E010E106E0D50D4
:102B88000F260E5010220B500F260C501022095001
:102B98000F24D96E0A501020DA6E07C0DEFF08C075
:102BA800DDFF000E746E000E736E73C072F0040EBB
:102BB800766E000E6F6E20EE03F00750D92608508F
:102BC800DA22DF50D8A4EBEF15F0EDEF15F0F2EFB5
:102BD80015F00001F14BF22BF5EF15F00001EF4B6A
:102BE800F02B010E7B6E1200000E096E000E086EAF
:102BF80008C001F009C002F0000E046E050E036E55
:102C080079EC18F0590E0124D96E000E0220DA6E04
:102C18007250DE18D8A413EF16F015EF16F08CEFEB
:102C280016F008C001F009C002F0000E046E050E8F
:102C3800036E79EC18F05A0E0124D96E000E0220AA
:102C4800DA6E7350DE18D8A42CEF16F02EEF16F0BB
:102C58008CEF16F008C001F009C002F0000E046EF7
:102C6800050E036E79EC18F05C0E0124D96E000E87
:102C78000220DA6EDF50D8A444EF16F046EF16F0C3
:102C88004BEF16F00001F14BF22B4EEF16F000015E
:102C9800EF4BF02B010E7B6E000E4C6E000E4B6E50
:102CA800000E6F6E000E746E55C001F056C002F033
:102CB800000E046E050E036E79EC18F05D0E01240B
:102CC800D96E000E0220DA6E000EDF6E08C001F029
:102CD80009C002F0000E046E050E036E79EC18F0C0
:102CE8005D0E0124D96E000E0220DA6E020EDF6E30
:102CF80008C055F009C056F008C001F009C002F03C
:102D0800000E046E050E036E79EC18F09CEF16F0B9
:102D1800084A092A09BE9AEF16F0095009E1040E7B
:102D2800085CD8A09AEF16F09CEF16F0FCEF15F0AF
:102D380012000E0EC16EF19E000E816E810EB16EF4
:102D48009368000E926E000E956E130ED56E000EEF
:102D5800586E000ED66E800ED76ED58EF28CF28825
:102D6800F286F28AF086F19CF19AF290F292F09053
:102D7800F296F28E81CF81FFF290F286D08EF180AA
:102D8800F184F08C9F809F8C9F929D809E909F8065
:102D9800ED0ECE6E850ECF6EB10ECD6E9D829E92DB
:102DA8007F0ECA6E010EC26EC050F80B0209C06ECB
:102DB800C050C70B1009C06EC08E92809D8C120047
:102DC800C50E0001D86F000ED96F000E27EC18F061
:102DD800BD0E0001D86F000ED96F010E27EC18F058
:102DE800B50E0001D86F000ED96F020E27EC18F04F
:102DF800AD0E0001D86F000ED96F030E27EC18F046
:102E0800A50E0001D86F000ED96F040E27EC18F03C
:102E18009D0E0001D86F000ED96F050E27EC18F033
:102E2800950E0001D86F000ED96F060E27EC18F02A
:102E38008D0E0001D86F000ED96F070E27EC18F021
:102E480012000001D76F0001D605D8A42EEF17F0A5
:102E580030EF17F037EF17F0D7050F0B800F9CEC0A
:102E680018F05CEF17F0020ED619D8A43EEF17F051
:102E780040EF17F047EF17F0D7050F0BC00F9CEC8A
:102E880018F05CEF17F0030ED619D8A44EEF17F020
:102E980050EF17F057EF17F0D7050F0B900F9CEC7A
:102EA80018F05CEF17F0D7050F0BD00F9CEC18F05B
:102EB800D7C08CF0D6C08BF01200000EF66E300E24
:102EC800F76E000EF86E00EE80F010EE4DF009007F
:102ED800F5CFEEFFE550E150FAE1820EF66E310EC5
:102EE800F76E000EF86E00EE77F010EE05F00900B0
:102EF800F5CFEEFFE550E150FAE101EE00F0BC0E2F
:102F0800EE6AE806FDE10001F26BF16BF06BEF6B26
:102F180000EE4BF02C0EEE6AE806FDE17C907C9208
:102F2800000EF86E0001ABEF18F0B190B2CF01F0CF
:102F3800026A06C003F007C004F0CEEC17F0015097
:102F48000D6EB2CFB3FF000E0B6E000E0A6EB8EF17
:102F580017F0B250800B0C6ED890B2360C44010BAF
:102F6800B210B26E0A4A0B2A070E0614086E000E3B
:102F78000714096E08500A5C09500B58D8A0C7EF0F
:102F880017F0C9EF17F0ADEF17F0B1800DC006F0DC
:102F9800076A120003500410D8B4D5EF17F0D7EF22
:102FA80017F0FBEF17F0010E056EDFEF17F0D89062
:102FB80003360436052A04AEE4EF17F0E6EF17F0FF
:102FC800DBEF17F00350015C04500258D8A0EFEF74
:102FD80017F0F1EF17F0F5EF17F00350015E04500A
:102FE800025AD89004320332052EE6EF17F001C0DA
:102FF80001F002C002F012003F065B4F666D7D07CC
:103008007F6F4001010E1111110E0000000E1F1FED
:103018001F0E0000001F150A040E1F0A1F1F150AA5
:103028000404040A1F11150A040E1F0A1F11150AA9
:103038000404040A1F11150A040E1F0A0A11150AAE
:053048000404040A0A63
:10304E000001DA6F0001DA51080DF350400F9CECCD
:10305E0018F0000E0001DB6FDB51D825D96E000E83
:10306E00D921DA6EDF508CEC18F00001DB2B070E45
:10307E00DB6544EF18F046EF18F033EF18F08BC015
:10308E00D6F08C5125EC17F0120096929694000E05
:10309E00956E84928494380E9CEC18F0080E9CEC7D
:1030AE0018F00C0E9CEC18F0060E9CEC18F0010EAD
:1030BE009CEC18F0800E9CEC18F012000001D5511B
:1030CE00D703F3CFD9F0F4CFDAF0D551D803F350BC
:1030DE00DA27D651D703F350DA27D9C0D5F0DAC0A4
:1030EE00D6F0120001500302F3CF05F0F4CF06F034
:1030FE0001500402F350062602500302F350062636
:10310E0005C001F006C002F012000001D56F8492D6
:10311E008484D5C083FF8482FA0EE82EFED7849273
:10312E00FA0EE82EFED7849412000001D56F849219
:10313E008494D5C083FF8482FA0EE82EFED7849243
:10314E00FA0EE82EFED712009DEC16F04CEC18F09D
:10315E002AEC14F0E4EC16F05FEC03F0B3EF18F089
:10316E0064EF00F0000E586E000ED66E000ED76E95
:09317E00D58E12001000100001B2
:020000040020DA
:08000000FFFFFFFFFFFFFFFF00
:020000040030CA
:0E000000FF071F1FFF8385FF0FC00FE00F409B
:00000001FF
