:020000040000FA
:0400000007EF00F016
:0A000800768250ED0DF04CEF0EF083
:05100000002564000062
:1010060020C038F021C039F022C03AF023C03BF0AE
:1010160024C03CF025C03DF026C03EF027C03FF07E
:101026003FBE18EF08F01BEF08F0010E1CEF08F0AA
:10103600000E366E376A36503710D8B425EF08F0F2
:1010460027EF08F037EF08F03F1E3E1E3D1E3C1E00
:101056003B1E3A1E391E386C000E39223A223B22BC
:101066003C223D223E223F226DBE3CEF08F03EEF81
:1010760008F03FEF08F06E926DBE4CEF08F06D5031
:1010860006E16C04D8B04AEF08F04CEF08F052EFD6
:1010960008F0000E336E010E326E56EF08F06CC08B
:1010A60032F06DC033F0C2C034F0C3C035F03650F4
:1010B6003710D8A461EF08F063EF08F06AEF08F084
:1010C6006EA468EF08F06AEF08F06DEF08F03406DA
:1010D600D8A03506000E416E1F0E406E000E0001B0
:1010E600E56FF2EF08F04006D8A04106C60E402490
:1010F600D96E000E4120DA6E38C003F039C004F014
:101106003AC005F03BC006F03CC007F03DC008F011
:101116003EC009F03FC00AF00A0E0B6E000E0C6EC0
:10112600000E0D6E000E0E6E000E0F6E000E106E8F
:10113600000E116E000E126ED8EC0BF003C028F0F4
:1011460004C029F005C02AF006C02BF007C02CF019
:1011560008C02DF009C02EF00AC02FF028C015F0E7
:101166002AC016F03EEC0FF01550300FDF6E320637
:10117600D8A033063406D8A0350638C003F039C0E7
:1011860004F03AC005F03BC006F03CC007F03DC095
:1011960008F03EC009F03FC00AF00A0E0B6E000EC2
:1011A6000C6E000E0D6E000E0E6E000E0F6E000E13
:1011B600106E000E116E000E126E14EC0BF003C0D2
:1011C60038F004C039F005C03AF006C03BF007C05D
:1011D6003CF008C03DF009C03EF00AC03FF041BEF9
:1011E600FDEF08F0415008E14004D8A0FDEF08F0FB
:1011F600FFEF08F02FEF09F0385039103A103B1086
:101206003C103D103E103F10D8A40CEF09F00EEF35
:1012160009F076EF08F033BE1BEF09F0335006E114
:101226003204D8B019EF09F01BEF09F076EF08F099
:1012360035BE26EF09F0355008E13404D8A026EF74
:1012460009F028EF09F02FEF09F06EB22DEF09F043
:101256002FEF09F076EF08F036503710D8A436EFA6
:1012660009F038EF09F03FEF09F06EA43DEF09F001
:101276003FEF09F05DEF09F04006D8A04106365071
:101286003710D8A449EF09F04BEF09F051EF09F0F8
:10129600000E316E2B0E306E55EF09F0000E316EDA
:1012A6002D0E306EC60E4024D96E000E4120DA6E29
:1012B60030C0DFFF1EC013F01FC014F0C60E40245E
:1012C600156E000E4120166E34C017F035C018F0AA
:1012D600EFEC0CF013C01EF014C01FF0120044C057
:1012E600D9FF45C0DAFFDECFF6FFDDCFF7FF0800F6
:1012F600F550250AD8A482EF09F084EF09F030EF03
:101306000AF044C0D9FF45C0DAFFDE2A000EDD220E
:10131600000E0001C36F000EC26FC2C06EF0C3C0E4
:101326006FF06C686D6844C0D9FF45C0DAFFDECF48
:10133600F6FFDDCFF7FF0800F550640AD8B4A6EF34
:1013460009F0A8EF09F0BAEF09F044C0D9FF45C08B
:10135600DAFFDECFF6FFDDCFF7FF0800F550690AAA
:10136600D8A4B8EF09F0BAEF09F0FAEF09F044C0D3
:10137600D9FF45C0DAFFDE2A000EDD2246C0D9FFBE
:1013860047C0DAFFDFCF48F0020EDE26DFCF49F096
:10139600000EDD2248C0D9FF49C0DAFFDECF4AF091
:1013A600DDCF4BF0000E4BBEFF0E4C6E4D6E4E6EFB
:1013B6004F6E506E516E42C01EF043C01FF04AC0C1
:1013C60020F04BC021F04CC022F04DC023F04EC09F
:1013D60024F04FC025F050C026F051C027F003EC92
:1013E60008F01EC042F01FC043F04BEF0AF044C0A5
:1013F600D9FF45C0DAFFDECFF6FFDDCFF7FF0800E5
:10140600F550250AD8A40AEF0AF00CEF0AF023EFEC
:101416000AF044C0D9FF45C0DAFFDE2A000EDD22FD
:10142600000E046E250E036E42C005F043C006F0A2
:101436008AEC0CF0000E436E010E426E4BEF0AF082
:1014460044C0D9FF45C0DAFFDE2A000EDD22000EB9
:10145600436E000E426E4BEF0AF044C0D9FF45C002
:10146600DAFFDECFF6FFDDCFF7FF0800F550036E9B
:10147600046A42C005F043C006F08AEC0CF044C092
:10148600D9FF45C0DAFFDE2A000EDD221DEF0AF085
:101496001200000E0001C56F000EC46FC4C070F0CC
:1014A600C5C071F070C072F071C073F0070EC16EE6
:1014B600F19E000E816E810EB16E9368000E926EE3
:1014C600000E956E010EEF6F110ED56E010EF06FC8
:1014D600F28CF288F286F28AF086F18CF18AF2902A
:1014E600F292F090F28E79EC0FF0010E756E010E0D
:1014F600746E13EC0EF0010E756E010E746E74C0F0
:1015060005F07550D9EC0DF0000E0001EE6F070ED8
:10151600ED6FEDC06AF081CF6BF06A2A95EF0AF0A5
:10152600D8906B326A2E93EF0AF06BB09DEF0AF0FB
:101536009FEF0AF0A6EF0AF0000E0001EC6F300EE6
:10154600EB6FABEF0AF0000E0001EC6F310EEB6FA4
:10155600EB5192EC0FF00001ED07D8A0EE07EEBFBD
:10156600B9EF0AF0B7EF0AF08CEF0AF0020E746ECC
:10157600010E756E74C005F07550D9EC0DF0E60ECF
:101586005A6E000E5B6E010E5C6E100E5D6E72C0C2
:101596005EF073C05FF0B4EC0EF0E60E076E000E60
:1015A600086E9FEC0DF0030E746E010E756E74C01E
:1015B60005F07550D9EC0DF0E60E5A6E000E5B6E16
:1015C600010E5C6E100E5D6E70C05EF071C05FF055
:1015D600B4EC0EF0E60E076E000E086E9FEC0DF0F2
:1015E600040E746E010E756E74C005F07550D9EC5C
:1015F6000DF0E60E5A6E000E5B6E010E5C6E100E5E
:101606005D6EC4C05EF0C5C05FF0B4EC0EF0E60ED1
:10161600076E000E086E9FEC0DF07EEF0AF007EFE6
:1016260000F0000E146E12BE1DEF0BF01BEF0BF058
:101636002FEF0BF0121E111E101E0F1E0E1E0D1E7A
:101646000C1E0B6C000E0C220D220E220F221022F5
:1016560011221222010E146E0ABE36EF0BF034EF81
:101666000BF048EF0BF00A1E091E081E071E061E89
:10167600051E041E036C000E042205220622072204
:10168600082209220A22010E141A20EE15F0070E6E
:10169600DE6AE806FDE20B500C100D100E100F105E
:1016A600101011101210D8B45BEF0BF05DEF0BF0B9
:1016B600AFEF0BF0010E136E6BEF0BF0D8900B36FD
:1016C6000C360D360E360F36103611361236132AF4
:1016D60012AE70EF0BF072EF0BF061EF0BF0D890DB
:1016E600153616361736183619361A361B361C3680
:1016F6000B50035C0C5004580D5005580E500658FC
:101706000F500758105008581150095812500A58CF
:10171600D8A090EF0BF092EF0BF0A3EF0BF00B506D
:10172600035E0C50045A0D50055A0E50065A0F50BF
:10173600075A1050085A1150095A12500A5A158061
:10174600D8901232113210320F320E320D320C3264
:101756000B32132E72EF0BF01450D8B4B5EF0BF01A
:10176600B7EF0BF0C7EF0BF01C1E1B1E1A1E191E3F
:10177600181E171E161E156C000E1622172218228A
:1017860019221A221B221C2215C003F016C004F0CF
:1017960017C005F018C006F019C007F01AC008F007
:1017A6001BC009F01CC00AF01200000E146E0ABE1F
:1017B600E1EF0BF0DFEF0BF0F3EF0BF00A1E091E63
:1017C600081E071E061E051E041E036C000E0422BC
:1017D600052206220722082209220A22010E146E79
:1017E60012BEFAEF0BF0F8EF0BF00AEF0CF0121E38
:1017F600111E101E0F1E0E1E0D1E0C1E0B6C000E53
:101806000C220D220E220F221022112212220B5020
:101816000C100D100E100F10101011101210D8B45D
:1018260017EF0CF019EF0CF061EF0CF0010E136ED0
:1018360027EF0CF0D8900B360C360D360E360F36D9
:10184600103611361236132A12AE2CEF0CF02EEF8C
:101856000CF01DEF0CF00B50035C0C5004580D50AF
:1018660005580E5006580F5007581050085811507A
:10187600095812500A58D8A043EF0CF045EF0CF067
:1018860055EF0CF00B50035E0C50045A0D50055AE0
:101896000E50065A0F50075A1050085A1150095A3E
:1018A60012500A5AD8901232113210320F320E32BA
:1018B6000D320C320B32132E2EEF0CF01450D8B41E
:1018C60067EF0CF069EF0CF079EF0CF00A1E091EB9
:1018D600081E071E061E051E041E036C000E0422AB
:1018E600052206220722082209220A2203C003F043
:1018F60004C004F005C005F006C006F007C007F0F6
:1019060008C008F009C009F00AC00AF01200055024
:101916000610D8B491EF0CF093EF0CF09CEF0CF09E
:1019260005500610D8A49AEF0CF09CEF0CF0A1EF2E
:101936000CF00350CDEC0FF0EEEF0CF020EE04F0BF
:101946000550D9260650DA22DE50DE10D8B4AEEFA6
:101956000CF0B0EF0CF0CBEF0CF020EE04F00550DD
:10196600D9260650DA2210EE02F00550E12606507E
:10197600E222DE50E65CE650800A0B6EDE50800AFC
:101986000B58D8B0C9EF0CF0CBEF0CF0EEEF0CF023
:1019960020EE02F00550D9260650DA22DECF07F0F7
:1019A600DDCF08F005C0D9FF06C0DAFFDECF09F0AB
:1019B600DDCF0AF007500924D96E08500A20DA6EE6
:1019C60003C0DFFF20EE02F00550D9260650DA22CA
:1019D600DE2A000EDD2212006EA0F4EF0CF0F6EF08
:1019E6000CF000EF0DF015C00CF016C00DF013C092
:1019F6000EF014C00FF0DBEC0EF018BE05EF0DF084
:101A060007EF0DF00DEF0DF017C01CF018C01DF01C
:101A160011EF0DF0000E1D6E000E1C6E000E1B6EFB
:101A2600000E1A6E23EF0DF0000E046E200E036EEC
:101A360013C005F014C006F08AEC0CF01A4A1B2AF3
:101A46001C501A5C1B50800A196E1D50800A1958CA
:101A5600D8A030EF0DF032EF0DF017EF0DF06EB0AD
:101A660037EF0DF039EF0DF043EF0DF015C00CF028
:101A760016C00DF013C00EF014C00FF0DBEC0EF024
:101A860015C003F016C004F05EEC0FF01C500324E2
:101A9600136E1D500420146E12000600F2A456EFB9
:101AA6000DF058EF0DF05DEF0DF0010E0001F06F37
:101AB600D59EF2948150F2A263EF0DF065EF0DF022
:101AC60072EF0DF00001F051D8B46CEF0DF06EEF2F
:101AD6000DF072EF0DF0724A732AC3EC0FF0F0A00E
:101AE60077EF0DF079EF0DF086EF0DF00001F05174
:101AF600D8B480EF0DF082EF0DF086EF0DF0704A4E
:101B0600712AC3EC0FF0F2A08BEF0DF08DEF0DF004
:101B16009AEF0DF00001F051D8B494EF0DF096EF66
:101B26000DF09AEF0DF0C44BC52BC3EC0FF0F090FF
:101B3600F292F29076921100000E096ECAEF0DF045
:101B460009500724D96E000E0820DA6EDF5092EC99
:101B56000FF0752A110E7518D8A4B4EF0DF0B6EF74
:101B66000DF0C9EF0DF0010E756E742A050E74188E
:101B7600D8A4C0EF0DF0C2EF0DF0C4EF0DF0010ECA
:101B8600746E74C005F07550D9EC0DF0092A095031
:101B96000724D96E000E0820DA6EDF50D8A4D6EFDF
:101BA6000DF0D8EF0DF0A3EF0DF01200066E050450
:101BB600D8A4E0EF0DF0E2EF0DF0E9EF0DF006042A
:101BC6000F0B800FABEC0FF00EEF0EF0020E0518A8
:101BD600D8A4F0EF0DF0F2EF0DF0F9EF0DF00604DA
:101BE6000F0BC00FABEC0FF00EEF0EF0030E051847
:101BF600D8A400EF0EF002EF0EF009EF0EF0060487
:101C06000F0B900FABEC0FF00EEF0EF006040F0B60
:101C1600D00FABEC0FF006C075F005C074F01200E3
:101C2600B80E076E000E086E000EFDEC0EF0B00E3C
:101C3600076E000E086E010EFDEC0EF0A80E076E84
:101C4600000E086E020EFDEC0EF0A00E076E000EE2
:101C5600086E030EFDEC0EF0980E076E000E086E71
:101C6600040EFDEC0EF0900E076E000E086E050ECB
:101C7600FDEC0EF0880E076E000E086E060EFDECEB
:101C86000EF0800E076E000E086E070EFDEC0EF0CD
:101C960012003C0EF66E1E0EF76E000EF86E00EE8B
:101CA60080F010EE40F00900F5CFEEFFE550E15070
:101CB600FAE1980EF66E1F0EF76E000EF86E09002A
:101CC600F5CF74F00900F5CF75F001EE00F05A0E6D
:101CD600EE6AE806FDE100EEC0F0260EEE6AE806C2
:101CE600FDE100EE6CF0080EEE6AE806FDE1769086
:101CF6007692000EF86E100EF76E00014CEF0AF0A9
:101D060054C058F055C059F0000E0001C16F000EC6
:101D1600C06FA1EF0EF052C042F053C043F0580E10
:101D2600446E000E456E56C046F057C047F072EC42
:101D360009F042500001C0274350C12358C0F6FFA6
:101D460059C0F7FF0800F5500009D8A4ADEF0EF012
:101D5600AFEF0EF08EEF0EF0C0C052F0C1C053F0E0
:101D660012005E0E626E000E636E5AC064F05BC0B7
:101D760065F0000E676E000E666E000E696E000E50
:101D8600686E640E526E000E536E5CC054F05DC0F9
:101D960055F0620E566E000E576E83EC0EF06650CE
:101DA6005A24D96E67505B20DA6E000EDF6E120081
:101DB600000E126E000E116EECEF0EF010C003F066
:101DC600046A0EC005F00FC006F08AEC0CF0114A4A
:101DD600122A11500C24D96E12500D20DA6EDF50E3
:101DE600106E1050D8A4FAEF0EF0FCEF0EF0E1EFF3
:101DF6000EF01200096E0950080DF350400FABECBF
:101E06000FF0000E0A6E0A500724D96E000E082045
:101E1600DA6EDF5092EC0FF00A2A070E0A6416EF0C
:101E26000FF018EF0FF006EF0FF074C005F07550C5
:101E3600D9EC0DF012000E1111110E0000000E1F4C
:101E46001F1F0E0000001F150A040E1F0A1F1F1574
:101E56000A0404040A1F11150A040E1F0A1F11158D
:101E66000A0404040A1F11150A040E1F0A0A111592
:101E76000A0404040A0A16BE4BEF0FF0165006E1D8
:101E86001504D8B049EF0FF04BEF0FF059EF0FF0F4
:101E960015C017F016C018F0171E181E174A182A74
:101EA60017C015F018C016F05DEF0FF015C015F04D
:101EB60016C016F0120003C005F004C006F066EF67
:101EC6000FF0034A042A03C0D9FF04C0DAFFDF502B
:101ED600D8A470EF0FF072EF0FF064EF0FF005501B
:101EE600035C036E06500458046E12009692969494
:101EF600000E956E84928494380EABEC0FF0080EAB
:101F0600ABEC0FF00C0EABEC0FF0060EABEC0FF0DB
:101F1600010EABEC0FF0800EABEC0FF01200046E6E
:101F26008492848404C083FF8482070E036E7D0E30
:101F3600E82EFED7032EFCD700F08492070E036E20
:101F46007D0EE82EFED7032EFCD700F084941200F7
:101F5600046E8492849404C083FF8482070E036E09
:101F66007D0EE82EFED7032EFCD700F08492070ED6
:101F7600036E7D0EE82EFED7032EFCD700F012006E
:101F8600000E0001F06F000ED66E000ED76ED58ED5
:061F96001200010112001F
:020000040020DA
:08000000FFFFFFFFFFFFFFFF00
:020000040030CA
:0E000000FF071F1FFF8385FF0FC00FE00F409B
:00000001FF
