:020000040000FA
:0400000007EF00F016
:0A000800768265ED0CF05AEF0EF061
:05100000002564000062
:1010060021C039F022C03AF023C03BF024C03CF0A6
:1010160025C03DF026C03EF027C03FF028C040F076
:1010260040BE18EF08F01BEF08F0010E1CEF08F0A9
:10103600000E376E386A37503810D8B425EF08F0EE
:1010460027EF08F037EF08F0401E3F1E3E1E3D1EFC
:101056003C1E3B1E3A1E396C000E3A223B223C22B5
:101066003D223E223F2240226EBE3CEF08F03EEF7C
:1010760008F03FEF08F06F926EBE4CEF08F06E502E
:1010860006E16D04D8B04AEF08F04CEF08F052EFD5
:1010960008F0000E346E010E336E56EF08F06DC088
:1010A60033F06EC034F0D4C035F0D5C036F03750CA
:1010B6003810D8A461EF08F063EF08F06AEF08F083
:1010C6006FA468EF08F06AEF08F06DEF08F03506D8
:1010D600D8A03606000E426E1F0E416E000E0001AD
:1010E600F96FF2EF08F04106D8A04206DA0E412465
:1010F600D96E000E4220DA6E39C004F03AC005F00F
:101106003BC006F03CC007F03DC008F03EC009F009
:101116003FC00AF040C00BF00A0E0C6E000E0D6EBA
:10112600000E0E6E000E0F6E000E106E000E116E8B
:10113600000E126E000E136E10EC0BF004C029F0B8
:1011460005C02AF006C02BF007C02CF008C02DF011
:1011560009C02EF00AC02FF00BC030F029C016F0DF
:101166002BC017F07DEC0FF01650300FDF6E3306F4
:10117600D8A034063506D8A0360639C004F03AC0E1
:1011860005F03BC006F03CC007F03DC008F03EC08D
:1011960009F03FC00AF040C00BF00A0E0C6E000EBC
:1011A6000D6E000E0E6E000E0F6E000E106E000E0F
:1011B600116E000E126E000E136E4CEC0AF004C097
:1011C60039F005C03AF006C03BF007C03CF008C055
:1011D6003DF009C03EF00AC03FF00BC040F042BEF1
:1011E600FDEF08F0425008E14104D8A0FDEF08F0F9
:1011F600FFEF08F02FEF09F039503A103B103C1082
:101206003D103E103F104010D8A40CEF09F00EEF31
:1012160009F076EF08F034BE1BEF09F0345006E112
:101226003304D8B019EF09F01BEF09F076EF08F098
:1012360036BE26EF09F0365008E13504D8A026EF71
:1012460009F028EF09F02FEF09F06FB22DEF09F042
:101256002FEF09F076EF08F037503810D8A436EFA4
:1012660009F038EF09F03FEF09F06FA43DEF09F000
:101276003FEF09F05DEF09F04106D8A0420637506E
:101286003810D8A449EF09F04BEF09F051EF09F0F7
:10129600000E326E2B0E316E55EF09F0000E326ED7
:1012A6002D0E316EDA0E4124D96E000E4220DA6E12
:1012B60031C0DFFF1FC014F020C015F0DA0E412444
:1012C600166E000E4220176E35C018F036C019F0A3
:1012D6004CEC0DF014C01FF015C020F0120045C0F4
:1012E600D9FF46C0DAFFDECFF6FFDDCFF7FF0800F5
:1012F600F550250AD8A482EF09F084EF09F030EF03
:101306000AF045C0D9FF46C0DAFFDE2A000EDD220C
:10131600000E0001D56F000ED46FD4C06FF0D5C09B
:1013260070F06D686E6845C0D9FF46C0DAFFDECF43
:10133600F6FFDDCFF7FF0800F550640AD8B4A6EF34
:1013460009F0A8EF09F0BAEF09F045C0D9FF46C089
:10135600DAFFDECFF6FFDDCFF7FF0800F550690AAA
:10136600D8A4B8EF09F0BAEF09F0FAEF09F045C0D2
:10137600D9FF46C0DAFFDE2A000EDD2247C0D9FFBC
:1013860048C0DAFFDFCF49F0020EDE26DFCF4AF093
:10139600000EDD2249C0D9FF4AC0DAFFDECF4BF08E
:1013A600DDCF4CF0000E4CBEFF0E4D6E4E6E4F6EF6
:1013B600506E516E526E43C01FF044C020F04BC0B9
:1013C60021F04CC022F04DC023F04EC024F04FC097
:1013D60025F050C026F051C027F052C028F003EC8B
:1013E60008F01FC043F020C044F04BEF0AF045C0A0
:1013F600D9FF46C0DAFFDECFF6FFDDCFF7FF0800E4
:10140600F550250AD8A40AEF0AF00CEF0AF023EFEC
:101416000AF045C0D9FF46C0DAFFDE2A000EDD22FB
:10142600000E056E250E046E43C006F044C007F09C
:10143600E7EC0CF0000E446E010E436E4BEF0AF023
:1014460045C0D9FF46C0DAFFDE2A000EDD22000EB7
:10145600446E000E436E4BEF0AF045C0D9FF46C0FE
:10146600DAFFDECFF6FFDDCFF7FF0800F550046E9A
:10147600056A43C006F044C007F0E7EC0CF045C02F
:10148600D9FF46C0DAFFDE2A000EDD221DEF0AF084
:101496001200000E156E13BE55EF0AF053EF0AF058
:1014A60067EF0AF0131E121E111E101E0F1E0E1ECF
:1014B6000D1E0C6C000E0D220E220F221022112280
:1014C60012221322010E156E0BBE6EEF0AF06CEFA0
:1014D6000AF080EF0AF00B1E0A1E091E081E071EE0
:1014E600061E051E046C000E05220622072208228F
:1014F60009220A220B22010E151A20EE16F0070EFB
:10150600DE6AE806FDE20C500D100E100F101010EA
:10151600111012101310D8B493EF0AF095EF0AF0D9
:10152600E7EF0AF0010E146EA3EF0AF0D8900C361E
:101536000D360E360F361036113612361336142A7D
:1015460013AEA8EF0AF0AAEF0AF099EF0AF0D890C6
:1015560016361736183619361A361B361C361D3609
:101566000C50045C0D5005580E5006580F50075885
:10157600105008581150095812500A5813500B5859
:10158600D8A0C8EF0AF0CAEF0AF0DBEF0AF00C5059
:10159600045E0D50055A0E50065A0F50075A105049
:1015A600085A1150095A12500A5A13500B5A1680EB
:1015B600D89013321232113210320F320E320D32EF
:1015C6000C32142EAAEF0AF01550D8B4EDEF0AF03B
:1015D600EFEF0AF0FFEF0AF01D1E1C1E1B1E1A1E5F
:1015E600191E181E171E166C000E17221822192215
:1015F6001A221B221C221D2216C004F017C005F059
:1016060018C006F019C007F01AC008F01BC009F090
:101616001CC00AF01DC00BF01200000E156E0BBEAA
:1016260019EF0BF017EF0BF02BEF0BF00B1E0A1E4A
:10163600091E081E071E061E051E046C000E052246
:1016460006220722082209220A220B22010E156E03
:1016560013BE32EF0BF030EF0BF042EF0BF0131E20
:10166600121E111E101E0F1E0E1E0D1E0C6C000EDD
:101676000D220E220F2210221122122213220C50AA
:101686000D100E100F101010111012101310D8B4E8
:101696004FEF0BF051EF0BF099EF0BF0010E146EBC
:1016A6005FEF0BF0D8900C360D360E360F3610362F
:1016B600113612361336142A13AE64EF0BF066EFAA
:1016C6000BF055EF0BF00C50045C0D5005580E5006
:1016D60006580F5007581050085811500958125004
:1016E6000A5813500B58D8A07BEF0BF07DEF0BF088
:1016F6008DEF0BF00C50045E0D50055A0E50065A35
:101706000F50075A1050085A1150095A12500A5AC7
:1017160013500B5AD89013321232113210320F3244
:101726000E320D320C32142E66EF0BF01550D8B473
:101736009FEF0BF0A1EF0BF0B1EF0BF00B1E0A1EA3
:10174600091E081E071E061E051E046C000E052235
:1017560006220722082209220A220B2204C004F0CC
:1017660005C005F006C006F007C007F008C008F07F
:1017760009C009F00AC00AF00BC00BF01200010EF6
:101786000001FA6F8FEC0EF0B8EC0FF0010E756EDB
:10179600010E746E21EC0EF0010E756E010E746E64
:1017A60074C006F07550E7EC0DF0000E0201086FEC
:1017B600070E076F07C26BF081CF6CF06B2AE6EF5E
:1017C6000BF0D8906C326B2EE4EF0BF06CB0EEEFB2
:1017D6000BF0F0EF0BF0F7EF0BF0000E0201066FC7
:1017E600300E056FFCEF0BF0000E0201066F310E96
:1017F600056F0551D1EC0FF002010707D8A00807C5
:1018060008BF0AEF0CF008EF0CF0DDEF0BF0020E4C
:10181600746E010E756E74C006F07550E7EC0DF02F
:10182600000E5B6E020E5C6E010E5D6E100E5E6E3D
:1018360071C05FF072C060F0F3EC0EF0000E086E3F
:10184600020E096EADEC0DF0030E746E010E756E90
:1018560074C006F07550E7EC0DF0000E5B6E020EDC
:101866005C6E010E5D6E100E5E6ED8C05FF0D9C064
:1018760060F0F3EC0EF0000E086E020E096EADEC91
:101886000DF0040E746E010E756E74C006F0755080
:10189600E7EC0DF0000E5B6E020E5C6E010E5D6EE7
:1018A600100E5E6ED6C05FF0D7C060F0F3EC0EF09F
:1018B600000E086E020E096EADEC0DF0CFEF0BF0C8
:1018C60007EF00F0060081CF03F0F2A46DEF0CF0F5
:1018D6006FEF0CF073EF0CF0010E736ED59EF29461
:1018E600F2A278EF0CF07AEF0CF086EF0CF0735062
:1018F600D8B480EF0CF082EF0CF086EF0CF0714A52
:10190600722A02EC10F0F0A08BEF0CF08DEF0CF0C9
:101916009AEF0CF07350D8B493EF0CF095EF0CF0EF
:101926009AEF0CF00001D84BD92B02EC10F0F2A084
:101936009FEF0CF0A1EF0CF0E2EF0CF07350D8B46F
:10194600A7EF0CF0A9EF0CF0E2EF0CF003380F0B49
:10195600036EC0EF0CF00AEC10F0DDEF0CF012ECA9
:1019660010F0DDEF0CF00EEC10F0DDEF0CF015ECE6
:1019760010F0DDEF0CF0DDEF0CF00350016E026AA3
:101986000250000AD8B4CAEF0CF0BEEF0CF00150BA
:10199600070AD8B4BAEF0CF00C0AD8B4B6EF0CF0BC
:1019A600060AD8B4B2EF0CF0030AD8B4AEEF0CF0C6
:1019B600BEEF0CF00001D64BD72B02EC10F0F090E6
:1019C600F292F2907692110006500710D8B4EEEF1C
:1019D6000CF0F0EF0CF0F9EF0CF006500710D8A45D
:1019E600F7EF0CF0F9EF0CF0FEEF0CF0045019ECE9
:1019F60010F04BEF0DF020EE04F00650D9260750FC
:101A0600DA22DE50DE10D8B40BEF0DF00DEF0DF03C
:101A160028EF0DF020EE04F00650D9260750DA2202
:101A260010EE02F00650E1260750E222DE50E65C98
:101A3600E650800A0C6EDE50800A0C58D8B026EFAD
:101A46000DF028EF0DF04BEF0DF020EE02F00650F2
:101A5600D9260750DA22DECF08F0DDCF09F006C01E
:101A6600D9FF07C0DAFFDECF0AF0DDCF0BF0085052
:101A76000A24D96E09500B20DA6E04C0DFFF20EE6F
:101A860002F00650D9260750DA22DE2A000EDD22A1
:101A960012006FA051EF0DF053EF0DF05DEF0DF05A
:101AA60016C00DF017C00EF014C00FF015C010F0E0
:101AB6001AEC0FF019BE62EF0DF064EF0DF06AEF4D
:101AC6000DF018C01DF019C01EF06EEF0DF0000EDF
:101AD6001E6E000E1D6E000E1C6E000E1B6E80EF3D
:101AE6000DF0000E056E200E046E14C006F015C033
:101AF60007F0E7EC0CF01B4A1C2A1D501B5C1C501F
:101B0600800A1A6E1E50800A1A58D8A08DEF0DF062
:101B16008FEF0DF074EF0DF06FB094EF0DF096EFC0
:101B26000DF0A0EF0DF016C00DF017C00EF014C0AA
:101B36000FF015C010F01AEC0FF016C004F017C025
:101B460005F09DEC0FF01D500424146E1E50052068
:101B5600156E1200000E0A6ED8EF0DF00A5008241A
:101B6600D96E000E0920DA6EDF50D1EC0FF0752A1F
:101B7600110E7518D8A4C2EF0DF0C4EF0DF0D7EF13
:101B86000DF0010E756E742A050E7418D8A4CEEFEA
:101B96000DF0D0EF0DF0D2EF0DF0010E746E74C0A3
:101BA60006F07550E7EC0DF00A2A0A500824D96EA3
:101BB600000E0920DA6EDF50D8A4E4EF0DF0E6EF50
:101BC6000DF0B1EF0DF01200076E0604D8A4EEEF8B
:101BD6000DF0F0EF0DF0F7EF0DF007040F0B800F8F
:101BE600EAEC0FF01CEF0EF0020E0618D8A4FEEF7A
:101BF6000DF000EF0EF007EF0EF007040F0BC00F0D
:101C0600EAEC0FF01CEF0EF0030E0618D8A40EEF48
:101C16000EF010EF0EF017EF0EF007040F0B900FFB
:101C2600EAEC0FF01CEF0EF007040F0BD00FEAECF6
:101C36000FF007C075F006C074F01200B80E086EFB
:101C4600000E096E000E3CEC0FF0B00E086E000E92
:101C5600096E010E3CEC0FF0A80E086E000E096E20
:101C6600020E3CEC0FF0A00E086E000E096E030E7D
:101C76003CEC0FF0980E086E000E096E040E3CEC5C
:101C86000FF0900E086E000E096E050E3CEC0FF07C
:101C9600880E086E000E096E060E3CEC0FF0800EE4
:101CA600086E000E096E070E3CEC0FF01200BA0E1D
:101CB600F66E1E0EF76E000EF86E00EE80F010EE59
:101CC60040F00900F5CFEEFFE550E150FAE1300EA5
:101CD600F66E200EF76E000EF86E0900F5CF74F062
:101CE6000900F5CF75F001EE00F0FC0EEE6AE8068D
:101CF600FDE100EEC0F03A0EEE6AE806FDE100EE08
:101D06006DF0070EEE6AE806FDE176907692000E1B
:101D1600F86E0001C2EF0BF0000E0001D76F000E47
:101D2600D66FD6C0D8F0D7C0D9F0D8C071F0D9C018
:101D360072F0070EC16EF19E000E816E810EB16EBD
:101D46009368000E926E000E956E130ED56E000E01
:101D5600736E000ED66EFB0ED76ED58EF28CF288A1
:101D6600F286F28AF086F19CF19AF290F292F09065
:101D7600F296F28E81CF81FFF290F286120055C064
:101D860059F056C05AF0000E0001D36F000ED26F04
:101D9600E0EF0EF053C043F054C044F0590E456EC8
:101DA600000E466E57C047F058C048F072EC09F076
:101DB60043500001D2274450D32359C0F6FF5AC0DE
:101DC600F7FF0800F5500009D8A4ECEF0EF0EEEF8F
:101DD6000EF0CDEF0EF0D2C053F0D3C054F0120087
:101DE6005F0E636E000E646E5BC065F05CC066F0ED
:101DF600000E686E000E676E000E6A6E000E696E4B
:101E0600650E536E000E546E5DC055F05EC056F002
:101E1600630E576E000E586EC2EC0EF067505B24D0
:101E2600D96E68505C20DA6E000EDF6E1200000E6E
:101E3600136E000E126E2BEF0FF011C004F0056A40
:101E46000FC006F010C007F0E7EC0CF0124A132A98
:101E560012500D24D96E13500E20DA6EDF50116E1B
:101E66001150D8A439EF0FF03BEF0FF020EF0FF031
:101E760012000A6E0A50080DF350400FEAEC0FF0FC
:101E8600000E0B6E0B500824D96E000E0920DA6E78
:101E9600DF50D1EC0FF00B2A070E0B6455EF0FF055
:101EA60057EF0FF045EF0FF074C006F07550E7ECF2
:101EB6000DF012000E1111110E0000000E1F1F1F53
:101EC6000E0000001F150A040E1F0A1F1F150A0424
:101ED60004040A1F11150A040E1F0A1F11150A040D
:101EE60004040A1F11150A040E1F0A0A11150A0412
:101EF60004040A0A17BE8AEF0FF0175006E116040B
:101F0600D8B088EF0FF08AEF0FF098EF0FF016C0F9
:101F160018F017C019F0181E191E184A192A18C0E9
:101F260016F019C017F09CEF0FF016C016F017C088
:101F360017F0120004C006F005C007F0A5EF0FF079
:101F4600044A052A04C0D9FF05C0DAFFDF50D8A429
:101F5600AFEF0FF0B1EF0FF0A3EF0FF00650045CF8
:101F6600046E07500558056E120096929694000E60
:101F7600956E84928494380EEAEC0FF0080EEAEC23
:101F86000FF00C0EEAEC0FF0060EEAEC0FF0010E65
:101F9600EAEC0FF0800EEAEC0FF01200056E849268
:101FA600848405C083FF8482070E046E7D0EE82EAE
:101FB600FED7042EFCD700F08492070E046E7D0E29
:101FC600E82EFED7042EFCD700F084941200056E8E
:101FD6008492849405C083FF8482070E046E7D0E6E
:101FE600E82EFED7042EFCD700F08492070E046E6E
:101FF6007D0EE82EFED7042EFCD700F01200000E50
:10200600736E000ED66E000ED76ED58E12000001CE
:10201600D84BD92B12000001D84BD92B1200714A8C
:0E202600722A1200714A722A12000101120081
:020000040020DA
:08000000FFFFFFFFFFFFFFFF00
:020000040030CA
:0E000000FF071F1FFF8385FF0FC00FE00F409B
:00000001FF
