:020000040000FA
:0400000061EF00F0BC
:06000800688273ED0BF0AD
:100018006880D8CFE5F0E8CFE6F0E0CFE7F0D9CFB9
:10002800E8F0DACFE9F09E929D9283CFEAF080CF94
:10003800EBF0080E896E520E4624D96E000E47204A
:10004800DA6EDF508C6E0D0E0001E46FFB0EE82EA9
:10005800FED7E42FFCD700D0100E896E5CC08CFF51
:100068000D0E0001E46FFB0EE82EFED7E42FFCD73F
:1000780000D0200E896E520E4424D96E000E452001
:10008800DA6EDF508C6E0D0E0001E46FFB0EE82E69
:10009800FED7E42FFCD700D0EBC089FFEAC08CFF65
:1000A8009D82E9C0DAFFE8C0D9FFE7C0E0FFE6C0FB
:0E00B800E8FFE5C0D8FF689010001BEF17F0BE
:05100000002564000062
:10100600000E0101C76F000EC66F000EC96F000EFD
:10101600C86FC6C1BCF1C7C1BDF1050ED890BC37BB
:10102600BD37E82E11EF08F0000EBE6F010EBF6F40
:10103600BC51BE27BD51BF23D890C835D96EC9351E
:10104600DA6EBE51D926BF51DA22000EDE6E000ED0
:10105600DD6EC84BC92BC9BF3AEF08F0C95109E18B
:10106600100EC85DD8A03AEF08F03CEF08F00CEF80
:1010760008F0C64BC72BC7BF4AEF08F0C75109E1B6
:10108600040EC65DD8A04AEF08F04CEF08F008EF52
:1010960008F0000ECB6F050ECA6FCAC1ECF0CBC1CB
:1010A600EDF0000E0001EF6F070EEE6F49EC18F041
:1010B600BE0E0001EC25D96E000EED21DA6EDF5072
:1010C600D8B468EF08F06AEF08F0D1EF08F0CAC1AB
:1010D600ECF0CBC1EDF0000EEF6F070EEE6F49ECB2
:1010E60018F0BA0E0101BC6F000EBD6F0001EC5185
:1010F6000101BC270001ED510101BD23CAC1ECF07D
:10110600CBC1EDF0000E0001EF6F070EEE6F49EC5C
:1011160018F0BB0E0001EC25D96E000EED21DA6E3B
:10112600DF500101BE6FBF6B050ED890BE37BF37CB
:10113600E82E98EF08F0CAC1ECF0CBC1EDF0000E36
:101146000001EF6F070EEE6F49EC18F0BA0E0001C2
:10115600EC25D96E000EED21DA6EDF500101C06F6D
:10116600C16BD890C037C137DE0EC26FFF0EC36F9A
:10117600000EC46F010EC56FC251C427C351C523EB
:10118600C051C427C151C523BE51C425D96EBF5114
:10119600C521DA6EBCC1DEFFBDC1DDFF0101CA0794
:1011A600D8A0CB07CBBFDCEF08F0DAEF08F050EFA2
:1011B60008F0000ECD6F000ECC6FCCC1ECF0CDC1A7
:1011C600EDF0000E0001EF6F070EEE6F49EC18F020
:1011D600BC0E0001EC25D96E000EED21DA6EDF5053
:1011E600D8A4F8EF08F0FAEF08F013EF09F0CCC135
:1011F600ECF0CDC1EDF0000EEF6F070EEE6F49EC8F
:1012060018F0BD0E0001EC25D96E000EED21DA6E48
:10121600DF50D8B411EF09F013EF09F098EF09F099
:10122600CCC1ECF0CDC1EDF0000EEF6F070EEE6F06
:1012360049EC18F0BD0E0001EC25D96E000EED212B
:10124600DA6EDF500101BC6FBD6B050ED890BC375E
:10125600BD37E82E29EF09F0CCC1ECF0CDC1EDF099
:10126600000E0001EF6F070EEE6F49EC18F0BC0E92
:101276000001EC25D96E000EED21DA6EDF5001017A
:10128600BE6FBF6BD890BE37BF37DE0EC06FFF0E86
:10129600C16F000EC26F010EC36FC051C227C1518C
:1012A600C323BE51C227BF51C323BC51C225D96E29
:1012B600BD51C321DA6EDE50DE10D8B465EF09F0F9
:1012C60067EF09F069EF09F098EF09F0CCC1ECF08F
:1012D600CDC1EDF0000E0001EF6F070EEE6F49EC89
:1012E60018F0BC0E0001EC25D96E000EED21DA6E69
:1012F600DF50816FCCC1ECF0CDC1EDF0000EEF6F89
:10130600070EEE6F49EC18F0BD0E0001EC25D96E04
:10131600000EED21DA6EDF50806F80C0EEF0815155
:10132600DFEC16F0200EFDEC17F00101CC4BCD2BB7
:10133600CDBFA7EF09F0CD5109E1060ECC5DD8A0CF
:10134600A7EF09F0A9EF09F0E0EF08F0000ECF6F64
:10135600000ECE6FCEC1ECF0CFC1EDF0000E000155
:10136600EF6F070EEE6F49EC18F0BA0E0001EC2590
:10137600D96E000EED21DA6EDF50816FCEC1ECF032
:10138600CFC1EDF0000EEF6F070EEE6F49EC18F0CF
:10139600BB0E0001EC25D96E000EED21DA6EDF5092
:1013A600806FCEC1ECF0CFC1EDF0000EEF6F070EEF
:1013B600EE6F49EC18F0BF0E0001EC25D96E000E59
:1013C600ED21DA6E030EDE18D8B4ECEF09F0EEEF7D
:1013D60009F008EF0AF0CEC1ECF0CFC1EDF0000E37
:1013E600EF6F070EEE6F49EC18F0BF0E0001EC250B
:1013F600D96E000EED21DA6E020EDE18D8A406EFC5
:101406000AF008EF0AF07BEF0AF080510101BC6F89
:10141600BD6B050ED890BC37BD37E82E0DEF0AF030
:10142600000181510101BE6FBF6BD890BE37BF3737
:10143600DE0EC06FFF0EC16F000EC26F010EC36FCE
:10144600C051C227C151C323BE51C227BF51C323B6
:10145600BC51C225D96EBD51C321DA6E10EE05F01E
:10146600DE50E126DD50E222E750D8A43DEF0AF037
:101476003FEF0AF041EF0AF061EF0BF000018051F7
:101486000101BC6FBD6B050ED890BC37BD37E82E89
:1014960047EF0AF0000181510101BE6FBF6BD89082
:1014A600BE37BF37DE0EC06FFF0EC16F000EC26FB4
:1014B600010EC36FC051C227C151C323BE51C227FB
:1014C600BF51C323BC51C225D96EBD51C321DA6EAB
:1014D60010EE05F0DE50E126DD50E222E604D8A447
:1014E60077EF0AF079EF0AF07BEF0AF061EF0BF085
:1014F60000018151D8B482EF0AF084EF0AF061EF5F
:101506000BF08051D8A48AEF0AF08CEF0AF08EEF28
:101516000AF061EF0BF080C0EEF08151DFEC16F0BF
:10152600CEC1ECF0CFC1EDF0000E0001EF6F070E5B
:10153600EE6F49EC18F0BE0E0001EC25D96E000ED8
:10154600ED21DA6EDF50D8A4ABEF0AF0ADEF0AF06A
:1015560032EF0BF0200EFDEC17F061EF0BF0060EEC
:10156600FDEC17F061EF0BF0070EFDEC17F061EFE5
:101576000BF0000EFDEC17F061EF0BF0020EFDEC28
:1015860017F061EF0BF0040EFDEC17F061EF0BF0B6
:10159600CEC1ECF0CFC1EDF0000E0001EF6F070EEB
:1015A600EE6F49EC18F0C00E0001EC25D96E000E66
:1015B600ED21DA6EDF500101BC6FBD6BBD51000A33
:1015C600D8B4E8EF0AF061EF0BF0BC51000AD8B4CA
:1015D600BCEF0AF0010AD8B4C1EF0AF0030AD8B486
:1015E600C6EF0AF061EF0BF0010EFDEC17F061EFAC
:1015F6000BF0030EFDEC17F061EF0BF0050EFDECA2
:1016060017F061EF0BF0CEC1ECF0CFC1EDF0000E9C
:101616000001EF6F070EEE6F49EC18F0C00E0001E7
:10162600EC25D96E000EED21DA6EDF500101BC6F9C
:10163600BD6BBD51000AD8B423EF0BF061EF0BF080
:10164600BC51000AD8B4F7EF0AF0010AD8B4FCEF8F
:101656000AF0030AD8B401EF0BF061EF0BF0CEC12C
:10166600ECF0CFC1EDF0000EEF6F070EEE6F49EC18
:1016760018F0BF0E0001EC25D96E000EED21DA6ED2
:10168600DF500101BC6FBD6BBD51000AD8B44EEFEF
:101696000BF061EF0BF0BC51000AD8B4CBEF0AF0A7
:1016A600010AD8B406EF0BF0030AD8B4B2EF0AF079
:1016B600010AD8B4B7EF0AF061EF0BF00101CE4B87
:1016C600CF2BCFBF70EF0BF0CF5109E1060ECE5DE9
:1016D600D8A070EF0BF072EF0BF0ADEF09F012002F
:1016E6000600E1CF36F0E2CF37F0D9CF38F0DACFC7
:1016F60039F0F3CF3AF0F4CF3BF081CF50F0F2A4BB
:1017060087EF0BF089EF0BF08DEF0BF0010E516EAA
:10171600D59EF2949EA092EF0BF094EF0BF063EF40
:101726000CF09E90CD90ED0ECE6E850ECF6ECD80D8
:10173600404A412A030E0001E319D8A4A5EF0BF095
:10174600A7EF0BF0C1EF0BF040B0ACEF0BF0AEEF34
:101756000BF0C1EF0BF05F50D8A4B4EF0BF0B6EF6F
:101766000BF0C1EF0BF0DA05D8A4BCEF0BF0BFEF1E
:101776000BF0010EC0EF0BF0000EDA6F5D50401853
:1017860007E15E504118D8A4CBEF0BF0CDEF0BF07C
:1017960063EF0CF05F50D8A4D3EF0BF0D5EF0BF04E
:1017A60063EF0CF0000E416E000E406E030EE3195F
:1017B600D8A4E0EF0BF0E2EF0BF063EF0CF03C4A3D
:1017C6003D2ADDC0DFF0DEC0E0F0800E2E6E010E99
:1017D6002F6ED8903C34D96E3D34DA6ED890D93617
:1017E600DA362E50D9262F50DA22DF50DD6F800EE2
:1017F6002E6E010E2F6E020E2E26000E2F22D89070
:101806003C34D96E3D34DA6ED890D936DA362E505D
:10181600D9262F50DA22DF50DE6F6DEC15F000016D
:10182600D651DD19D8A41AEF0CF01CEF0CF063EFBB
:101836000CF0D751DE19D8A423EF0CF025EF0CF0ED
:1018460063EF0CF0040EE36F000EDA6FD7512E6EC5
:101856002F6A050ED8902E362F36E82E2DEF0CF077
:10186600D651306E316AD89030363136DE0E326E51
:10187600FF0E336E000E346E010E356E3250342676
:101886003350352230503426315035222E503424F0
:10189600D96E2F503520DA6EDD0EDE6E000EDD6E4F
:1018A600000ED96FD9C0D8F0D8C0D7F0D7C0D6F0BF
:1018B600010E5F6E000E3D6E000E3C6E63EF0CF087
:1018C600F2A268EF0CF06AEF0CF025EF0DF0515024
:1018D600D8B470EF0CF072EF0CF006EF0EF04E4A33
:1018E6004F2A89EC18F048C001F049C002F0000EFA
:1018F600046E070E036E5DEC18F0C00E0124D96E5F
:10190600000E0220DA6E020EDE18D8A48DEF0CF05F
:101916008FEF0CF006EF0EF048C001F049C002F060
:10192600000E046E070E036E5DEC18F0BA0E01246D
:10193600D96E000E0220DA6EDF502E6E2E500E6E1D
:101946000F6A48C001F049C002F0000E046E070E8F
:10195600036E5DEC18F0BB0E0124D96E000E02205A
:10196600DA6EDF502F6E2F50106E116A17EC0EF0E4
:101976000EC03EF00FC03FF0010E0001DA6FFC0E04
:101986002E6EFF0E2F6E800E306E010E316E2E50B3
:1019960030262F503122D8903E34D96E3F34DA6E3D
:1019A600D890D936DA363050D9263150DA22DF507F
:1019B600D66FFE0E2E6EFF0E2F6E800E306E010E4F
:1019C600316E2E5030262F503122D8903E34D96EAB
:1019D6003F34DA6ED890D936DA363050D9263150BF
:1019E600DA22DF50D76F000ED96FD9C0D8F080C188
:1019F600DDF082C1DEF0000EE06FE0C0DFF0010E28
:101A0600E16F030EE36F48C001F049C002F0000E1B
:101A1600046E070E036E5DEC18F0C00E0124D96E3D
:101A2600000E0220DA6E010EDF6E6DEC15F0000E70
:101A36005F6E9E90CD90ED0ECE6E850ECF6ECD80F4
:101A460006EF0EF0F0A02AEF0DF02CEF0DF07DEF73
:101A56000DF05150D8B432EF0DF034EF0DF006EF23
:101A66000EF04C4A4D2A48C001F049C002F0000E63
:101A7600046E070E036E5DEC18F0C00E0124D96EDD
:101A8600000E0220DA6E020EDE18D8B44DEF0DF00D
:101A96004FEF0DF079EF0DF048C001F049C002F0AC
:101AA600000E046E070E036E5DEC18F0C00E0124E6
:101AB600D96E000E0220DA6E000EDF6E484A492A01
:101AC600030E4814486E496A48C001F049C002F046
:101AD600000E046E070E036E5DEC18F0C00E0124B6
:101AE600D96E000E0220DA6E010EDF6E89EC18F058
:101AF60006EF0EF0F2A082EF0DF084EF0DF006EF88
:101B06000EF05150D8B48AEF0DF08CEF0DF006EFC1
:101B16000EF050380F0B506EE5EF0DF048C001F097
:101B260049C002F0000E046E070E036E5DEC18F05D
:101B3600BA0E01240B6E000E02200C6EC3EC0FF0E1
:101B460002EF0EF048C001F049C002F0000E046E2C
:101B5600070E036E5DEC18F0BA0E01240B6E000E34
:101B660002200C6E1FEC12F002EF0EF048C001F0DE
:101B760049C002F0000E046E070E036E5DEC18F00D
:101B8600BA0E01240B6E000E02200C6E44EC13F00C
:101B960002EF0EF048C001F049C002F0000E046EDC
:101BA600070E036E5DEC18F0BA0E01240B6E000EE4
:101BB60002200C6EF3EC10F002EF0EF0000E506EE9
:101BC60002EF0EF050502E6E2F6A2F50000AD8B436
:101BD600EFEF0DF0E1EF0DF02E50070AD8B4CDEF80
:101BE6000DF00C0AD8B4B9EF0DF0060AD8B4A5EF7B
:101BF6000DF0030AD8B491EF0DF0E1EF0DF04A4A6B
:101C06004B2A79EF0DF0F090F292F2903BC0F4FF80
:101C16003AC0F3FF39C0DAFF38C0D9FF37C0E2FF58
:101C260036C0E1FF68921100000E076E100E066EB8
:101C360054EC17F0010E0624226E000E0720236EC8
:101C4600000E076E040E066E54EC17F0010E062405
:101C5600246E000E0720256E0E50225C0F5023586E
:101C6600D8B038EF0EF03AEF0EF042EF0EF02250F9
:101C76000E5C2A6E23500F582B6E48EF0EF00E5056
:101C8600225C2A6E0F5023582B6E1050245C115084
:101C96002558D8B051EF0EF053EF0EF05BEF0EF073
:101CA6002450105C2C6E255011582D6E61EF0EF0ED
:101CB6001050245C2C6E115025582D6E2B5007E1C8
:101CC600030E2A5CD8B06AEF0EF06CEF0EF079EFD7
:101CD6000EF02D5007E1030E2C5CD8B075EF0EF018
:101CE60077EF0EF079EF0EF017EF0EF02A502C5C1E
:101CF6002B502D58D8B082EF0EF084EF0EF08AEFFD
:101D06000EF02AC020F02BC021F08EEF0EF02CC072
:101D160020F02DC021F00EC026F00FC027F00E5087
:101D2600225C0F502358D8B09BEF0EF09DEF0EF0BB
:101D3600CCEF0EF0000E156E000E146EBFEF0EF017
:101D4600FF0E2624266EFF0E2720276E800E126EAB
:101D5600010E136ED8901434D96E1534DA6ED890FD
:101D6600D936DA361250D9261350DA2226C0DEFFCB
:101D760027C0DDFF144A152A2A50145C2B5015582B
:101D8600D8A0C8EF0EF0CAEF0EF0A3EF0EF0F9EFF1
:101D96000EF0000E176E000E166EEEEF0EF0010E30
:101DA6002624266E000E2720276E800E126E010E48
:101DB600136ED8901634D96E1734DA6ED890D93699
:101DC600DA361250D9261350DA2226C0DEFF27C093
:101DD600DDFF164A172A2A50165C2B501758D8A032
:101DE600F7EF0EF0F9EF0EF0D2EF0EF02AC018F072
:101DF6002BC019F015EF0FF0800E126E010E136E48
:101E0600D8901834D96E1934DA6ED890D936DA36B5
:101E16001250D9261350DA2226C0DEFF27C0DDFF76
:101E2600184A192A2050185C21501958D8A01EEFBC
:101E36000FF020EF0FF0FFEF0EF010C028F011C0EA
:101E460029F01050245C11502558D8B02DEF0FF012
:101E56002FEF0FF062EF0FF0000E1B6E000E1A6EE2
:101E660055EF0FF0FF0E2824286EFF0E2920296E4D
:101E7600800E126E010E136E020E1226000E132233
:101E8600D8901A34D96E1B34DA6ED890D936DA3631
:101E96001250D9261350DA2228C0DEFF29C0DDFFF2
:101EA6001A4A1B2A2C501A5C2D501B58D8A05EEFDC
:101EB6000FF060EF0FF035EF0FF093EF0FF0000E1D
:101EC6001D6E000E1C6E88EF0FF0010E2824286E82
:101ED600000E2920296E800E126E010E136E020E60
:101EE6001226000E1322D8901C34D96E1D34DA6ED9
:101EF600D890D936DA361250D9261350DA2228C0AD
:101F0600DEFF29C0DDFF1C4A1D2A2C501C5C2D500B
:101F16001D58D8A091EF0FF093EF0FF068EF0FF078
:101F26002CC01EF02DC01FF0B3EF0FF0800E126E06
:101F3600010E136E020E1226000E1322D8901E34C6
:101F4600D96E1F34DA6ED890D936DA361250D926C1
:101F56001350DA2228C0DEFF29C0DDFF1E4A1F2AE1
:101F660020501E5C21501F58D8A0BCEF0FF0BEEFCA
:101F76000FF099EF0FF020C00EF021C00FF0120005
:101F860020EE01F00B50D9260C50DA22DE04D8A43C
:101F9600CFEF0FF0D1EF0FF0D3EF0FF0F2EF10F01D
:101FA60020EE01F00B50D9260C50DA22DF500D6ED0
:101FB6000E6A050ED8900D360E36E82EDDEF0FF0C0
:101FC6000BC0D9FF0CC0DAFFDF500F6E106AD89035
:101FD6000F361036BE0E116EFF0E126E000E136E09
:101FE600010E146E11501326125014220F50132690
:101FF600105014220D501324D96E0E501420DA6E90
:10200600DE50DE10D8B40AEF10F00CEF10F0D1EF6E
:1020160010F020EE01F00B50D9260C50DA22DF50DA
:102026000D6E0E6A050ED8900D360E36E82E16EF9A
:1020360010F00BC0D9FF0CC0DAFFDF500F6E106A2C
:10204600D8900F361036BE0E116EFF0E126E000EB1
:10205600136E010E146E11501326125014220F50D7
:102066001326105014220D501324D96E0E5014202E
:10207600DA6E10EE05F0DE50E126DD50E222E75082
:10208600D8A448EF10F04AEF10F04CEF10F0F2EF42
:1020960010F020EE01F00B50D9260C50DA22DF505A
:1020A6000D6E0E6A050ED8900D360E36E82E56EFDA
:1020B60010F00BC0D9FF0CC0DAFFDF500F6E106AAC
:1020C600D8900F361036BE0E116EFF0E126E000E31
:1020D600136E010E146E11501326125014220F5057
:1020E6001326105014220D501324D96E0E501420AE
:1020F600DA6E10EE05F0DE50E126DD50E222E6044F
:10210600D8A488EF10F08AEF10F08CEF10F0F2EF01
:1021160010F020EE01F00B50D9260C50DA22DF50D9
:102126000D6E0E6A050ED8900D360E36E82E96EF19
:1021360010F00BC0D9FF0CC0DAFFDF500F6E106A2B
:10214600D8900F361036BE0E116EFF0E126E000EB0
:10215600136E010E146E11501326125014220F50D6
:102166001326105014220D501324D96E0E5014202D
:10217600DA6E10EE05F0DE50E126DD50E222020EA8
:10218600E618D8A4C9EF10F0CBEF10F0D1EF10F09D
:102196000BC001F00CC002F013EC16F00BC0D9FF17
:1021A6000CC0DAFF10EE02F00B50E1260C50E222D2
:1021B600DFCFE7FF20EE01F00B50D9260C50DA22D4
:1021C60010EE03F00B50E1260C50E222DFCFE7FFC2
:1021D60020EE01F00B50D9260C50DA22DF06120051
:1021E6000BC0D9FF0CC0DAFFDE04D8A4FDEF10F057
:1021F600FFEF10F001EF11F01EEF12F020EE01F0EC
:102206000B50D9260C50DA22DF500D6E0E6A050EE1
:10221600D8900D360E36E82E0BEF11F00BC0D9FF15
:102226000CC0DAFFDF500F6E106AD8900F361036EA
:10223600DC0E116EFF0E126E000E136E010E146E82
:1022460011501326125014220F5013261050142228
:102256000D501324D96E0E501420DA6EDE50DE10A7
:10226600D8B438EF11F03AEF11F0FFEF11F020EE8D
:1022760001F00B50D9260C50DA22DF500D6E0E6A93
:10228600050ED8900D360E36E82E44EF11F00BC031
:10229600D9FF0CC0DAFFDF500F6E106AD8900F36E8
:1022A6001036DC0E116EFF0E126E000E136E010E4E
:1022B600146E11501326125014220F50132610506C
:1022C60014220D501324D96E0E501420DA6E10EE1F
:1022D60005F0DE50E126DD50E222E750D8A476EF85
:1022E60011F078EF11F07AEF11F01EEF12F020EEF8
:1022F60001F00B50D9260C50DA22DF500D6E0E6A13
:10230600050ED8900D360E36E82E84EF11F00BC070
:10231600D9FF0CC0DAFFDF500F6E106AD8900F3667
:102326001036DC0E116EFF0E126E000E136E010ECD
:10233600146E11501326125014220F5013261050EB
:1023460014220D501324D96E0E501420DA6E10EE9E
:1023560005F0DE50E126DD50E222E604D8A4B6EF11
:1023660011F0B8EF11F0BAEF11F01EEF12F020EEF7
:1023760001F00B50D9260C50DA22DF500D6E0E6A92
:10238600050ED8900D360E36E82EC4EF11F00BC0B0
:10239600D9FF0CC0DAFFDF500F6E106AD8900F36E7
:1023A6001036DC0E116EFF0E126E000E136E010E4D
:1023B600146E11501326125014220F50132610506B
:1023C60014220D501324D96E0E501420DA6E10EE1E
:1023D60005F0DE50E126DD50E222020EE618D8A412
:1023E600F7EF11F0F9EF11F0FFEF11F00BC001F06C
:1023F6000CC002F013EC16F00BC0D9FF0CC0DAFFCC
:1024060010EE02F00B50E1260C50E222DFCFE7FF80
:1024160020EE01F00B50D9260C50DA2210EE03F014
:102426000B50E1260C50E222DFCFE7FF0BC0D9FFAD
:102436000CC0DAFFDF0612000BC0D9FF0CC0DAFFB2
:10244600100EDE18D8A42AEF12F02CEF12F02EEFA1
:1024560012F043EF13F020EE01F00B50D9260C508A
:10246600DA22DF500D6E0E6A050ED8900D360E3646
:10247600E82E38EF12F00BC0D9FF0CC0DAFFDF50A0
:102486000F6E0F50020DE00E106EFF0E116E000E55
:10249600126E010E136E1050122611501322F350B5
:1024A6001226F45013220D501224D96E0E5013200A
:1024B600DA6EDE50DE10D8B463EF12F065EF12F07C
:1024C60024EF13F020EE01F00B50D9260C50DA223F
:1024D600DF500D6E0E6A050ED8900D360E36E82EBC
:1024E6006FEF12F00BC0D9FF0CC0DAFFDF500F6E92
:1024F6000F50020DE00E106EFF0E116E000E126EE2
:10250600010E136E1050122611501322F35012268C
:10251600F45013220D501224D96E0E501320DA6E89
:1025260010EE05F0DE50E126DD50E222E750D8A499
:102536009FEF12F0A1EF12F0A3EF12F043EF13F0AA
:1025460020EE01F00B50D9260C50DA22DF500D6E2A
:102556000E6A050ED8900D360E36E82EADEF12F047
:102566000BC0D9FF0CC0DAFFDF500F6E0F50020D03
:10257600E00E106EFF0E116E000E126E010E136E3F
:102586001050122611501322F3501226F450132223
:102596000D501224D96E0E501320DA6E10EE05F08F
:1025A600DE50E126DD50E222E604D8A4DDEF12F08B
:1025B600DFEF12F0E1EF12F043EF13F020EE01F03F
:1025C6000B50D9260C50DA22DF500D6E0E6A050E1E
:1025D600D8900D360E36E82EEBEF12F00BC0D9FF71
:1025E6000CC0DAFFDF500F6E0F50020DE00E106EBA
:1025F600FF0E116E000E126E010E136E1050122693
:1026060011501322F3501226F45013220D501224A7
:10261600D96E0E501320DA6E10EE05F0DE50E1266C
:10262600DD50E222020EE618D8A41CEF13F01EEFCE
:1026360013F024EF13F00BC001F00CC002F013EC02
:1026460016F00BC0D9FF0CC0DAFF10EE02F00B50EB
:10265600E1260C50E222DFCFE7FF20EE01F00B501F
:10266600D9260C50DA2210EE03F00B50E1260C505E
:10267600E222DFCFE7FF0BC0D9FF0CC0DAFFDF2A6B
:10268600120020EE01F00B50D9260C50DA22040E6F
:10269600DE18D8A451EF13F053EF13F055EF13F0F3
:1026A6005CEF14F00BC0D9FF0CC0DAFFDF500D6EE3
:1026B6000E6AD8900D360E3620EE01F00B50D92654
:1026C6000C50DA22DF500F6E0F50200DFE0E106EEA
:1026D600FF0E116E000E126E010E136E10501226B2
:1026E60011501322F3501226F45013220D501224C7
:1026F600D96E0E501320DA6EDE50DE10D8B486EF97
:1027060013F088EF13F03BEF14F00BC0D9FF0CC0A9
:10271600DAFFDF500D6E0E6AD8900D360E3620EEBB
:1027260001F00B50D9260C50DA22DF500F6E0F50F5
:10273600200DFE0E106EFF0E116E000E126E010EB3
:10274600136E1050122611501322F3501226F45015
:1027560013220D501224D96E0E501320DA6E10EE8D
:1027660005F0DE50E126DD50E222E750D8A4BEEFA8
:1027760013F0C0EF13F0C2EF13F05CEF14F00BC0D0
:10278600D9FF0CC0DAFFDF500D6E0E6AD8900D36F9
:102796000E3620EE01F00B50D9260C50DA22DF500F
:1027A6000F6E0F50200DFE0E106EFF0E116E000EF6
:1027B600126E010E136E1050122611501322F35092
:1027C6001226F45013220D501224D96E0E501320E7
:1027D600DA6E10EE05F0DE50E126DD50E222E60468
:1027E600D8A4F8EF13F0FAEF13F0FCEF13F05CEF58
:1027F60014F00BC0D9FF0CC0DAFFDF500D6E0E6A65
:10280600D8900D360E3620EE01F00B50D9260C501E
:10281600DA22DF500F6E0F50200DFE0E106EFF0EE7
:10282600116E000E126E010E136E1050122611500C
:102836001322F3501226F45013220D501224D96E8F
:102846000E501320DA6E10EE05F0DE50E126DD5054
:10285600E222020EE618D8A433EF14F035EF14F096
:102866003BEF14F00BC001F00CC002F013EC16F0B5
:102876000BC0D9FF0CC0DAFF10EE02F00B50E126B8
:102886000C50E222DFCFE7FF20EE01F00B50D926F5
:102896000C50DA2210EE03F00B50E1260C50E22227
:1028A600DFCFE7FF20EE01F00B50D9260C50DA22DD
:1028B600DF2A1200000E0001F36F000EF26F000E09
:1028C600F56F000EF46FF2C0BCF1F3C0BDF1050E5A
:1028D600D8900101BC37BD37E82E6BEF14F0000E1F
:1028E600BE6F010EBF6FBC51BE27BD51BF23D8902E
:1028F6000001F435D96EF535DA6E0101BE51D926DF
:10290600BF51DA22000EDE6E000EDD6E0001F44BC2
:10291600F52BF5BF98EF14F0F55109E1100EF45DB3
:10292600D8A098EF14F09AEF14F066EF14F0F24B7B
:10293600F32BF3BFA8EF14F0F35109E1040EF25D97
:10294600D8A0A8EF14F0AAEF14F062EF14F0000E6E
:10295600496E000E486E030EBA6F020EBB6F000E74
:10296600BC6F000EBD6F000EBF6F010EC06F010E73
:10297600BE6F030EC16F030EC26F000EC36F000E53
:10298600C46F000EC66F000EC76F010EC56F0E0E28
:10299600C86F020EC96F000ECA6F000ECB6F010E14
:1029A600CD6F000ECE6F010ECC6F0E0ECF6F030EE5
:1029B600D06F000ED16F000ED26F010ED46F000ED5
:1029C600D56F010ED36F090EDD6F020EDE6F000E9E
:1029D600DF6F000EE06F020EE26F040EE36F010E72
:1029E600E16F010ED66F010ED76F000ED86F000E85
:1029F600D96F030EDB6F000EDA6F000EF76F000E55
:102A0600F66FF6C0ECF0F7C0EDF0000EEF6F070EB4
:102A1600EE6F49EC18F0BA0E0101BC6F000EBD6FE7
:102A26000001EC510101BC270001ED510101BD235C
:102A3600070E0001F603F3CFBEF1F4CFBFF1F703A3
:102A4600F3500101BF27BA0EBE25D96E000EBF2175
:102A5600DA6EDF50C06FC051020DF3CFC1F1F4CF73
:102A6600C2F1070E0001F603F3CFC3F1F4CFC4F1B0
:102A7600F703F3500101C427BB0EC325D96E000E20
:102A8600C421DA6EDF50C56FC551200D000EC66F2A
:102A9600010EC76FF350C627F450C723C151C62590
:102AA600D96EC251C721DA6EBCC1DEFFBDC1DDFFE2
:102AB6000001F64BF72BF7BF6AEF15F0F75109E166
:102AC600060EF65DD8A06AEF15F06CEF15F004EF70
:102AD60015F01200000E096E000E086E08C001F017
:102AE60009C002F0000E046E070E036E5DEC18F0CE
:102AF600BA0E0124D96E000E0220DA6E0001DD51F5
:102B0600DE18D8A489EF15F08BEF15F002EF16F05A
:102B160008C001F009C002F0000E046E070E036E35
:102B26005DEC18F0BB0E0124D96E000E0220DA6EA1
:102B36000001DE51DE18D8A4A3EF15F0A5EF15F0BD
:102B460002EF16F008C001F009C002F0000E046E94
:102B5600070E036E5DEC18F0BF0E0124D96E000E51
:102B66000220DA6EDF50D8A4BBEF15F0BDEF15F0EA
:102B7600C1EF15F0464A472AC3EF15F0444A452AE5
:102B8600010E5F6E000E3D6E000E3C6E000E0001E3
:102B9600DA6F000EE16F48C001F049C002F0000E86
:102BA600046E070E036E5DEC18F0C00E0124D96E9C
:102BB600000E0220DA6E000EDF6E08C001F009C0BA
:102BC60002F0000E046E070E036E5DEC18F0C00EE8
:102BD6000124D96E000E0220DA6E020EDF6E08C0E6
:102BE60048F009C049F008C001F009C002F0000E23
:102BF600046E070E036E5DEC18F012EF16F0084A2D
:102C0600092A09BE10EF16F0095009E1040E085C06
:102C1600D8A010EF16F012EF16F071EF15F01200B3
:102C26005F04D8A419EF16F01BEF16F058EF16F054
:102C360020EE06F00150D9260250DA22020EDF6E8F
:102C4600000E0001E16FDE51036E046A050ED89096
:102C560003360436E82E2AEF16F0DD51056E066AB5
:102C6600D89005360636DE0E076EFF0E086E000E8D
:102C7600096E010E0A6E0750092608500A220550F1
:102C8600092606500A2203500924D96E04500A2048
:102C9600DA6E000EDE6E000EDD6E000EE06FE0C036
:102CA600DFF0DFC0DEF0DEC0DDF01200000E4B6E9E
:102CB600000E4A6E4AC04CF04BC04DF04CC04EF070
:102CC6004DC04FF0070EC16EF19E000E816E810E53
:102CD600B16E9368000E926E000E956E130ED56E51
:102CE600000E516E000ED66E800ED76ED58EF28C0B
:102CF600F288F286F28AF086F19CF19AF290F292CC
:102D0600F090F296F28E81CF81FFF290F286F180FA
:102D1600F184F08C9F809D809E909F80ED0ECE6EFC
:102D2600850ECF6EB00ECD6E9D829E929F92D08EF6
:102D36007F0ECA6E1200B20E0001F06F000EF16F28
:102D4600000EBBEC17F0AA0E0001F06F000EF16F3B
:102D5600010EBBEC17F0A20E0001F06F000EF16F32
:102D6600020EBBEC17F09A0E0001F06F000EF16F29
:102D7600030EBBEC17F0920E0001F06F000EF16F20
:102D8600040EBBEC17F08A0E0001F06F000EF16F17
:102D9600050EBBEC17F0820E0001F06F000EF16F0E
:102DA600060EBBEC17F0600E0001F06F000EF16F1F
:102DB600070EBBEC17F012000001EF6F0001EE05E5
:102DC600D8A4E8EF16F0EAEF16F0F1EF16F0EF05EB
:102DD6000F0B800F30EC18F016EF17F0020EEE19FD
:102DE600D8A4F8EF16F0FAEF16F001EF17F0EF059A
:102DF6000F0BC00F30EC18F016EF17F0030EEE199C
:102E0600D8A408EF17F00AEF17F011EF17F0EF0547
:102E16000F0B900F30EC18F016EF17F0EF050F0BB5
:102E2600D00F30EC18F0EFC081F0EEC080F0120049
:102E3600C00EF66E2F0EF76E000EF86E00EE80F0E6
:102E460010EE3AF00900F5CFEEFFE550E150FAE159
:102E5600FC0EF66E300EF76E000EF86E00EE52F0B7
:102E660010EE16F00900F5CFEEFFE550E150FAE15D
:102E760001EE00F0BC0EEE6AE806FDE100EEBAF0E7
:102E86002A0EEE6AE806FDE100EE3CF0160EEE6A4A
:102E9600E806FDE168906892000EF86E000170EF9A
:102EA60018F0B190B2CF01F0026A06C003F007C075
:102EB60004F089EC17F001500D6EB2CFB3FF000E8F
:102EC6000B6E000E0A6E73EF17F0B250800B0C6E8D
:102ED600D890B2360C44010BB210B26E0A4A0B2AD5
:102EE600070E0614086E000E0714096E08500A5CD9
:102EF60009500B58D8A082EF17F084EF17F068EF4F
:102F060017F0B1800DC006F0076A120003500410D6
:102F1600D8B490EF17F092EF17F0B6EF17F0010E56
:102F2600056E9AEF17F0D89003360436052A04AEDC
:102F36009FEF17F0A1EF17F096EF17F00350015C23
:102F460004500258D8A0AAEF17F0ACEF17F0B0EF74
:102F560017F00350015E0450025AD890043203322F
:102F6600052EA1EF17F001C001F002C002F0120019
:102F76000001F26F0001F251080DF350400F30ECE2
:102F860018F0000E0001F36FF351F025D96E000E14
:102F9600F121DA6EDF50FDEC17F00001F32B070E7E
:102FA600F365D8EF17F0DAEF17F0C7EF17F080C028
:102FB600EEF08151DFEC16F0120001010E1F1F1F0B
:102FC6000E0000001F150A040E1F0A1F1F150A0413
:102FD60004040A1F11150A040E1F0A1F11150A04FC
:102FE60004040A1F11150A040E1F0A0A11150A0401
:102FF60004040A0A0001ED6F84928484EDC083FF05
:103006008482070E0001EC6F7D0EE82EFED7EC2FB2
:10301600FCD78492070E0001EC6F7D0EE82EFED7DA
:10302600EC2FFCD78494120096929694000E956E1F
:1030360084928494380E30EC18F0080E30EC18F0B8
:103046000C0E30EC18F0060E30EC18F0010E30ECD9
:1030560018F0800E30EC18F012000001ED6F84922B
:103066008494EDC083FF8482070E0001EC6F7D0E11
:10307600E82EFED7EC2FFCD78492070E0001EC6FEA
:103086007D0EE82EFED7EC2FFCD712000001EC5186
:10309600EE03F3CFF0F0F4CFF1F0EC51EF03F35081
:1030A600F127ED51EE03F350F127F0C0ECF0F1C03B
:1030B600EDF0120001500302F3CF05F0F4CF06F055
:1030C60001500402F350062602500302F35006266E
:1030D60005C001F006C002F0120059EC16F017EC1C
:1030E60018F05DEC14F09EEC16F003EC08F078EFA7
:1030F60018F061EF00F03F065B4F666D7D077F6F4E
:10310600401000010E1111110E000000000E516E4C
:0C311600000ED66E000ED76ED58E120093
:020000040020DA
:08000000FFFFFFFFFFFFFFFF00
:020000040030CA
:0E000000FF071F1FFF8385FF0FC00FE00F409B
:00000001FF
