:020000040000FA
:0400000063EF00F0BA
:060008007C8203ED08F00C
:100018007C80D8CFD9F0E8CFDAF0E0CFDBF0D9CFC9
:10002800DCF0DACFDDF09E929D9283CFDEF080CFB8
:10003800DFF0080E896EBC0E00018225D96E010E14
:100048008321DA6EDF508C6E0D0E0001D86FFB0E27
:10005800E82EFED7D82FFCD700D0100E896EC6C167
:100068008CFF0D0E0001D86FFB0EE82EFED7D82F9F
:10007800FCD700D0200E896EBC0E00018025D96EF9
:10008800010E8121DA6EDF508C6E0D0E0001D86FE3
:10009800FB0EE82EFED7D82FFCD700D0DFC089FF93
:1000A800DEC08CFF9D82DDC0DAFFDCC0D9FFDBC07B
:1000B800E0FFDAC0E8FFD9C0D8FF7C901000A0EFBD
:0200C8001FF027
:05100000002564000062
:101006000600E1CF3DF0E2CF3EF0D9CF3FF0DACF98
:1010160040F0F3CF41F0F4CF42F081CF7AF0F2A462
:1010260017EF08F019EF08F01DEF08F0010E7B6EC0
:10103600D59EF2949EA022EF08F024EF08F04CEF24
:1010460009F09E90CD90ED0ECE6E850ECF6ECD80C2
:101056006E4A6F2AC282C2B233EF08F035EF08F04B
:101066002EEF08F0C450366E356AC3503524686ECC
:10107600000E3620696E69BE49EF08F06904D8B0E3
:1010860047EF08F049EF08F04FEF08F0000E4C6EFE
:10109600040E4B6E77EF08F069BE5BEF08F0020EA8
:1010A600695CD8B059EF08F05BEF08F061EF08F023
:1010B600000E4C6E080E4B6E77EF08F069BE6DEFB2
:1010C60008F0030E695CD8B06BEF08F06DEF08F01E
:1010D60073EF08F0000E4C6E0C0E4B6E77EF08F0B7
:1010E600000E4C6E100E4B6E030E0001AD19D8A407
:1010F6007FEF08F081EF08F09BEF08F06EB086EF07
:1011060008F088EF08F09BEF08F04F50D8A48EEF58
:1011160008F090EF08F09BEF08F0A405D8A496EF2E
:1011260008F099EF08F0010E9AEF08F0000EA46F90
:101136004D506E1807E14E506F18D8A4A5EF08F071
:10114600A7EF08F04CEF09F0000E6F6E000E6E6E02
:10115600030EAD19D8A4B2EF08F0B4EF08F04CEFC7
:1011660009F09CEC1BF06A4A6B2A800E356E010E64
:10117600366ED8906A34D96E6B34DA6ED890D9361A
:10118600DA363550D9263650DA22DF500001A76FFD
:10119600800E356E010E366E020E3526000E362294
:1011A600D8906A34D96E6B34DA6ED890D936DA367E
:1011B6003550D9263650DA22DF50A86FA7EC1EF03C
:1011C6000001A051A719D8A4EBEF08F0EDEF08F045
:1011D600F6EF08F0A151A819D8B4F4EF08F0F6EF2D
:1011E60008F00EEF09F0FF0E356EFF0E366E6CC07E
:1011F60037F06DC038F035503726365038226A50F1
:10120600371807E16B503818D8A40CEF09F00EEF29
:1012160009F04CEF09F0040EAD6F000EA46FA1515A
:10122600356E366A050ED89035363636E82E16EF08
:1012360009F0A051376E386AD89037363836DE0E48
:10124600396EFF0E3A6E000E3B6E010E3C6E395043
:101256003B263A503C2237503B2638503C223550EC
:101266003B24D96E36503C20DA6EA70EDE6E000E99
:10127600DD6E000EA36FA3C0A2F0A2C0A1F0A1C0B4
:10128600A0F0010E4F6E000E6B6E000E6A6E4CEFF4
:1012960009F0F2A251EF09F053EF09F00EEF0AF050
:1012A6007B50D8B459EF09F05BEF09F0FFEF0AF075
:1012B600784A792A87EC21F072C001F073C002F0F7
:1012C600000E046E070E036E34EC21F08A0E012424
:1012D600D96E000E0220DA6E020EDE18D8A476EF62
:1012E60009F078EF09F0FFEF0AF072C001F073C061
:1012F60002F0000E046E070E036E34EC21F0840E2D
:101306000124D96E000E0220DA6EDF50356E35509C
:101316000E6E0F6A72C001F073C002F0000E046E0A
:10132600070E036E34EC21F0850E0124D96E000EF3
:101336000220DA6EDF50366E3650106E116A5EECA1
:101346000DF00EC06CF00FC06DF0010E0001A46F21
:10135600FC0E356EFF0E366E800E376E010E386E41
:101366003550372636503822D8906C34D96E6D34C5
:10137600DA6ED890D936DA363750D9263850DA228E
:10138600DF50A06FFE0E356EFF0E366E800E376E86
:10139600010E386E3550372636503822D8906C34C8
:1013A600D96E6D34DA6ED890D936DA363750D926FA
:1013B6003850DA22DF50A16F80C1A7F082C1A8F0B1
:1013C600010EAB6F030EAD6F72C001F073C002F079
:1013D600000E046E070E036E34EC21F08A0E012413
:1013E600D96E000E0220DA6E010EDF6EA7EC1EF03B
:1013F600000E4F6E000E6F6E000E6E6E4BC04DF0FF
:101406004CC04EF09E90CD90ED0ECE6E850ECF6EFA
:10141600CD80FFEF0AF0F0A013EF0AF015EF0AF007
:1014260066EF0AF07B50D8B41BEF0AF01DEF0AF006
:10143600FFEF0AF0764A772A72C001F073C002F015
:10144600000E046E070E036E34EC21F08A0E0124A2
:10145600D96E000E0220DA6E020EDE18D8B436EF10
:101466000AF038EF0AF062EF0AF072C001F073C0BA
:1014760002F0000E046E070E036E34EC21F08A0EA5
:101486000124D96E000E0220DA6E000EDF6E724A5B
:10149600732A030E7214726E736A72C001F073C0FF
:1014A60002F0000E046E070E036E34EC21F08A0E75
:1014B6000124D96E000E0220DA6E010EDF6E87EC73
:1014C60021F0FFEF0AF0F2A06BEF0AF06DEF0AF0E1
:1014D600FFEF0AF07B50D8B473EF0AF075EF0AF00D
:1014E600FFEF0AF07A380F0B7A6EDEEF0AF072C061
:1014F60001F073C002F0000E046E070E036E34ECAA
:1015060021F0840E0124436E000E0220446E43C077
:1015160013F044C014F055EC12F0FBEF0AF072C061
:1015260001F073C002F0000E046E070E036E34EC79
:1015360021F0840E0124456E000E0220466E45C041
:1015460013F046C014F013EC17F0FBEF0AF072C06C
:1015560001F073C002F0000E046E070E036E34EC49
:1015660021F0840E0124476E000E0220486E47C00B
:1015760013F048C014F0A0EC18F0FBEF0AF072C0AC
:1015860001F073C002F0000E046E070E036E34EC19
:1015960021F0840E0124496E000E02204A6E49C0D5
:1015A60013F04AC014F0EDEC13F0FBEF0AF0000E56
:1015B6007A6EFBEF0AF07A50356E366A3650000ABC
:1015C600D8B4E8EF0AF0DAEF0AF03550070AD8B4D3
:1015D600C2EF0AF00C0AD8B4AAEF0AF0060AD8B489
:1015E60092EF0AF0030AD8B47AEF0AF0DAEF0AF0BB
:1015F600744A752A62EF0AF0F090F292F2909E9C7D
:1016060042C0F4FF41C0F3FF40C0DAFF3FC0D9FF3C
:101616003EC0E2FF3DC0E1FF7C921100000E0101D9
:10162600C86F000EC76F000ECA6F000EC96FC7C124
:10163600E6F0C8C1E7F0050ED8900001E637E737B7
:10164600E82E1FEF0BF0000EE86F010EE96FE65172
:10165600E827E751E923D8900101C935D96ECA3583
:10166600DA6E0001E851D926E951DA22000EDE6E63
:10167600000EDD6E0101C94BCA2BCABF4CEF0BF041
:10168600CA5109E1100EC95DD8A04CEF0BF04EEF20
:101696000BF01AEF0BF0C74BC82BC8BF5CEF0BF073
:1016A600C85109E1040EC75DD8A05CEF0BF05EEFF0
:1016B6000BF016EF0BF0000ED06F050ECF6FCFC1FB
:1016C600E0F0D0C1E1F0000E0001E36F070EE26F1B
:1016D60020EC21F0880E0001E025D96E000EE121F4
:1016E600DA6EDF50D8B47AEF0BF07CEF0BF00DEF2B
:1016F6000CF0CFC1E0F0D0C1E1F0000EE36F070EB1
:10170600E26F20EC21F0840E0001E025D96E000E78
:10171600E121DA6EDF50D8B493EF0BF095EF0BF0C2
:101726000DEF0CF0CFC1E0F0D0C1E1F0000EE36F99
:10173600070EE26F20EC21F0850E0001E025D96E40
:10174600000EE121DA6EDF50D8B4ACEF0BF0AEEF4D
:101756000BF00DEF0CF0CFC1E0F0D0C1E1F0000EC0
:10176600E36F070EE26F20EC21F0840E0001E66FB6
:10177600000EE76FE051E627E151E723CFC1E0F025
:10178600D0C1E1F0000EE36F070EE26F20EC21F00E
:10179600850E0001E025D96E000EE121DA6EDF50DC
:1017A600E86FE96B050ED890E837E937E82ED6EFF3
:1017B6000BF0CFC1E0F0D0C1E1F0000EE36F070EF1
:1017C600E26F20EC21F0840E0001E025D96E000EB8
:1017D600E121DA6EDF50EA6FEB6BD890EA37EB3730
:1017E600DE0EEC6FFF0EED6F000EEE6F010EEF6F6B
:1017F600EC51EE27ED51EF23EA51EE27EB51EF23A3
:10180600E851EE25D96EE951EF21DA6EE6C0DEFF2A
:10181600E7C0DDFF0101CF07D8A0D007D0BF18EF82
:101826000CF016EF0CF062EF0BF0000ECC6F000E12
:10183600CB6F000ECE6F000ECD6FCD290001AF6FBE
:101846000101CB290001AE6FAEC0E1F0AF512AEC29
:1018560020F0CBC1E6F0CCC1E7F0050ED890000130
:10186600E637E737E82E31EF0CF0000EE86F010E91
:10187600E96FE651E827E751E923D8900101CD3514
:10188600D96ECE35DA6E0001E851D926E951DA2251
:10189600DE50DE10D8A452EF0CF054EF0CF0FBEF44
:1018A6000CF0200E47EC21F03CEF0DF0060E47EC55
:1018B60021F03CEF0DF0070E47EC21F03CEF0DF068
:1018C600000E47EC21F03CEF0DF0020E47EC21F044
:1018D6003CEF0DF0040E47EC21F03CEF0DF0CBC1D0
:1018E600E6F0CCC1E7F0050ED890E637E737E82EEC
:1018F60077EF0CF0000EE86F010EE96FE651E8276E
:10190600E751E923D8900101CD35D96ECE35DA6E8F
:101916000001E851D926E951DA2210EE06F0DE5030
:10192600E126DD50E222E750EA6FEB6BEB51000A4D
:10193600D8B4A0EF0CF03CEF0DF0EA51000AD8B491
:1019460063EF0CF0010AD8B468EF0CF0030AD8B4C0
:101956006DEF0CF03CEF0DF0010E47EC21F03CEF83
:101966000DF0030E47EC21F03CEF0DF0050E47ECB1
:1019760021F03CEF0DF0CBC1E6F0CCC1E7F0050E4F
:10198600D890E637E737E82EC3EF0CF0000EE86F85
:10199600010EE96FE651E827E751E923D8900101E6
:1019A600CD35D96ECE35DA6E0001E851D926E9512A
:1019B600DA2210EE06F0DE50E126DD50E222E75094
:1019C600EA6FEB6BEB51000AD8B4ECEF0CF03CEF8E
:1019D6000DF0EA51000AD8B4AFEF0CF0010AD8B402
:1019E600B4EF0CF0030AD8B4B9EF0CF03CEF0DF0ED
:1019F600CBC1E6F0CCC1E7F0050ED890E637E73765
:101A0600E82E00EF0DF0000EE86F010EE96FE651CB
:101A1600E827E751E923D8900101CD35D96ECE35B7
:101A2600DA6E0001E851D926E951DA2210EE05F006
:101A3600DE50E126DD50E222E750EA6FEB6BEB5118
:101A4600000AD8B429EF0DF03CEF0DF0EA51000A78
:101A5600D8B472EF0CF0010AD8B4BEEF0CF0030A4A
:101A6600D8B459EF0CF0010AD8B45EEF0CF03CEF95
:101A76000DF00101CD4BCE2BCEBF4BEF0DF0CE516D
:101A860009E1100ECD5DD8A04BEF0DF04DEF0DF036
:101A960020EF0CF0CB4BCC2BCCBF5BEF0DF0CC5139
:101AA60009E1040ECB5DD8A05BEF0DF05DEF0DF004
:101AB6001CEF0CF01200000E076E100E066E66ECA0
:101AC60020F0010E0624226E000E0720236E000E63
:101AD600076E040E066E66EC20F0010E0624246ED8
:101AE600000E0720256E0E50225C0F502358D8B0EA
:101AF6007FEF0DF081EF0DF089EF0DF022500E5CB7
:101B06002A6E23500F582B6E8FEF0DF00E50225C6D
:101B16002A6E0F5023582B6E1050245C11502558F6
:101B2600D8B098EF0DF09AEF0DF0A2EF0DF024501B
:101B3600105C2C6E255011582D6EA8EF0DF010502C
:101B4600245C2C6E115025582D6E2B5007E1030E88
:101B56002A5CD8B0B1EF0DF0B3EF0DF0C0EF0DF089
:101B66002D5007E1030E2C5CD8B0BCEF0DF0BEEF94
:101B76000DF0C0EF0DF05EEF0DF02A502C5C2B50EF
:101B86002D58D8B0C9EF0DF0CBEF0DF0D1EF0DF019
:101B96002AC020F02BC021F0D5EF0DF02CC020F08C
:101BA6002DC021F00EC026F00FC027F00E50225C8B
:101BB6000F502358D8B0E2EF0DF0E4EF0DF013EF1D
:101BC6000EF0000E156E000E146E06EF0EF0FF0EF0
:101BD6002624266EFF0E2720276E800E126E010E1B
:101BE600136ED8901434D96E1534DA6ED890D9366F
:101BF600DA361250D9261350DA2226C0DEFF27C065
:101C0600DDFF144A152A2A50145C2B501558D8A00B
:101C16000FEF0EF011EF0EF0EAEF0DF040EF0EF0C1
:101C2600000E176E000E166E35EF0EF0010E26240E
:101C3600266E000E2720276E800E126E010E136E82
:101C4600D8901634D96E1734DA6ED890D936DA367B
:101C56001250D9261350DA2226C0DEFF27C0DDFF38
:101C6600164A172A2A50165C2B501758D8A03EEF52
:101C76000EF040EF0EF019EF0EF02AC018F02BC050
:101C860019F05CEF0EF0800E126E010E136ED890F6
:101C96001834D96E1934DA6ED890D936DA3612502D
:101CA600D9261350DA2226C0DEFF27C0DDFF184AE8
:101CB600192A2050185C21501958D8A065EF0EF04B
:101CC60067EF0EF046EF0EF010C028F011C029F0B5
:101CD6001050245C11502558D8B074EF0EF076EFF2
:101CE6000EF0A9EF0EF0000E1B6E000E1A6E9CEFA2
:101CF6000EF0FF0E2824286EFF0E2920296E800E76
:101D0600126E010E136E020E1226000E1322D890CA
:101D16001A34D96E1B34DA6ED890D936DA361250A8
:101D2600D9261350DA2228C0DEFF29C0DDFF1A4A61
:101D36001B2A2C501A5C2D501B58D8A0A5EF0EF06C
:101D4600A7EF0EF07CEF0EF0DAEF0EF0000E1D6E30
:101D5600000E1C6ECFEF0EF0010E2824286E000E2A
:101D66002920296E800E126E010E136E020E1226A7
:101D7600000E1322D8901C34D96E1D34DA6ED8901A
:101D8600D936DA361250D9261350DA2228C0DEFFA9
:101D960029C0DDFF1C4A1D2A2C501C5C2D501D58E5
:101DA600D8A0D8EF0EF0DAEF0EF0AFEF0EF02CC0A1
:101DB6001EF02DC01FF0FAEF0EF0800E126E010E0F
:101DC600136E020E1226000E1322D8901E34D96E00
:101DD6001F34DA6ED890D936DA361250D926135017
:101DE600DA2228C0DEFF29C0DDFF1E4A1F2A205046
:101DF6001E5C21501F58D8A003EF0FF005EF0FF01F
:101E0600E0EF0EF020C00EF021C00FF0120013C05C
:101E1600D9FF14C0DAFFDE04D8B414EF0FF016EFC2
:101E26000FF0B2EF10F020EE01F01350D926145047
:101E3600DA22DE04D8A422EF0FF024EF0FF026EF0B
:101E46000FF0B2EF10F020EE01F01350D926145027
:101E5600DA22DF50156E166A050ED890153616363C
:101E6600E82E30EF0FF013C0D9FF14C0DAFFDF50B1
:101E7600176E186AD89017361836BC0E196EFF0EF4
:101E86001A6E000E1B6E010E1C6E19501B261A5080
:101E96001C2217501B2618501C2215501B24D96EC5
:101EA60016501C20DA6EDE50DE10D8B45DEF0FF04F
:101EB6005FEF0FF024EF10F020EE01F01350D9265B
:101EC6001450DA22DF50156E166A050ED8901536B4
:101ED6001636E82E69EF0FF013C0D9FF14C0DAFFEB
:101EE600DF50176E186AD89017361836BC0E196E62
:101EF600FF0E1A6E000E1B6E010E1C6E19501B266D
:101F06001A501C2217501B2618501C2215501B2431
:101F1600D96E16501C20DA6E10EE05F0DE50E12662
:101F2600DD50E222E750D8A49BEF0FF09DEF0FF0B3
:101F36009FEF0FF0B2EF10F020EE01F01350D9260C
:101F46001450DA22DF50156E166A050ED890153633
:101F56001636E82EA9EF0FF013C0D9FF14C0DAFF2A
:101F6600DF50176E186AD89017361836BC0E196EE1
:101F7600FF0E1A6E000E1B6E010E1C6E19501B26EC
:101F86001A501C2217501B2618501C2215501B24B1
:101F9600D96E16501C20DA6E10EE05F0DE50E126E2
:101FA600DD50E222E604D8A4DBEF0FF0DDEF0FF000
:101FB600DFEF0FF0B2EF10F020EE01F01350D9264C
:101FC6001450DA22DF50156E166A050ED8901536B3
:101FD6001636E82EE9EF0FF013C0D9FF14C0DAFF6A
:101FE600DF50176E186AD89017361836BC0E196E61
:101FF600FF0E1A6E000E1B6E010E1C6E19501B266C
:102006001A501C2217501B2618501C2215501B2430
:10201600D96E16501C20DA6E10EE05F0DE50E12661
:10202600DD50E222020EE618D8A41CEF10F01EEFD7
:1020360010F024EF10F013C007F014C008F0C0EC45
:102046001DF020EE01F01350D9261450DA22DF508D
:10205600156E166A050ED89015361636E82E2EEF32
:1020660010F013C0D9FF14C0DAFFDF50176E186ADC
:10207600D89017361836DE0E196EFF0E1A6E000E41
:102086001B6E010E1C6E19501B261A501C2217506F
:102096001B2618501C2215501B24D96E16501C20C6
:1020A600DA6E000EDE6E000EDD6E13C0D9FF14C0B0
:1020B600DAFF10EE02F01350E1261450E222DFCFD1
:1020C600E7FF20EE01F01350D9261450DA2210EE65
:1020D60003F01350E1261450E222DFCFE7FF13C0CE
:1020E600D9FF14C0DAFFDF0620EE01F01350D9261F
:1020F6001450DA22DF0620EE01F01350D9261450D0
:10210600DA22DF50156E166A050ED8901536163689
:10211600E82E88EF10F013C0D9FF14C0DAFFDF50A5
:10212600176E186AD89017361836DE0E196EFF0E1F
:102136001A6E000E1B6E010E1C6E19501B261A50CD
:102146001C2217501B2618501C2215501B24D96E12
:1021560016501C20DA6E13C0DEFF14C0DDFF12001D
:1021660013C0D9FF14C0DAFF100EDE18D8B4BEEFC4
:1021760010F0C0EF10F054EF12F020EE01F0135003
:10218600D9261450DA22DE04D8A4CCEF10F0CEEF14
:1021960010F0D0EF10F054EF12F020EE01F01350D3
:1021A600D9261450DA22DF50156E166A050ED8901D
:1021B60015361636E82EDAEF10F013C0D9FF14C024
:1021C600DAFFDF50176E1750020DC00E186EFF0EA5
:1021D600196E000E1A6E010E1B6E18501A26195033
:1021E6001B22F3501A26F4501B2215501A24D96EBE
:1021F60016501B20DA6EDE50DE10D8B405EF11F053
:1022060007EF11F0C6EF11F020EE01F01350D926BA
:102216001450DA22DF50156E166A050ED890153660
:102226001636E82E11EF11F013C0D9FF14C0DAFFED
:10223600DF50176E1750020DC00E186EFF0E196E86
:10224600000E1A6E010E1B6E18501A2619501B220C
:10225600F3501A26F4501B2215501A24D96E165024
:102266001B20DA6E10EE05F0DE50E126DD50E2228C
:10227600E750D8A441EF11F043EF11F045EF11F00C
:1022860054EF12F020EE01F01350D9261450DA2242
:10229600DF50156E166A050ED89015361636E82EDE
:1022A6004FEF11F013C0D9FF14C0DAFFDF50176EDD
:1022B6001750020DC00E186EFF0E196E000E1A6E24
:1022C600010E1B6E18501A2619501B22F3501A269F
:1022D600F4501B2215501A24D96E16501B20DA6EA4
:1022E60010EE05F0DE50E126DD50E222E604D8A429
:1022F6007FEF11F081EF11F083EF11F054EF12F040
:1023060020EE01F01350D9261450DA22DF50156E54
:10231600166A050ED89015361636E82E8DEF11F092
:1023260013C0D9FF14C0DAFFDF50176E1750020D25
:10233600C00E186EFF0E196E000E1A6E010E1B6E81
:1023460018501A2619501B22F3501A26F4501B2235
:1023560015501A24D96E16501B20DA6E10EE05F0B1
:10236600DE50E126DD50E222020EE618D8A4BEEFCA
:1023760011F0C0EF11F0C6EF11F013C007F014C052
:1023860008F0C0EC1DF020EE01F01350D9261450D1
:10239600DA22DF50156E166A050ED89015361636F7
:1023A600E82ED0EF11F013C0D9FF14C0DAFFDF50CA
:1023B600176E186AD89017361836DE0E196EFF0E8D
:1023C6001A6E000E1B6E010E1C6E19501B261A503B
:1023D6001C2217501B2618501C2215501B24D96E80
:1023E60016501C20DA6E000EDE6E000EDD6E13C077
:1023F600D9FF14C0DAFF10EE02F01350E126145094
:10240600E222DFCFE7FF20EE01F01350D926145069
:10241600DA2210EE03F01350E1261450E222DFCF49
:10242600E7FF13C0D9FF14C0DAFFDF2A20EE01F060
:102436001350D9261450DA22DF0620EE01F013508D
:10244600D9261450DA22DF50156E166A050ED8907A
:1024560015361636E82E2AEF12F013C0D9FF14C02F
:10246600DAFFDF50176E186AD89017361836DE0E68
:10247600196EFF0E1A6E000E1B6E010E1C6E1950A1
:102486001B261A501C2217501B2618501C221550AA
:102496001B24D96E16501C20DA6E13C0DEFF14C042
:1024A600DDFF120020EE01F01350D9261450DA2277
:1024B600DE04D8A461EF12F063EF12F065EF12F0BC
:1024C600ECEF13F020EE01F01350D9261450DA2267
:1024D600DF50156E166A050ED89015361636E82E9C
:1024E6006FEF12F013C0D9FF14C0DAFFDF50176E7A
:1024F600186AD89017361836BE0E196EFF0E1A6E69
:10250600000E1B6E010E1C6E19501B261A501C2243
:1025160017501B2618501C2215501B24D96E165016
:102526001C20DA6EDE50DE10D8B49CEF12F09EEF5F
:1025360012F063EF13F020EE01F01350D926145079
:10254600DA22DF50156E166A050ED8901536163645
:10255600E82EA8EF12F013C0D9FF14C0DAFFDF503F
:10256600176E186AD89017361836BE0E196EFF0EFB
:102576001A6E000E1B6E010E1C6E19501B261A5089
:102586001C2217501B2618501C2215501B24D96ECE
:1025960016501C20DA6E10EE05F0DE50E126DD50F6
:1025A600E222E750D8A4DAEF12F0DCEF12F0DEEF09
:1025B60012F0ECEF13F020EE01F01350D926145070
:1025C600DA22DF50156E166A050ED89015361636C5
:1025D600E82EE8EF12F013C0D9FF14C0DAFFDF507F
:1025E600176E186AD89017361836BE0E196EFF0E7B
:1025F6001A6E000E1B6E010E1C6E19501B261A5009
:102606001C2217501B2618501C2215501B24D96E4D
:1026160016501C20DA6E10EE05F0DE50E126DD5075
:10262600E222E604D8A41AEF13F01CEF13F01EEF13
:1026360013F0ECEF13F020EE01F01350D9261450EE
:10264600DA22DF50156E166A050ED8901536163644
:10265600E82E28EF13F013C0D9FF14C0DAFFDF50BD
:10266600176E186AD89017361836BE0E196EFF0EFA
:102676001A6E000E1B6E010E1C6E19501B261A5088
:102686001C2217501B2618501C2215501B24D96ECD
:1026960016501C20DA6E10EE05F0DE50E126DD50F5
:1026A600E222020EE618D8A45BEF13F05DEF13F0FA
:1026B60063EF13F013C007F014C008F0C0EC1DF070
:1026C60020EE01F01350D9261450DA22DF50156E91
:1026D600166A050ED89015361636E82E6DEF13F0ED
:1026E60013C0D9FF14C0DAFFDF50176E186AD890EE
:1026F60017361836DE0E196EFF0E1A6E000E1B6E9A
:10270600010E1C6E19501B261A501C2217501B2630
:1027160018501C2215501B24D96E16501C20DA6E38
:10272600000EDE6E000EDD6E13C0D9FF14C0DAFF98
:1027360010EE02F01350E1261450E222DFCFE7FF3D
:1027460020EE01F01350D9261450DA2210EE03F0D1
:102756001350E1261450E222DFCFE7FF20EE01F00E
:102766001350D9261450DA22DF0620EE01F013505A
:10277600D9261450DA22DF50156E166A050ED89047
:1027860015361636E82EC2EF13F013C0D9FF14C063
:10279600DAFFDF50176E186AD89017361836DE0E35
:1027A600196EFF0E1A6E000E1B6E010E1C6E19506E
:1027B6001B261A501C2217501B2618501C22155077
:1027C6001B24D96E16501C20DA6E13C0DEFF14C00F
:1027D600DDFF120013C0D9FF14C0DAFFDE04D8A44F
:1027E600F7EF13F0F9EF13F0FBEF13F080EF15F0AE
:1027F60020EE01F01350D9261450DA22DF50156E60
:10280600166A050ED89015361636E82E05EF14F022
:1028160013C0D9FF14C0DAFFDF50176E186AD890BC
:1028260017361836DC0E196EFF0E1A6E000E1B6E6A
:10283600010E1C6E19501B261A501C2217501B26FF
:1028460018501C2215501B24D96E16501C20DA6E07
:10285600DE50DE10D8B432EF14F034EF14F0F9EF96
:1028660014F020EE01F01350D9261450DA22DF506E
:10287600156E166A050ED89015361636E82E3EEFFA
:1028860014F013C0D9FF14C0DAFFDF50176E186AB0
:10289600D89017361836DC0E196EFF0E1A6E000E1B
:1028A6001B6E010E1C6E19501B261A501C22175047
:1028B6001B2618501C2215501B24D96E16501C209E
:1028C600DA6E10EE05F0DE50E126DD50E222E7502A
:1028D600D8A470EF14F072EF14F074EF14F080EFD8
:1028E60015F020EE01F01350D9261450DA22DF50ED
:1028F600156E166A050ED89015361636E82E7EEF3A
:1029060014F013C0D9FF14C0DAFFDF50176E186A2F
:10291600D89017361836DC0E196EFF0E1A6E000E9A
:102926001B6E010E1C6E19501B261A501C221750C6
:102936001B2618501C2215501B24D96E16501C201D
:10294600DA6E10EE05F0DE50E126DD50E222E604F6
:10295600D8A4B0EF14F0B2EF14F0B4EF14F080EF97
:1029660015F020EE01F01350D9261450DA22DF506C
:10297600156E166A050ED89015361636E82EBEEF79
:1029860014F013C0D9FF14C0DAFFDF50176E186AAF
:10299600D89017361836DC0E196EFF0E1A6E000E1A
:1029A6001B6E010E1C6E19501B261A501C22175046
:1029B6001B2618501C2215501B24D96E16501C209D
:1029C600DA6E10EE05F0DE50E126DD50E222020E50
:1029D600E618D8A4F1EF14F0F3EF14F0F9EF14F0C1
:1029E60013C007F014C008F0C0EC1DF020EE01F093
:1029F6001350D9261450DA22DF50156E166A050ECA
:102A0600D89015361636E82E03EF15F013C0D9FF09
:102A160014C0DAFFDF50176E186AD89017361836CA
:102A2600DE0E196EFF0E1A6E000E1B6E010E1C6E68
:102A360019501B261A501C2217501B2618501C22F0
:102A460015501B24D96E16501C20DA6E000EDE6E51
:102A5600000EDD6E13C0D9FF14C0DAFF10EE02F0CF
:102A66001350E1261450E222DFCFE7FF20EE01F0FB
:102A76001350D9261450DA2210EE03F01350E12633
:102A86001450E222DFCFE7FF13C0D9FF14C0DAFFEC
:102A9600DF0620EE01F01350D9261450DA22DF505B
:102AA600156E166A050ED89015361636E82E56EFB0
:102AB60015F013C0D9FF14C0DAFFDF50176E186A7D
:102AC600D89017361836DE0E196EFF0E1A6E000EE7
:102AD6001B6E010E1C6E19501B261A501C22175015
:102AE6001B2618501C2215501B24D96E16501C206C
:102AF600DA6E13C0DEFF14C0DDFF120013C0D9FF6B
:102B060014C0DAFFDE04D8B48BEF15F08DEF15F0A4
:102B160012EF17F020EE01F01350D9261450DA22E6
:102B2600040EDE18D8A49AEF15F09CEF15F09EEF70
:102B360015F012EF17F013C0D9FF14C0DAFFDF50FB
:102B4600156E166AD8901536163620EE01F013501B
:102B5600D9261450DA22DF50176E1750200DFC0EBE
:102B6600186EFF0E196E000E1A6E010E1B6E1850AF
:102B76001A2619501B22F3501A26F4501B22155000
:102B86001A24D96E16501B20DA6EDE50DE10D8B429
:102B9600CFEF15F0D1EF15F084EF16F013C0D9FF83
:102BA60014C0DAFFDF50156E166AD8901536163641
:102BB60020EE01F01350D9261450DA22DF50176E9A
:102BC6001750200DFC0E186EFF0E196E000E1A6EB1
:102BD600010E1B6E18501A2619501B22F3501A2686
:102BE600F4501B2215501A24D96E16501B20DA6E8B
:102BF60010EE05F0DE50E126DD50E222E750D8A4C3
:102C060007EF16F009EF16F00BEF16F012EF17F0BC
:102C160013C0D9FF14C0DAFFDF50156E166AD890BC
:102C26001536163620EE01F01350D9261450DA2246
:102C3600DF50176E1750200DFC0E186EFF0E196E22
:102C4600000E1A6E010E1B6E18501A2619501B2202
:102C5600F3501A26F4501B2215501A24D96E16501A
:102C66001B20DA6E10EE05F0DE50E126DD50E22282
:102C7600E604D8A441EF16F043EF16F045EF16F040
:102C860012EF17F013C0D9FF14C0DAFFDF50156E2C
:102C9600166AD8901536163620EE01F01350D9264E
:102CA6001450DA22DF50176E1750200DFC0E186EE6
:102CB600FF0E196E000E1A6E010E1B6E18501A26A4
:102CC60019501B22F3501A26F4501B2215501A24B1
:102CD600D96E16501B20DA6E10EE05F0DE50E12696
:102CE600DD50E222020EE618D8A47CEF16F07EEF45
:102CF60016F084EF16F013C007F014C008F0C0EC0D
:102D06001DF020EE01F01350D9261450DA22DF50C0
:102D1600156E166A050ED89015361636E82E8EEF05
:102D260016F013C0D9FF14C0DAFFDF50176E186A09
:102D3600D89017361836DE0E196EFF0E1A6E000E74
:102D46001B6E010E1C6E19501B261A501C221750A2
:102D56001B2618501C2215501B24D96E16501C20F9
:102D6600DA6E000EDE6E000EDD6E13C0D9FF14C0E3
:102D7600DAFF10EE02F01350E1261450E222DFCF04
:102D8600E7FF20EE01F01350D9261450DA2210EE98
:102D960003F01350E1261450E222DFCFE7FF13C001
:102DA600D9FF14C0DAFFDF0620EE01F01350D92652
:102DB6001450DA22DF2A20EE01F01350D9261450DF
:102DC600DA22DF50156E166A050ED89015361636BD
:102DD600E82EE8EF16F013C0D9FF14C0DAFFDF5073
:102DE600176E186AD89017361836DE0E196EFF0E53
:102DF6001A6E000E1B6E010E1C6E19501B261A5001
:102E06001C2217501B2618501C2215501B24D96E45
:102E160016501C20DA6E13C0DEFF14C0DDFF120050
:102E260013C0D9FF14C0DAFF100EDE18D8A41EEFA7
:102E360017F020EF17F022EF17F09FEF18F020EEB3
:102E460001F01350D9261450DA22DF50156E166A97
:102E5600050ED89015361636E82E2CEF17F013C04F
:102E6600D9FF14C0DAFFDF50176E1750020DE00EBF
:102E7600186EFF0E196E000E1A6E010E1B6E18509C
:102E86001A2619501B22F3501A26F4501B221550ED
:102E96001A24D96E16501B20DA6EDE50DE10D8B416
:102EA60057EF17F059EF17F018EF18F020EE01F072
:102EB6001350D9261450DA22DF50156E166A050E05
:102EC600D89015361636E82E63EF17F013C0D9FFE3
:102ED60014C0DAFFDF50176E1750020DE00E186EA1
:102EE600FF0E196E000E1A6E010E1B6E18501A2672
:102EF60019501B22F3501A26F4501B2215501A247F
:102F0600D96E16501B20DA6E10EE05F0DE50E12663
:102F1600DD50E222E750D8A493EF17F095EF17F0B3
:102F260097EF17F09FEF18F020EE01F01350D92617
:102F36001450DA22DF50156E166A050ED890153633
:102F46001636E82EA1EF17F013C0D9FF14C0DAFF2A
:102F5600DF50176E1750020DE00E186EFF0E196E39
:102F6600000E1A6E010E1B6E18501A2619501B22DF
:102F7600F3501A26F4501B2215501A24D96E1650F7
:102F86001B20DA6E10EE05F0DE50E126DD50E2225F
:102F9600E604D8A4D1EF17F0D3EF17F0D5EF17F06A
:102FA6009FEF18F020EE01F01350D9261450DA22C4
:102FB600DF50156E166A050ED89015361636E82EB1
:102FC600DFEF17F013C0D9FF14C0DAFFDF50176E1A
:102FD6001750020DE00E186EFF0E196E000E1A6ED7
:102FE600010E1B6E18501A2619501B22F3501A2672
:102FF600F4501B2215501A24D96E16501B20DA6E77
:1030060010EE05F0DE50E126DD50E222020EE61853
:10301600D8A410EF18F012EF18F018EF18F013C03C
:1030260007F014C008F0C0EC1DF020EE01F01350BC
:10303600D9261450DA22DF50156E166A050ED8907E
:1030460015361636E82E22EF18F013C0D9FF14C035
:10305600DAFFDF50176E186AD89017361836DE0E6C
:10306600196EFF0E1A6E000E1B6E010E1C6E1950A5
:103076001B261A501C2217501B2618501C221550AE
:103086001B24D96E16501C20DA6E000EDE6E000E62
:10309600DD6E13C0D9FF14C0DAFF10EE02F0135034
:1030A600E1261450E222DFCFE7FF20EE01F01350B5
:1030B600D9261450DA2210EE03F01350E1261450EC
:1030C600E222DFCFE7FF13C0D9FF14C0DAFFDF2A01
:1030D60020EE01F01350D9261450DA22DF50156E77
:1030E600166A050ED89015361636E82E75EF18F0C6
:1030F60013C0D9FF14C0DAFFDF50176E186AD890D4
:1031060017361836DE0E196EFF0E1A6E000E1B6E7F
:10311600010E1C6E19501B261A501C2217501B2616
:1031260018501C2215501B24D96E16501C20DA6E1E
:1031360013C0DEFF14C0DDFF120020EE01F01350B5
:10314600D9261450DA22040EDE18D8A4ADEF18F0F2
:10315600AFEF18F0B1EF18F020EF1AF013C0D9FF57
:1031660014C0DAFFDF50156E166AD890153616367B
:1031760020EE01F01350D9261450DA22DF50176ED4
:103186001750200DFE0E186EFF0E196E000E1A6EE9
:10319600010E1B6E18501A2619501B22F3501A26C0
:1031A600F4501B2215501A24D96E16501B20DA6EC5
:1031B600DE50DE10D8B4E2EF18F0E4EF18F097EF27
:1031C60019F013C0D9FF14C0DAFFDF50156E166A66
:1031D600D8901536163620EE01F01350D926145025
:1031E600DA22DF50176E1750200DFE0E186EFF0EF6
:1031F600196E000E1A6E010E1B6E18501A26195003
:103206001B22F3501A26F4501B2215501A24D96E8D
:1032160016501B20DA6E10EE05F0DE50E126DD506A
:10322600E222E750D8A41AEF19F01CEF19F01EEFAE
:1032360019F020EF1AF013C0D9FF14C0DAFFDF50DF
:10324600156E166AD8901536163620EE01F0135014
:10325600D9261450DA22DF50176E1750200DFE0EB5
:10326600186EFF0E196E000E1A6E010E1B6E1850A8
:103276001A2619501B22F3501A26F4501B221550F9
:103286001A24D96E16501B20DA6E10EE05F0DE50A9
:10329600E126DD50E222E604D8A454EF19F056EFF9
:1032A60019F058EF19F020EF1AF013C0D9FF14C027
:1032B600DAFFDF50156E166AD8901536163620EEF0
:1032C60001F01350D9261450DA22DF50176E17502A
:1032D600200DFE0E186EFF0E196E000E1A6E010EF0
:1032E6001B6E18501A2619501B22F3501A26F4503A
:1032F6001B2215501A24D96E16501B20DA6E10EEBA
:1033060005F0DE50E126DD50E222020EE618D8A4D2
:103316008FEF19F091EF19F097EF19F013C007F03E
:1033260014C008F0C0EC1DF020EE01F01350D926B1
:103336001450DA22DF50156E166A050ED89015362F
:103346001636E82EA1EF19F013C0D9FF14C0DAFF24
:10335600DF50176E186AD89017361836DE0E196EBB
:10336600FF0E1A6E000E1B6E010E1C6E19501B26E8
:103376001A501C2217501B2618501C2215501B24AD
:10338600D96E16501C20DA6E000EDE6E000EDD6E53
:1033960013C0D9FF14C0DAFF10EE02F01350E12675
:1033A6001450E222DFCFE7FF20EE01F01350D926BA
:1033B6001450DA2210EE03F01350E1261450E222E4
:1033C600DFCFE7FF20EE01F01350D9261450DA22A2
:1033D600DF2A20EE01F01350D9261450DA22DF50EE
:1033E600156E166A050ED89015361636E82EF6EFC7
:1033F60019F013C0D9FF14C0DAFFDF50176E186A30
:10340600D89017361836DE0E196EFF0E1A6E000E9D
:103416001B6E010E1C6E19501B261A501C221750CB
:103426001B2618501C2215501B24D96E16501C2022
:10343600DA6E13C0DEFF14C0DDFF120013C0D9FF21
:1034460014C0DAFF100EDE18D8B42CEF1AF02EEFE7
:103456001AF09BEF1BF020EE01F01350D926145002
:10346600DA22040EDE18D8A43BEF1AF03DEF1AF06C
:103476003FEF1AF09BEF1BF013C0D9FF14C0DAFF21
:10348600DF50156E1550020DF3CF16F0F4CF17F07E
:1034960020EE01F01350D9261450DA22DF50186EB0
:1034A6001850200D000E196E010E1A6EF3501926D3
:1034B600F4501A2216501924D96E17501A20DA6EB3
:1034C600DE50DE10D8B46AEF1AF06CEF1AF00DEF8A
:1034D6001BF013C0D9FF14C0DAFFDF50156E15506C
:1034E600020DF3CF16F0F4CF17F020EE01F01350D3
:1034F600D9261450DA22DF50186E1850200D000E0F
:10350600196E010E1A6EF3501926F4501A2216502F
:103516001924D96E17501A20DA6E10EE05F0DE5017
:10352600E126DD50E222E750D8A49CEF1AF09EEF88
:103536001AF0A0EF1AF09BEF1BF013C0D9FF14C0CE
:10354600DAFFDF50156E1550020DF3CF16F0F4CFEB
:1035560017F020EE01F01350D9261450DA22DF506E
:10356600186E1850200D000E196E010E1A6EF350CB
:103576001926F4501A2216501924D96E17501A20FB
:10358600DA6E10EE05F0DE50E126DD50E222E604AA
:10359600D8A4D0EF1AF0D2EF1AF0D4EF1AF09BEFBE
:1035A6001BF013C0D9FF14C0DAFFDF50156E15509B
:1035B600020DF3CF16F0F4CF17F020EE01F0135002
:1035C600D9261450DA22DF50186E1850200D000E3E
:1035D600196E010E1A6EF3501926F4501A2216505F
:1035E6001924D96E17501A20DA6E10EE05F0DE5047
:1035F600E126DD50E222020EE618D8A405EF1BF004
:1036060007EF1BF00DEF1BF013C007F014C008F016
:10361600C0EC1DF020EE01F01350D9261450DA222A
:10362600DF50156E166A050ED89015361636E82E3A
:1036360017EF1BF013C0D9FF14C0DAFFDF50176E67
:10364600186AD89017361836DE0E196EFF0E1A6EE7
:10365600000E1B6E010E1C6E19501B261A501C22E2
:1036660017501B2618501C2215501B24D96E1650B5
:103676001C20DA6E000EDE6E000EDD6E13C0D9FF62
:1036860014C0DAFF10EE02F01350E1261450E222C5
:10369600DFCFE7FF20EE01F01350D9261450DA22CF
:1036A60010EE03F01350E1261450E222DFCFE7FFBD
:1036B60013C0D9FF14C0DAFFDF2A20EE01F0135041
:1036C600D9261450DA22DF2A20EE01F01350D9262B
:1036D6001450DA22DF50156E166A050ED89015368C
:1036E6001636E82E71EF1BF013C0D9FF14C0DAFFAF
:1036F600DF50176E186AD89017361836DE0E196E18
:10370600FF0E1A6E000E1B6E010E1C6E19501B2644
:103716001A501C2217501B2618501C2215501B2409
:10372600D96E16501C20DA6E13C0DEFF14C0DDFF02
:103736001200000E346E000E336E7250331807E11D
:1037460073503418D8A4AAEF1BF0ACEF1BF0AEEF01
:103756001BF0ACEF1CF0000E076E090E066E66EC51
:1037660020F006C021F007C022F07AEF1CF033C02B
:1037760001F034C002F0000E046E070E036E34EC46
:1037860021F0840E0124236E000E0220246E23C035
:1037960013F024C014F0EDEC13F0ACEF1CF033C0C2
:1037A60001F034C002F0000E046E070E036E34EC16
:1037B60021F0840E0124256E000E0220266E25C0FF
:1037C60013F026C014F013EC17F0ACEF1CF033C066
:1037D60001F034C002F0000E046E070E036E34ECE6
:1037E60021F0840E0124276E000E0220286E27C0C9
:1037F60013F028C014F055EC12F0ACEF1CF033C0F7
:1038060001F034C002F0000E046E070E036E34ECB5
:1038160021F0840E0124296E000E02202A6E29C092
:1038260013F02AC014F0A0EC18F0ACEF1CF033C073
:1038360001F034C002F0000E046E070E036E34EC85
:1038460021F0840E01242B6E000E02202C6E2BC05C
:1038560013F02CC014F00AEC0FF0ACEF1CF033C0E0
:1038660001F034C002F0000E046E070E036E34EC55
:1038760021F0840E01242D6E000E02202E6E2DC026
:1038860013F02EC014F0B3EC10F0ACEF1CF033C004
:1038960001F034C002F0000E046E070E036E34EC25
:1038A60021F0840E01242F6E000E0220306E2FC0F0
:1038B60013F030C014F081EC15F0ACEF1CF033C0FF
:1038C60001F034C002F0000E046E070E036E34ECF5
:1038D60021F0840E0124316E000E0220326E31C0BA
:1038E60013F032C014F021EC1AF0ACEF1CF021C03A
:1038F6001FF022C020F02050000AD8B485EF1CF03B
:10390600ACEF1CF01F50000AD8B4BAEF1BF0010A46
:10391600D8B4D2EF1BF0030AD8B4EAEF1BF0010AC1
:10392600D8B402EF1CF0070AD8B41AEF1CF0010A4B
:10393600D8B432EF1CF0030AD8B44AEF1CF0010ADF
:10394600D8B462EF1CF00F0AD8B4ACEF1CF0ACEFA1
:103956001CF0334A342A34BEBAEF1CF0345009E165
:10396600040E335CD8A0BAEF1CF0BCEF1CF0A0EF3D
:103976001BF01200000E0001F36F000EF26F000E36
:10398600F56F000EF46FF2C0E6F0F3C0E7F0050E37
:10399600D890E637E737E82ECBEF1CF0000EE86F3D
:1039A600010EE96FE651E827E751E923D890F4358F
:1039B600D96EF535DA6EE851D926E951DA22000ECC
:1039C600DE6E000EDD6EF44BF52BF5BFF4EF1CF04A
:1039D600F55109E1100EF45DD8A0F4EF1CF0F6EFF6
:1039E6001CF0C6EF1CF0F24BF32BF3BF04EF1DF0F7
:1039F600F35109E1040EF25DD8A004EF1DF006EFC5
:103A06001DF0C2EF1CF0000E736E000E726E030EF8
:103A1600846F020E856F000E866F000E876F000E94
:103A2600896F010E8A6F010E886F030E8B6F030E6E
:103A36008C6F000E8D6F000E8E6F000E906F000E55
:103A4600916F010E8F6F0E0E926F020E936F000E26
:103A5600946F000E956F010E976F000E986F010E12
:103A6600966F0E0E996F030E9A6F000E9B6F000EE7
:103A76009C6F010E9E6F000E9F6F010E9D6F090ECB
:103A8600A76F020EA86F000EA96F000EAA6F020E96
:103A9600AC6F040EAD6F010EAB6F010EA06F010E81
:103AA600A16F000EA26F000EA36F030EA56F000E8E
:103AB600A46F000EF76F000EF66FF6C0E0F0F7C0C9
:103AC600E1F0000EE36F070EE26F20EC21F0840EAA
:103AD6000001E66F000EE76FE051E627E151E723AC
:103AE600070EF603F3CFE8F0F4CFE9F0F703F3504F
:103AF600E927840EE825D96E000EE921DA6EDF503B
:103B0600EA6FEA51020DF3CFEBF0F4CFECF0070EBB
:103B1600F603F3CFEDF0F4CFEEF0F703F350EE2714
:103B2600850EED25D96E000EEE21DA6EDF50EF6FB1
:103B3600EF51200D000EF06F010EF16FF350F027DC
:103B4600F450F123EB51F025D96EEC51F121DA6EE8
:103B5600E6C0DEFFE7C0DDFFF64BF72BF7BFBDEF94
:103B66001DF0F75109E1060EF65DD8A0BDEF1DF078
:103B7600BFEF1DF060EF1DF012004F04D8A4C6EF92
:103B86001DF0C8EF1DF009EF1EF020EE06F00750FD
:103B9600D9260850DA22020EDF6E0001A851096EFE
:103BA6000A6A050ED89009360A36E82ED5EF1DF0BA
:103BB600A7510B6E0C6AD8900B360C36DE0E0D6EC6
:103BC600FF0E0E6E000E0F6E010E106E0D500F26BC
:103BD6000E5010220B500F260C50102209500F24A5
:103BE600D96E0A501020DA6E07C0DEFF08C0DDFF6E
:103BF600000EAB6F040EAD6F000EAA6FAAC0A9F03F
:103C0600A9C0A8F0A8C0A7F0A6EF1EF072C001F0E8
:103C160073C002F0000E046E070E036E34EC21F042
:103C26008A0E0124D96E000E0220DA6E000EDF6EB7
:103C360020EE06F00750D9260850DA22020EDF6E73
:103C4600000E126E000E116E11C001F012C002F0CD
:103C5600000E046E070E036E34EC21F0840E096E1E
:103C6600000E0A6E0150092602500A220750091852
:103C760007E108500A18D8A443EF1EF045EF1EF0DE
:103C86004BEF1EF011C072F012C073F05BEF1EF026
:103C9600114A122A12BE59EF1EF0125009E1040E03
:103CA600115CD8A059EF1EF05BEF1EF027EF1EF057
:103CB6000001A851096E0A6A050ED89009360A361F
:103CC600E82E60EF1EF0A7510B6E0C6AD8900B36EB
:103CD6000C36DE0E0D6EFF0E0E6E000E0F6E010E12
:103CE600106E0D500F260E5010220B500F260C5042
:103CF600102209500F24D96E0A501020DA6E07C020
:103D0600DEFF08C0DDFF000EAB6F000EA86FA8C077
:103D1600A7F0040EAD6F000EA46F20EE05F007505D
:103D2600D9260850DA22DF50D8A49CEF1EF09EEF69
:103D36001EF0A2EF1EF0824B832BA4EF1EF0804BE9
:103D4600812B010E4F6E1200000E096E000E086EDA
:103D560008C001F009C002F0000E046E070E036EE3
:103D660034EC21F0840E0124D96E000E0220DA6EA6
:103D76000001A751DE18D8A4C3EF1EF0C5EF1EF050
:103D86003DEF1FF008C001F009C002F0000E046EFE
:103D9600070E036E34EC21F0850E0124D96E000E59
:103DA6000220DA6E0001A851DE18D8A4DDEF1EF05D
:103DB600DFEF1EF03DEF1FF008C001F009C002F072
:103DC600000E046E070E036E34EC21F0890E0124FA
:103DD600D96E000E0220DA6EDF50D8A4F5EF1EF081
:103DE600F7EF1EF0FCEF1EF00001824B832BFFEF76
:103DF6001EF00001804B812B010E4F6E000E6B6E84
:103E0600000E6A6E000EA46F000EAB6F72C001F05A
:103E160073C002F0000E046E070E036E34EC21F040
:103E26008A0E0124D96E000E0220DA6E000EDF6EB5
:103E360008C001F009C002F0000E046E070E036E02
:103E460034EC21F08A0E0124D96E000E0220DA6EBF
:103E5600020EDF6E08C072F009C073F008C001F0F0
:103E660009C002F0000E046E070E036E34EC21F05A
:103E76004DEF1FF0084A092A09BE4BEF1FF0095003
:103E860009E1040E085CD8A04BEF1FF04DEF1FF0C0
:103E9600ABEF1EF01200000E756E000E746E74C04D
:103EA60076F075C077F076C078F077C079F0070EB7
:103EB600C16EF19E000E816E810EB16E9368000E8A
:103EC600926E000E956E130ED56E000E7B6E000E72
:103ED600D66E800ED76ED58EF28CF288F286F28A76
:103EE600F086F19CF19AF290F292F090F296F28EB0
:103EF60081CF81FFF290F286F180F184F08C9F8071
:103F06009F8C9D809E909F80ED0ECE6E850ECF6E0F
:103F1600B00ECD6E9D829E929F92D08E7F0ECA6EFF
:103F2600C2500109C26E920EC06E000EC46E000E23
:103F3600C36E9E9C9D8CC28012001E0EF66E430EB2
:103F4600F76E000EF86E01EEBCF010EE0BF00900F5
:103F5600F5CFEEFFE550E150FAE1160EF66E420E91
:103F6600F76E000EF86E00EEAEF010EE2AF00900C5
:103F7600F5CFEEFFE550E150FAE1D40EF66E420EB3
:103F8600F76E000EF86E00EE4BF010EE1DF0090015
:103F9600F5CFEEFFE550E150FAE101EE00F0BC0E80
:103FA600EE6AE806FDE100EE80F02E0EEE6AE80607
:103FB600FDE100EE68F0140EEE6AE806FDE17C9085
:103FC6007C92000EF86E000179EF21F0D00E000110
:103FD600E36F000EE46F000ECDEC20F0C80E00017A
:103FE600E36F000EE46F010ECDEC20F0C00E000171
:103FF600E36F000EE46F020ECDEC20F0B80E000168
:10400600E36F000EE46F030ECDEC20F0B00E00015E
:10401600E36F000EE46F040ECDEC20F0600E00019D
:10402600E36F000EE46F050ECDEC20F0580E000194
:10403600E36F000EE46F060ECDEC20F0500E00018B
:10404600E36F000EE46F070ECDEC20F012000001C6
:10405600E26F0001E105D8A433EF20F035EF20F040
:104066003CEF20F0E2050F0B800F59EC21F061EFD9
:1040760020F0020EE119D8A443EF20F045EF20F01E
:104086004CEF20F0E2050F0BC00F59EC21F061EF69
:1040960020F0030EE119D8A453EF20F055EF20F0DD
:1040A6005CEF20F0E2050F0B900F59EC21F061EF69
:1040B60020F0E2050F0BD00F59EC21F0E2C0AFF073
:1040C600E1C0AEF01200B190B2CF01F0026A06C0B4
:1040D60003F007C004F09BEC20F001500D6EB2CF48
:1040E600B3FF000E0B6E000E0A6E85EF20F0B25085
:1040F600800B0C6ED890B2360C44010BB210B26E27
:104106000A4A0B2A070E0614086E000E0714096EDB
:1041160008500A5C09500B58D8A094EF20F096EF8F
:1041260020F07AEF20F0B1800DC006F0076A120089
:1041360003500410D8B4A2EF20F0A4EF20F0C8EF8B
:1041460020F0010E056EACEF20F0D8900336043651
:10415600052A04AEB1EF20F0B3EF20F0A8EF20F06F
:104166000350015C04500258D8A0BCEF20F0BEEF0B
:1041760020F0C2EF20F00350015E0450025AD8909E
:1041860004320332052EB3EF20F001C001F002C065
:1041960002F012000001E56F0001E551080DF35031
:1041A600400F59EC21F0000E0001E66FE651E325C1
:1041B600D96E000EE421DA6EDF5047EC21F00001E3
:1041C600E62B070EE665EAEF20F0ECEF20F0D9EFDC
:1041D60020F0AEC0E1F0AF512AEC20F0120096922A
:1041E6009694000E956E84928494380E59EC21F0C4
:1041F600080E59EC21F00C0E59EC21F0060E59EC84
:1042060021F0010E59EC21F0800E59EC21F012003C
:1042160001011F150A0404040A1F11150A040E1FC2
:104226000A1F11150A0404040A1F11150A040E1F99
:104236000A0A11150A0404040A0A0001E051E203FD
:10424600F3CFE4F0F4CFE5F0E051E303F350E527D4
:10425600E151E203F350E527E4C0E0F0E5C0E1F008
:10426600120001500302F3CF05F0F4CF06F001501F
:104276000402F350062602500302F350062605C038
:1042860001F006C002F012000001E06F84928484FF
:10429600E0C083FF8482FA0E00D0E82EFDD7849218
:1042A600FA0E00D0E82EFDD7849412000001E06FCC
:1042B60084928494E0C083FF8482FA0E00D0E82EB4
:1042C600FDD78492FA0E00D0E82EFDD7120010001A
:1042D6001000010E1111110E0000000E1F1F1F0EFF
:0B42E6000000001F150A040E1F0A1F35
:1042F2004EEC1FF0F2EC20F0BDEC1CF0E9EC1FF0EC
:1043020011EC0BF081EF21F063EF00F0000E7B6EF9
:10431200000ED66E000ED76ED58E12003F065B4F92
:07432200666D7D077F6F400F
:020000040020DA
:08000000FFFFFFFFFFFFFFFF00
:020000040030CA
:0E000000FF071F1FFF8385FF0FC00FE00F409B
:00000001FF
